{
  "abi": [
    {
      "constant": true,
      "inputs": [],
      "name": "init1_block_height",
      "outputs": [
        {
          "name": "",
          "type": "uint256"
        }
      ],
      "payable": false,
      "stateMutability": "view",
      "type": "function"
    },
    {
      "constant": false,
      "inputs": [],
      "name": "init2",
      "outputs": [],
      "payable": false,
      "stateMutability": "nonpayable",
      "type": "function"
    },
    {
      "constant": false,
      "inputs": [
        {
          "name": "submission_index",
          "type": "uint256"
        }
      ],
      "name": "evaluate_model",
      "outputs": [],
      "payable": false,
      "stateMutability": "nonpayable",
      "type": "function"
    },
    {
      "constant": true,
      "inputs": [
        {
          "name": "submission_index",
          "type": "uint256"
        },
        {
          "name": "data",
          "type": "int256[3][]"
        }
      ],
      "name": "model_accuracy",
      "outputs": [
        {
          "name": "",
          "type": "int256"
        }
      ],
      "payable": false,
      "stateMutability": "view",
      "type": "function"
    },
    {
      "constant": true,
      "inputs": [],
      "name": "get_training_index",
      "outputs": [
        {
          "name": "",
          "type": "uint256[16]"
        }
      ],
      "payable": false,
      "stateMutability": "view",
      "type": "function"
    },
    {
      "constant": true,
      "inputs": [],
      "name": "evaluation_stage_block_size",
      "outputs": [
        {
          "name": "",
          "type": "uint256"
        }
      ],
      "payable": false,
      "stateMutability": "view",
      "type": "function"
    },
    {
      "constant": true,
      "inputs": [
        {
          "name": "",
          "type": "uint256"
        },
        {
          "name": "",
          "type": "uint256"
        }
      ],
      "name": "test_data",
      "outputs": [
        {
          "name": "",
          "type": "int256"
        }
      ],
      "payable": false,
      "stateMutability": "view",
      "type": "function"
    },
    {
      "constant": true,
      "inputs": [],
      "name": "get_testing_index",
      "outputs": [
        {
          "name": "",
          "type": "uint256[4]"
        }
      ],
      "payable": false,
      "stateMutability": "view",
      "type": "function"
    },
    {
      "constant": false,
      "inputs": [
        {
          "name": "_test_data_groups",
          "type": "int256[]"
        },
        {
          "name": "_test_data_group_nonces",
          "type": "int256"
        }
      ],
      "name": "reveal_test_data",
      "outputs": [],
      "payable": false,
      "stateMutability": "nonpayable",
      "type": "function"
    },
    {
      "constant": true,
      "inputs": [
        {
          "name": "paymentAddress",
          "type": "address"
        },
        {
          "name": "num_neurons_input_layer",
          "type": "uint256"
        },
        {
          "name": "num_neurons_output_layer",
          "type": "uint256"
        },
        {
          "name": "num_neurons_hidden_layer",
          "type": "uint256[]"
        },
        {
          "name": "weights",
          "type": "int256[]"
        },
        {
          "name": "biases",
          "type": "int256[]"
        }
      ],
      "name": "get_submission_id",
      "outputs": [
        {
          "name": "",
          "type": "uint256"
        }
      ],
      "payable": false,
      "stateMutability": "view",
      "type": "function"
    },
    {
      "constant": true,
      "inputs": [],
      "name": "best_submission_index",
      "outputs": [
        {
          "name": "",
          "type": "uint256"
        }
      ],
      "payable": false,
      "stateMutability": "view",
      "type": "function"
    },
    {
      "constant": true,
      "inputs": [],
      "name": "use_test_data",
      "outputs": [
        {
          "name": "",
          "type": "bool"
        }
      ],
      "payable": false,
      "stateMutability": "view",
      "type": "function"
    },
    {
      "constant": false,
      "inputs": [
        {
          "name": "_train_data_groups",
          "type": "int256[]"
        },
        {
          "name": "_train_data_group_nonces",
          "type": "int256"
        }
      ],
      "name": "init3",
      "outputs": [],
      "payable": false,
      "stateMutability": "nonpayable",
      "type": "function"
    },
    {
      "constant": true,
      "inputs": [
        {
          "name": "l_nn",
          "type": "uint256[]"
        },
        {
          "name": "input_layer",
          "type": "int256[]"
        },
        {
          "name": "hidden_layers",
          "type": "int256[]"
        },
        {
          "name": "output_layer",
          "type": "int256[]"
        },
        {
          "name": "weights",
          "type": "int256[]"
        },
        {
          "name": "biases",
          "type": "int256[]"
        }
      ],
      "name": "forward_pass2",
      "outputs": [
        {
          "name": "",
          "type": "int256[]"
        }
      ],
      "payable": false,
      "stateMutability": "pure",
      "type": "function"
    },
    {
      "constant": false,
      "inputs": [
        {
          "name": "_hashed_data_groups",
          "type": "bytes32[20]"
        },
        {
          "name": "accuracy_criteria",
          "type": "int256"
        },
        {
          "name": "organizer_refund_address",
          "type": "address"
        }
      ],
      "name": "init1",
      "outputs": [],
      "payable": false,
      "stateMutability": "nonpayable",
      "type": "function"
    },
    {
      "constant": true,
      "inputs": [],
      "name": "organizer",
      "outputs": [
        {
          "name": "",
          "type": "address"
        }
      ],
      "payable": false,
      "stateMutability": "view",
      "type": "function"
    },
    {
      "constant": true,
      "inputs": [],
      "name": "init_level",
      "outputs": [
        {
          "name": "",
          "type": "uint256"
        }
      ],
      "payable": false,
      "stateMutability": "view",
      "type": "function"
    },
    {
      "constant": true,
      "inputs": [
        {
          "name": "",
          "type": "uint256"
        }
      ],
      "name": "testing_partition",
      "outputs": [
        {
          "name": "",
          "type": "uint256"
        }
      ],
      "payable": false,
      "stateMutability": "view",
      "type": "function"
    },
    {
      "constant": true,
      "inputs": [],
      "name": "get_train_data_length",
      "outputs": [
        {
          "name": "",
          "type": "uint256"
        }
      ],
      "payable": false,
      "stateMutability": "view",
      "type": "function"
    },
    {
      "constant": true,
      "inputs": [],
      "name": "best_submission_accuracy",
      "outputs": [
        {
          "name": "",
          "type": "int256"
        }
      ],
      "payable": false,
      "stateMutability": "view",
      "type": "function"
    },
    {
      "constant": false,
      "inputs": [],
      "name": "finalize_contract",
      "outputs": [],
      "payable": false,
      "stateMutability": "nonpayable",
      "type": "function"
    },
    {
      "constant": true,
      "inputs": [],
      "name": "contract_terminated",
      "outputs": [
        {
          "name": "",
          "type": "bool"
        }
      ],
      "payable": false,
      "stateMutability": "view",
      "type": "function"
    },
    {
      "constant": true,
      "inputs": [],
      "name": "init3_block_height",
      "outputs": [
        {
          "name": "",
          "type": "uint256"
        }
      ],
      "payable": false,
      "stateMutability": "view",
      "type": "function"
    },
    {
      "constant": true,
      "inputs": [],
      "name": "get_submission_queue_length",
      "outputs": [
        {
          "name": "",
          "type": "uint256"
        }
      ],
      "payable": false,
      "stateMutability": "view",
      "type": "function"
    },
    {
      "constant": false,
      "inputs": [
        {
          "name": "payment_address",
          "type": "address"
        },
        {
          "name": "num_neurons_input_layer",
          "type": "uint256"
        },
        {
          "name": "num_neurons_output_layer",
          "type": "uint256"
        },
        {
          "name": "num_neurons_hidden_layer",
          "type": "uint256[]"
        },
        {
          "name": "weights",
          "type": "int256[]"
        },
        {
          "name": "biases",
          "type": "int256[]"
        }
      ],
      "name": "submit_model",
      "outputs": [],
      "payable": false,
      "stateMutability": "nonpayable",
      "type": "function"
    },
    {
      "constant": true,
      "inputs": [
        {
          "name": "",
          "type": "uint256"
        }
      ],
      "name": "training_partition",
      "outputs": [
        {
          "name": "",
          "type": "uint256"
        }
      ],
      "payable": false,
      "stateMutability": "view",
      "type": "function"
    },
    {
      "constant": true,
      "inputs": [],
      "name": "reveal_test_data_groups_block_size",
      "outputs": [
        {
          "name": "",
          "type": "uint256"
        }
      ],
      "payable": false,
      "stateMutability": "view",
      "type": "function"
    },
    {
      "constant": false,
      "inputs": [],
      "name": "cancel_contract",
      "outputs": [],
      "payable": false,
      "stateMutability": "nonpayable",
      "type": "function"
    },
    {
      "constant": true,
      "inputs": [],
      "name": "model_accuracy_criteria",
      "outputs": [
        {
          "name": "",
          "type": "int256"
        }
      ],
      "payable": false,
      "stateMutability": "view",
      "type": "function"
    },
    {
      "constant": true,
      "inputs": [
        {
          "name": "",
          "type": "uint256"
        },
        {
          "name": "",
          "type": "uint256"
        }
      ],
      "name": "train_data",
      "outputs": [
        {
          "name": "",
          "type": "int256"
        }
      ],
      "payable": false,
      "stateMutability": "view",
      "type": "function"
    },
    {
      "constant": true,
      "inputs": [],
      "name": "get_test_data_length",
      "outputs": [
        {
          "name": "",
          "type": "uint256"
        }
      ],
      "payable": false,
      "stateMutability": "view",
      "type": "function"
    },
    {
      "constant": true,
      "inputs": [],
      "name": "submission_stage_block_size",
      "outputs": [
        {
          "name": "",
          "type": "uint256"
        }
      ],
      "payable": false,
      "stateMutability": "view",
      "type": "function"
    },
    {
      "inputs": [],
      "payable": false,
      "stateMutability": "nonpayable",
      "type": "constructor"
    },
    {
      "payable": true,
      "stateMutability": "payable",
      "type": "fallback"
    }
  ],
  "bytecode": "6060604052600060028190556004805460ff199081169091556203b100603055614380603155619d806032556035829055604a829055604b91909155604d80549091169055341561004f57600080fd5b6125f48061005e6000396000f3006060604052600436106101955763ffffffff7c010000000000000000000000000000000000000000000000000000000060003504166302a3036d8114610197578063069489a2146101bc57806310b787d1146101cf57806325172c4a146101e5578063251fbe371461026c5780632e2a6488146102b8578063336664b5146102cb57806339d51cc0146102e45780633dc37539146103115780633f45c37314610333578063515ced53146104195780635bf72bb11461042c5780635cd27e8d146104535780635e815320146104755780635fce2b3d14610657578063612032651461067d57806366b7afbf146106ac5780636a2e2076146106bf5780636bc32c7b146106d55780636d48ae25146106e85780637053fe8d146106fb578063764c499b1461070e5780637e1db5161461072157806389128b701461073457806392e43b5214610747578063957b16221461082d57806399b47af814610843578063a7f8fbd414610856578063a8f5660014610869578063c158a0b21461087c578063c78974de14610895578063ebaa32f3146108a8575b005b34156101a257600080fd5b6101aa6108bb565b60405190815260200160405180910390f35b34156101c757600080fd5b6101956108c1565b34156101da57600080fd5b61019560043561096e565b34156101f057600080fd5b6101aa600480359060446024803590810190830135806020818102016040519081016040528181529291906000602085015b8282101561025e576060808302860190600390604051908101604052919082826060808284375050509183525050600190910190602001610222565b505050505091905050610b06565b341561027757600080fd5b61027f610f67565b604051808261020080838360005b838110156102a557808201518382015260200161028d565b5050505090500191505060405180910390f35b34156102c357600080fd5b6101aa610fa7565b34156102d657600080fd5b6101aa600435602435610fad565b34156102ef57600080fd5b6102f7610fdf565b60405180826080808383600081518382015260200161028d565b341561031c57600080fd5b610195602460048035828101929101359035611019565b341561033e57600080fd5b6101aa60048035600160a060020a0316906024803591604435916084906064359081019083013580602080820201604051908101604052809392919081815260200183836020028082843782019150505050505091908035906020019082018035906020019080806020026020016040519081016040528093929190818152602001838360200280828437820191505050505050919080359060200190820180359060200190808060200260200160405190810160405280939291908181526020018383602002808284375094965061111795505050505050565b341561042457600080fd5b6101aa6112fe565b341561043757600080fd5b61043f611304565b604051901515815260200160405180910390f35b341561045e57600080fd5b61019560246004803582810192910135903561130d565b341561048057600080fd5b610604600460248135818101908301358060208181020160405190810160405280939291908181526020018383602002808284378201915050505050509190803590602001908201803590602001908080602002602001604051908101604052809392919081815260200183836020028082843782019150505050505091908035906020019082018035906020019080806020026020016040519081016040528093929190818152602001838360200280828437820191505050505050919080359060200190820180359060200190808060200260200160405190810160405280939291908181526020018383602002808284378201915050505050509190803590602001908201803590602001908080602002602001604051908101604052809392919081815260200183836020028082843782019150505050505091908035906020019082018035906020019080806020026020016040519081016040528093929190818152602001838360200280828437509496506113f095505050505050565b60405160208082528190810183818151815260200191508051906020019060200280838360005b8381101561064357808201518382015260200161062b565b505050509050019250505060405180910390f35b341561066257600080fd5b610195600461028435600160a060020a036102a43516611613565b341561068857600080fd5b61069061167a565b604051600160a060020a03909116815260200160405180910390f35b34156106b757600080fd5b6101aa611689565b34156106ca57600080fd5b6101aa60043561168f565b34156106e057600080fd5b6101aa6116a3565b34156106f357600080fd5b6101aa6116a9565b341561070657600080fd5b6101956116af565b341561071957600080fd5b61043f6118f9565b341561072c57600080fd5b6101aa611902565b341561073f57600080fd5b6101aa611908565b341561075257600080fd5b61019560048035600160a060020a0316906024803591604435916084906064359081019083013580602080820201604051908101604052809392919081815260200183836020028082843782019150505050505091908035906020019082018035906020019080806020026020016040519081016040528093929190818152602001838360200280828437820191505050505050919080359060200190820180359060200190808060200260200160405190810160405280939291908181526020018383602002808284375094965061190e95505050505050565b341561083857600080fd5b6101aa600435611a66565b341561084e57600080fd5b6101aa611a73565b341561086157600080fd5b610195611a79565b341561087457600080fd5b6101aa611adb565b341561088757600080fd5b6101aa600435602435611ae1565b34156108a057600080fd5b6101aa611aef565b34156108b357600080fd5b6101aa611af5565b60335481565b6108c961232b565b604d5460009060ff16156108d957fe5b6035546001146108e557fe5b60335460140143111580156108fb575060335443115b1561096257601460405180591061090f5750595b90808252806020026020018201604052509150600090505b601481101561094f578082828151811061093d57fe5b60209081029091010152600101610927565b61095882611afb565b600260355561096a565b61096a611a79565b5050565b604d5460009060ff161561097e57fe5b60355460031461098a57fe5b603154603054603454010143101561099e57fe5b60325460315460305460345401010143106109b557fe5b5060045460009060ff16151560011415610a5457610a4d82602e80548060200260200160405190810160405281815291906000602084015b82821015610a44578382906000526020600020906003020160038060200260405190810160405291906060830182845b815481526020019060010190808311610a1d575050505050815260200190600101906109ed565b50505050610b06565b9050610ad2565b610acf82602d80548060200260200160405190810160405281815291906000602084015b82821015610a44578382906000526020600020906003020160038060200260405190810160405291906060830182845b815481526020019060010190808311610aa857505050505081526020019060010190610a78565b90505b600254811315610ae757600182905560028190555b60025481141561096a5760015482101561096a57600191909155600255565b6000610b1061233d565b6000806000610b1d61232b565b610b2561232b565b604d5460009081908190819060ff1615610b3b57fe5b603554600314610b4757fe5b604c80548e908110610b5557fe5b906000526020600020906006020160c060405190810160405290816000820160009054906101000a9004600160a060020a0316600160a060020a0316600160a060020a03168152602001600182015481526020016002820154815260200160038201805480602002602001604051908101604052809291908181526020018280548015610c0157602002820191906000526020600020905b815481526020019060010190808311610bed575b5050505050815260200160048201805480602002602001604051908101604052809291908181526020018280548015610c5957602002820191906000526020600020905b815481526020019060010190808311610c45575b5050505050815260200160058201805480602002602001604051908101604052809291908181526020018280548015610cb157602002820191906000526020600020905b815481526020019060010190808311610c9d575b50505050508152505099506000985060009750896040015160021415610d2457600196508960400151604051805910610ce75750595b908082528060200260200182016040525095508960400151604051805910610d0c5750595b90808252806020026020018201604052509450610d6d565b600096506001604051805910610d375750595b908082528060200260200182016040525095506001604051805910610d595750595b908082528060200260200182016040525094505b600093505b8b51841015610f4457600292505b8b8481518110610d8c57fe5b90602001906020020151506003831015610ebe576001198301915086151560011415610e76578b8481518110610dbe57fe5b906020019060200201518360038110610dd357fe5b60200201511515610e16576001858381518110610dec57fe5b602090810290910101526000856001840181518110610e0757fe5b60209081029091010152610e71565b8b8481518110610e2257fe5b906020019060200201518360038110610e3757fe5b602002015160011415610e6c576000858381518110610e5257fe5b6020908102909101015260018583820181518110610e0757fe5b600080fd5b610eb3565b8b8481518110610e8257fe5b906020019060200201518360038110610e9757fe5b6020020151858381518110610ea857fe5b602090810290910101525b600190920191610d80565b610edd8a8d8681518110610ece57fe5b90602001906020020151611c1a565b9550600090505b8451811015610f3957858181518110610ef957fe5b90602001906020020151858281518110610f0f57fe5b906020019060200201511415610f2a57600189019850610f31565b6001880197505b600101610ee4565b600190930192610d72565b8789016127108a02811515610f5557fe5b059d9c50505050505050505050505050565b610f6f61238e565b603660106102006040519081016040529190610200830182845b815481526020019060010190808311610f8957505050505090505b90565b60325481565b602e805483908110610fbb57fe5b906000526020600020906003020181600381101515610fd657fe5b01549150829050565b610fe76123b6565b604660046080604051908101604052825481529190608083016001830160208501808311610f89575050505050905090565b604d5460ff161561102657fe5b60355460031461103257fe5b6030546034540143101561104257fe5b6031546030546034540101431061105557fe5b6001600360198404041461106557fe5b60056046604b5460048110151561107857fe5b01546014811061108457fe5b01546110bd848480602080820201604051908101604052809392919081815260200183836020028082843750889450611cf99350505050565b146110c457fe5b604b8054600101905561110583838060208082020160405190810160405280939291908181526020018383602002808284375060009450611e009350505050565b50506004805460ff1916600117905550565b6000808080805b604c54841015610e6c578a600160a060020a0316604c8581548110151561114157fe5b6000918252602090912060069091020154600160a060020a031614611165576112e5565b89604c8581548110151561117557fe5b906000526020600020906006020160010154141515611193576112e5565b88604c858154811015156111a357fe5b9060005260206000209060060201600201541415156111c1576112e5565b600092505b8751831015611221578783815181106111db57fe5b90602001906020020151604c8054869081106111f357fe5b90600052602060002090600602016003018481548110151561121157fe5b50600052506001909201916111c6565b600091505b86518210156112815786828151811061123b57fe5b90602001906020020151604c80548690811061125357fe5b90600052602060002090600602016004018381548110151561127157fe5b5060005250600190910190611226565b5060005b85518110156112dd5785818151811061129a57fe5b90602001906020020151604c8054869081106112b257fe5b9060005260206000209060060201600501828154811015156112d057fe5b5060005250600101611285565b8394506112f0565b60019093019261111e565b505050509695505050505050565b60015481565b60045460ff1681565b604d5460ff161561131a57fe5b60355460021461132657fe5b6001600360198404041461133657fe5b60056036604a5460108110151561134957fe5b01546014811061135557fe5b015461138e848480602080820201604051908101604052809392919081815260200183836020028082843750889450611cf99350505050565b1461139557fe5b604a805460010190556113d683838060208082020160405190810160405280939291908181526020018383602002808284375060019450611e009350505050565b604a54601014156113eb576003603555436034555b505050565b6113f861232b565b61140061232b565b600061140a61232b565b61141261232b565b600080600060026040518059106114265750595b90808252806020026020018201604052509650600095505b60018e5103861015611601578b51156114b45785151561146d576114638c8f88611fb6565b94508c93506114af565b60028e5103861415611491578a945061148a8c8f60018903611fb6565b93506114af565b61149c8c8f88611fb6565b94506114ac8c8f60018903611fb6565b93505b6114bb565b8a94508c93505b600092505b84518310156115f6575060009050805b83518110156115465789876000815181106114e757fe5b90602001906020020151815181106114fb57fe5b9060200190602002015184828151811061151157fe5b9060200190602002015102820191508660008151811061152d57fe5b90602001906020020180516001908101909152016114d0565b88868151811061155257fe5b906020019060200201516127109201919091059060028e51038614156115965761157b826120d3565b8b848151811061158757fe5b602090810290910101526115cc565b61159f826120d3565b8c886001815181106115ad57fe5b90602001906020020151815181106115c157fe5b602090810290910101525b866001815181106115d957fe5b9060200190602002018051600190810190915292909201916114c0565b60019095019461143e565b50989c9b505050505050505050505050565b604d5460ff161561162057fe5b6035541561162a57fe5b6000805473ffffffffffffffffffffffffffffffffffffffff1916600160a060020a03831617905560016035554360335561166860058460146123d0565b506000821361167357fe5b5060035550565b600054600160a060020a031681565b60355481565b6046816004811061169c57fe5b0154905081565b602d5490565b60025481565b6116b761233d565b604d5460ff16156116c457fe5b6035546003146116d057fe5b6032546031546030546034540101014310156116e857fe5b604c6001548154811015156116f957fe5b906000526020600020906006020160c060405190810160405290816000820160009054906101000a9004600160a060020a0316600160a060020a0316600160a060020a031681526020016001820154815260200160028201548152602001600382018054806020026020016040519081016040528092919081815260200182805480156117a557602002820191906000526020600020905b815481526020019060010190808311611791575b50505050508152602001600482018054806020026020016040519081016040528092919081815260200182805480156117fd57602002820191906000526020600020905b8154815260200190600101908083116117e9575b505050505081526020016005820180548060200260200160405190810160405280929190818152602001828054801561185557602002820191906000526020600020905b815481526020019060010190808311611841575b50505050508152505090506003546002541215156118b0578051600160a060020a03166108fc30600160a060020a0316319081150290604051600060405180830381858888f1935050505015156118ab57600080fd5b6118e9565b600054600160a060020a039081169030163180156108fc0290604051600060405180830381858888f1935050505015156118e957600080fd5b50604d805460ff19166001179055565b604d5460ff1681565b60345481565b604c5490565b604d5460ff161561191b57fe5b60355460031461192757fe5b60305460345401431061193657fe5b6002851461194057fe5b600184148061194f5750600284145b151561195757fe5b611963828686866120ed565b151561196b57fe5b604c80546001810161197d8382612410565b9160005260206000209060060201600060c0604051908101604052808a600160a060020a031681526020018981526020018881526020018781526020018681526020018581525090919091506000820151815473ffffffffffffffffffffffffffffffffffffffff1916600160a060020a03919091161781556020820151816001015560408201518160020155606082015181600301908051611a2492916020019061243c565b50608082015181600401908051611a3f92916020019061243c565b5060a082015181600501908051611a5a92916020019061243c565b50505050505050505050565b6036816010811061169c57fe5b60315481565b604d5460ff1615611a8657fe5b60355460039010611a9357fe5b600054600160a060020a039081169030163180156108fc0290604051600060405180830381858888f193505050501515611acc57600080fd5b604d805460ff19166001179055565b60035481565b602d805483908110610fbb57fe5b602e5490565b60305481565b600080808084519250600091505b6010841015611bca57826002834303406000604051602001526040519081526020908101906040518083038160008661646e5a03f11515611b4957600080fd5b505060405180519050811515611b5b57fe5b069050848181518110611b6a57fe5b9060200190602002015160368560108110611b8157fe5b015584600019840181518110611b9357fe5b90602001906020020151858281518110611ba957fe5b60209081029091010152600193840193600019909301929190910190611b09565b600093505b6004841015611c1357846001840381518110611be757fe5b9060200190602002015160468560048110611bfe57fe5b01556001939093019260001990920191611bcf565b5050505050565b611c2261232b565b611c2a61232b565b6000846060015151600201604051805910611c425750595b818152602091820281018201604052925085015182600081518110611c6357fe5b602090810290910101525060005b846060015151811015611cb95784606001518181518110611c8e57fe5b90602001906020020151828260010181518110611ca757fe5b60209081029091010152600101611c71565b84604001518286606001515160010181518110611cd257fe5b60209081029091010152611cf08460808701518760a00151856121b2565b95945050505050565b6000806000611d0661232b565b60009250604b915082604c604051805910611d1e5750595b90808252806020026020018201604052509150600090505b82811015611d7657868181518110611d4a57fe5b90602001906020020151828581518110611d6057fe5b6020908102909101015260019384019301611d36565b85828581518110611d8357fe5b6020908102909101015260028260006040516020015260405180828051906020019060200280838360005b83811015611dc6578082015183820152602001611dae565b5050505090500191505060206040518083038160008661646e5a03f11515611ded57600080fd5b5050604051805198975050505050505050565b611e0861232b565b60008060008060038751811515611e1b57fe5b04604051805910611e295750595b908082528060200260200182016040528015611e5f57816020015b611e4c612477565b815260200190600190039081611e445790505b509450600093505b60038751811515611e7457fe5b04841015611ee157600092505b6003831015611ed6578683600386020181518110611e9b57fe5b90602001906020020151858581518110611eb157fe5b906020019060200201518460038110611ec657fe5b6020020152600190920191611e81565b600190930192611e67565b60018615151415611f5157600091505b8451821015611f4c57602d805460018101611f0c8382612491565b91600052602060002090600302016000878581518110611f2857fe5b90602001906020020151611f3f92915060036124bd565b5050600190910190611ef1565b611fad565b5060005b8451811015611fad57602e805460018101611f708382612491565b91600052602060002090600302016000878481518110611f8c57fe5b90602001906020020151611fa392915060036124bd565b5050600101611f55565b50505050505050565b611fbe61232b565b611fc661232b565b600080600080600080898960010181518110611fde57fe5b90602001906020020151604051805910611ff55750595b90808252806020026020018201604052509650600095506000945060009350600092505b888310156120495789836001018151811061203057fe5b9060200190602002015190940193600190920191612019565b600091505b886001018210156120815789826001018151811061206857fe5b906020019060200201519093019260019091019061204e565b50835b838110156120c4578a818151811061209857fe5b906020019060200201518787815181106120ae57fe5b6020908102909101015260019586019501612084565b50949998505050505050505050565b6000808212156120e5575060006120e8565b50805b919050565b60008080808085516002019150816002141561210d5786880293506121a0565b5060005b855181101561217f578015156121425785818151811061212d57fe5b90602001906020020151880284019350612177565b85818151811061214e57fe5b9060200190602002015186600183038151811061216757fe5b9060200190602002015102840193505b600101612111565b868660018851038151811061219057fe5b9060200190602002015102840193505b88519390931498975050505050505050565b6121ba61232b565b6121c261232b565b6121ca61232b565b6121d261232b565b60006121f3866000815181106121e457fe5b90602001906020020151612282565b93506121fe866122b7565b9250612213866001885103815181106121e457fe5b9150600090505b8560008151811061222757fe5b906020019060200201518110156122675788816003811061224457fe5b602002015184828151811061225557fe5b6020908102909101015260010161221a565b612275868585858c8c6113f0565b9998505050505050505050565b61228a61232b565b61229261232b565b826040518059106122a05750595b818152602091820281019091016040529392505050565b6122bf61232b565b6000806122ca61232b565b60009250600191505b6001855103821015612304578482815181106122eb57fe5b90602001906020020151909201916001909101906122d3565b826040518059106123125750595b8181526020918202810190910160405295945050505050565b60206040519081016040526000815290565b60c0604051908101604052806000600160a060020a03168152602001600081526020016000815260200161236f61232b565b815260200161237c61232b565b815260200161238961232b565b905290565b6102006040519081016040526010815b600081526020019060019003908161239e5790505090565b60806040519081016040526000815260036020820161239e565b8260148101928215612400579160200282015b8281111561240057823582556020909201916001909101906123e3565b5061240c9291506124ea565b5090565b8154818355818115116113eb576006028160060283600052602060002091820191016113eb9190612504565b828054828255906000526020600020908101928215612400579160200282015b8281111561240057825182559160200191906001019061245c565b60606040519081016040526000815260026020820161239e565b8154818355818115116113eb576003028160030283600052602060002091820191016113eb919061256f565b8260038101928215612400579160200282018281111561240057825182559160200191906001019061245c565b610fa491905b8082111561240c57600081556001016124f0565b610fa491905b8082111561240c57805473ffffffffffffffffffffffffffffffffffffffff191681556000600182018190556002820181905561254a6003830182612592565b612558600483016000612592565b612566600583016000612592565b5060060161250a565b610fa491905b8082111561240c57600061258982826125b3565b50600301612575565b50805460008255906000526020600020908101906125b091906124ea565b50565b506000815560010160008155600101600090555600a165627a7a7230582056bcc01e3402de4e7cc7c7e96a58331d9d970ed1ac1938cb9d30b38e4e59e88b0029",
  "bytecodeSha1": "80e57ac651a9bf31e613916584efb2285781693b",
  "compiler": {
    "optimize": true,
    "runs": 200,
    "version": "Version: 0.4.19+commit.c4cbbb05.Linux.g++"
  },
  "contractName": "Danku_demo",
  "coverageMapTotals": {
    "Danku_demo.Danku_demo": 1,
    "Danku_demo.best_submission_accuracy": 1,
    "Danku_demo.best_submission_index": 1,
    "Danku_demo.cancel_contract": 5,
    "Danku_demo.contract_terminated": 1,
    "Danku_demo.evaluate_model": 26,
    "Danku_demo.evaluation_stage_block_size": 1,
    "Danku_demo.get_submission_id": 19,
    "Danku_demo.get_submission_queue_length": 1,
    "Danku_demo.get_testing_index": 4,
    "Danku_demo.get_training_index": 3,
    "Danku_demo.init1_block_height": 2,
    "Danku_demo.init2": 16,
    "Danku_demo.init3": 10,
    "Danku_demo.init3_block_height": 1,
    "Danku_demo.init_level": 1,
    "Danku_demo.model_accuracy_criteria": 1,
    "Danku_demo.reveal_test_data": 9,
    "Danku_demo.reveal_test_data_groups_block_size": 1,
    "Danku_demo.submission_stage_block_size": 1,
    "Danku_demo.submit_model": 9,
    "Danku_demo.test_data": 1,
    "Danku_demo.testing_partition": 1,
    "Danku_demo.train_data": 1,
    "Danku_demo.training_partition": 1,
    "Danku_demo.use_test_data": 2,
    "total": 120
  },
  "opcodes": "PUSH1 0x60 PUSH1 0x40 MSTORE PUSH1 0x4 CALLDATASIZE LT PUSH2 0x195 JUMPI PUSH4 0xFFFFFFFF PUSH29 0x100000000000000000000000000000000000000000000000000000000 PUSH1 0x0 CALLDATALOAD DIV AND PUSH4 0x2A3036D DUP2 EQ PUSH2 0x197 JUMPI DUP1 PUSH4 0x69489A2 EQ PUSH2 0x1BC JUMPI DUP1 PUSH4 0x10B787D1 EQ PUSH2 0x1CF JUMPI DUP1 PUSH4 0x25172C4A EQ PUSH2 0x1E5 JUMPI DUP1 PUSH4 0x251FBE37 EQ PUSH2 0x26C JUMPI DUP1 PUSH4 0x2E2A6488 EQ PUSH2 0x2B8 JUMPI DUP1 PUSH4 0x336664B5 EQ PUSH2 0x2CB JUMPI DUP1 PUSH4 0x39D51CC0 EQ PUSH2 0x2E4 JUMPI DUP1 PUSH4 0x3DC37539 EQ PUSH2 0x311 JUMPI DUP1 PUSH4 0x3F45C373 EQ PUSH2 0x333 JUMPI DUP1 PUSH4 0x515CED53 EQ PUSH2 0x419 JUMPI DUP1 PUSH4 0x5BF72BB1 EQ PUSH2 0x42C JUMPI DUP1 PUSH4 0x5CD27E8D EQ PUSH2 0x453 JUMPI DUP1 PUSH4 0x5E815320 EQ PUSH2 0x475 JUMPI DUP1 PUSH4 0x5FCE2B3D EQ PUSH2 0x657 JUMPI DUP1 PUSH4 0x61203265 EQ PUSH2 0x67D JUMPI DUP1 PUSH4 0x66B7AFBF EQ PUSH2 0x6AC JUMPI DUP1 PUSH4 0x6A2E2076 EQ PUSH2 0x6BF JUMPI DUP1 PUSH4 0x6BC32C7B EQ PUSH2 0x6D5 JUMPI DUP1 PUSH4 0x6D48AE25 EQ PUSH2 0x6E8 JUMPI DUP1 PUSH4 0x7053FE8D EQ PUSH2 0x6FB JUMPI DUP1 PUSH4 0x764C499B EQ PUSH2 0x70E JUMPI DUP1 PUSH4 0x7E1DB516 EQ PUSH2 0x721 JUMPI DUP1 PUSH4 0x89128B70 EQ PUSH2 0x734 JUMPI DUP1 PUSH4 0x92E43B52 EQ PUSH2 0x747 JUMPI DUP1 PUSH4 0x957B1622 EQ PUSH2 0x82D JUMPI DUP1 PUSH4 0x99B47AF8 EQ PUSH2 0x843 JUMPI DUP1 PUSH4 0xA7F8FBD4 EQ PUSH2 0x856 JUMPI DUP1 PUSH4 0xA8F56600 EQ PUSH2 0x869 JUMPI DUP1 PUSH4 0xC158A0B2 EQ PUSH2 0x87C JUMPI DUP1 PUSH4 0xC78974DE EQ PUSH2 0x895 JUMPI DUP1 PUSH4 0xEBAA32F3 EQ PUSH2 0x8A8 JUMPI JUMPDEST STOP JUMPDEST CALLVALUE ISZERO PUSH2 0x1A2 JUMPI PUSH1 0x0 DUP1 REVERT JUMPDEST PUSH2 0x1AA PUSH2 0x8BB JUMP JUMPDEST PUSH1 0x40 MLOAD SWAP1 DUP2 MSTORE PUSH1 0x20 ADD PUSH1 0x40 MLOAD DUP1 SWAP2 SUB SWAP1 RETURN JUMPDEST CALLVALUE ISZERO PUSH2 0x1C7 JUMPI PUSH1 0x0 DUP1 REVERT JUMPDEST PUSH2 0x195 PUSH2 0x8C1 JUMP JUMPDEST CALLVALUE ISZERO PUSH2 0x1DA JUMPI PUSH1 0x0 DUP1 REVERT JUMPDEST PUSH2 0x195 PUSH1 0x4 CALLDATALOAD PUSH2 0x96E JUMP JUMPDEST CALLVALUE ISZERO PUSH2 0x1F0 JUMPI PUSH1 0x0 DUP1 REVERT JUMPDEST PUSH2 0x1AA PUSH1 0x4 DUP1 CALLDATALOAD SWAP1 PUSH1 0x44 PUSH1 0x24 DUP1 CALLDATALOAD SWAP1 DUP2 ADD SWAP1 DUP4 ADD CALLDATALOAD DUP1 PUSH1 0x20 DUP2 DUP2 MUL ADD PUSH1 0x40 MLOAD SWAP1 DUP2 ADD PUSH1 0x40 MSTORE DUP2 DUP2 MSTORE SWAP3 SWAP2 SWAP1 PUSH1 0x0 PUSH1 0x20 DUP6 ADD JUMPDEST DUP3 DUP3 LT ISZERO PUSH2 0x25E JUMPI PUSH1 0x60 DUP1 DUP4 MUL DUP7 ADD SWAP1 PUSH1 0x3 SWAP1 PUSH1 0x40 MLOAD SWAP1 DUP2 ADD PUSH1 0x40 MSTORE SWAP2 SWAP1 DUP3 DUP3 PUSH1 0x60 DUP1 DUP3 DUP5 CALLDATACOPY POP POP POP SWAP2 DUP4 MSTORE POP POP PUSH1 0x1 SWAP1 SWAP2 ADD SWAP1 PUSH1 0x20 ADD PUSH2 0x222 JUMP JUMPDEST POP POP POP POP POP SWAP2 SWAP1 POP POP PUSH2 0xB06 JUMP JUMPDEST CALLVALUE ISZERO PUSH2 0x277 JUMPI PUSH1 0x0 DUP1 REVERT JUMPDEST PUSH2 0x27F PUSH2 0xF67 JUMP JUMPDEST PUSH1 0x40 MLOAD DUP1 DUP3 PUSH2 0x200 DUP1 DUP4 DUP4 PUSH1 0x0 JUMPDEST DUP4 DUP2 LT ISZERO PUSH2 0x2A5 JUMPI DUP1 DUP3 ADD MLOAD DUP4 DUP3 ADD MSTORE PUSH1 0x20 ADD PUSH2 0x28D JUMP JUMPDEST POP POP POP POP SWAP1 POP ADD SWAP2 POP POP PUSH1 0x40 MLOAD DUP1 SWAP2 SUB SWAP1 RETURN JUMPDEST CALLVALUE ISZERO PUSH2 0x2C3 JUMPI PUSH1 0x0 DUP1 REVERT JUMPDEST PUSH2 0x1AA PUSH2 0xFA7 JUMP JUMPDEST CALLVALUE ISZERO PUSH2 0x2D6 JUMPI PUSH1 0x0 DUP1 REVERT JUMPDEST PUSH2 0x1AA PUSH1 0x4 CALLDATALOAD PUSH1 0x24 CALLDATALOAD PUSH2 0xFAD JUMP JUMPDEST CALLVALUE ISZERO PUSH2 0x2EF JUMPI PUSH1 0x0 DUP1 REVERT JUMPDEST PUSH2 0x2F7 PUSH2 0xFDF JUMP JUMPDEST PUSH1 0x40 MLOAD DUP1 DUP3 PUSH1 0x80 DUP1 DUP4 DUP4 PUSH1 0x0 DUP2 MLOAD DUP4 DUP3 ADD MSTORE PUSH1 0x20 ADD PUSH2 0x28D JUMP JUMPDEST CALLVALUE ISZERO PUSH2 0x31C JUMPI PUSH1 0x0 DUP1 REVERT JUMPDEST PUSH2 0x195 PUSH1 0x24 PUSH1 0x4 DUP1 CALLDATALOAD DUP3 DUP2 ADD SWAP3 SWAP2 ADD CALLDATALOAD SWAP1 CALLDATALOAD PUSH2 0x1019 JUMP JUMPDEST CALLVALUE ISZERO PUSH2 0x33E JUMPI PUSH1 0x0 DUP1 REVERT JUMPDEST PUSH2 0x1AA PUSH1 0x4 DUP1 CALLDATALOAD PUSH1 0x1 PUSH1 0xA0 PUSH1 0x2 EXP SUB AND SWAP1 PUSH1 0x24 DUP1 CALLDATALOAD SWAP2 PUSH1 0x44 CALLDATALOAD SWAP2 PUSH1 0x84 SWAP1 PUSH1 0x64 CALLDATALOAD SWAP1 DUP2 ADD SWAP1 DUP4 ADD CALLDATALOAD DUP1 PUSH1 0x20 DUP1 DUP3 MUL ADD PUSH1 0x40 MLOAD SWAP1 DUP2 ADD PUSH1 0x40 MSTORE DUP1 SWAP4 SWAP3 SWAP2 SWAP1 DUP2 DUP2 MSTORE PUSH1 0x20 ADD DUP4 DUP4 PUSH1 0x20 MUL DUP1 DUP3 DUP5 CALLDATACOPY DUP3 ADD SWAP2 POP POP POP POP POP POP SWAP2 SWAP1 DUP1 CALLDATALOAD SWAP1 PUSH1 0x20 ADD SWAP1 DUP3 ADD DUP1 CALLDATALOAD SWAP1 PUSH1 0x20 ADD SWAP1 DUP1 DUP1 PUSH1 0x20 MUL PUSH1 0x20 ADD PUSH1 0x40 MLOAD SWAP1 DUP2 ADD PUSH1 0x40 MSTORE DUP1 SWAP4 SWAP3 SWAP2 SWAP1 DUP2 DUP2 MSTORE PUSH1 0x20 ADD DUP4 DUP4 PUSH1 0x20 MUL DUP1 DUP3 DUP5 CALLDATACOPY DUP3 ADD SWAP2 POP POP POP POP POP POP SWAP2 SWAP1 DUP1 CALLDATALOAD SWAP1 PUSH1 0x20 ADD SWAP1 DUP3 ADD DUP1 CALLDATALOAD SWAP1 PUSH1 0x20 ADD SWAP1 DUP1 DUP1 PUSH1 0x20 MUL PUSH1 0x20 ADD PUSH1 0x40 MLOAD SWAP1 DUP2 ADD PUSH1 0x40 MSTORE DUP1 SWAP4 SWAP3 SWAP2 SWAP1 DUP2 DUP2 MSTORE PUSH1 0x20 ADD DUP4 DUP4 PUSH1 0x20 MUL DUP1 DUP3 DUP5 CALLDATACOPY POP SWAP5 SWAP7 POP PUSH2 0x1117 SWAP6 POP POP POP POP POP POP JUMP JUMPDEST CALLVALUE ISZERO PUSH2 0x424 JUMPI PUSH1 0x0 DUP1 REVERT JUMPDEST PUSH2 0x1AA PUSH2 0x12FE JUMP JUMPDEST CALLVALUE ISZERO PUSH2 0x437 JUMPI PUSH1 0x0 DUP1 REVERT JUMPDEST PUSH2 0x43F PUSH2 0x1304 JUMP JUMPDEST PUSH1 0x40 MLOAD SWAP1 ISZERO ISZERO DUP2 MSTORE PUSH1 0x20 ADD PUSH1 0x40 MLOAD DUP1 SWAP2 SUB SWAP1 RETURN JUMPDEST CALLVALUE ISZERO PUSH2 0x45E JUMPI PUSH1 0x0 DUP1 REVERT JUMPDEST PUSH2 0x195 PUSH1 0x24 PUSH1 0x4 DUP1 CALLDATALOAD DUP3 DUP2 ADD SWAP3 SWAP2 ADD CALLDATALOAD SWAP1 CALLDATALOAD PUSH2 0x130D JUMP JUMPDEST CALLVALUE ISZERO PUSH2 0x480 JUMPI PUSH1 0x0 DUP1 REVERT JUMPDEST PUSH2 0x604 PUSH1 0x4 PUSH1 0x24 DUP2 CALLDATALOAD DUP2 DUP2 ADD SWAP1 DUP4 ADD CALLDATALOAD DUP1 PUSH1 0x20 DUP2 DUP2 MUL ADD PUSH1 0x40 MLOAD SWAP1 DUP2 ADD PUSH1 0x40 MSTORE DUP1 SWAP4 SWAP3 SWAP2 SWAP1 DUP2 DUP2 MSTORE PUSH1 0x20 ADD DUP4 DUP4 PUSH1 0x20 MUL DUP1 DUP3 DUP5 CALLDATACOPY DUP3 ADD SWAP2 POP POP POP POP POP POP SWAP2 SWAP1 DUP1 CALLDATALOAD SWAP1 PUSH1 0x20 ADD SWAP1 DUP3 ADD DUP1 CALLDATALOAD SWAP1 PUSH1 0x20 ADD SWAP1 DUP1 DUP1 PUSH1 0x20 MUL PUSH1 0x20 ADD PUSH1 0x40 MLOAD SWAP1 DUP2 ADD PUSH1 0x40 MSTORE DUP1 SWAP4 SWAP3 SWAP2 SWAP1 DUP2 DUP2 MSTORE PUSH1 0x20 ADD DUP4 DUP4 PUSH1 0x20 MUL DUP1 DUP3 DUP5 CALLDATACOPY DUP3 ADD SWAP2 POP POP POP POP POP POP SWAP2 SWAP1 DUP1 CALLDATALOAD SWAP1 PUSH1 0x20 ADD SWAP1 DUP3 ADD DUP1 CALLDATALOAD SWAP1 PUSH1 0x20 ADD SWAP1 DUP1 DUP1 PUSH1 0x20 MUL PUSH1 0x20 ADD PUSH1 0x40 MLOAD SWAP1 DUP2 ADD PUSH1 0x40 MSTORE DUP1 SWAP4 SWAP3 SWAP2 SWAP1 DUP2 DUP2 MSTORE PUSH1 0x20 ADD DUP4 DUP4 PUSH1 0x20 MUL DUP1 DUP3 DUP5 CALLDATACOPY DUP3 ADD SWAP2 POP POP POP POP POP POP SWAP2 SWAP1 DUP1 CALLDATALOAD SWAP1 PUSH1 0x20 ADD SWAP1 DUP3 ADD DUP1 CALLDATALOAD SWAP1 PUSH1 0x20 ADD SWAP1 DUP1 DUP1 PUSH1 0x20 MUL PUSH1 0x20 ADD PUSH1 0x40 MLOAD SWAP1 DUP2 ADD PUSH1 0x40 MSTORE DUP1 SWAP4 SWAP3 SWAP2 SWAP1 DUP2 DUP2 MSTORE PUSH1 0x20 ADD DUP4 DUP4 PUSH1 0x20 MUL DUP1 DUP3 DUP5 CALLDATACOPY DUP3 ADD SWAP2 POP POP POP POP POP POP SWAP2 SWAP1 DUP1 CALLDATALOAD SWAP1 PUSH1 0x20 ADD SWAP1 DUP3 ADD DUP1 CALLDATALOAD SWAP1 PUSH1 0x20 ADD SWAP1 DUP1 DUP1 PUSH1 0x20 MUL PUSH1 0x20 ADD PUSH1 0x40 MLOAD SWAP1 DUP2 ADD PUSH1 0x40 MSTORE DUP1 SWAP4 SWAP3 SWAP2 SWAP1 DUP2 DUP2 MSTORE PUSH1 0x20 ADD DUP4 DUP4 PUSH1 0x20 MUL DUP1 DUP3 DUP5 CALLDATACOPY DUP3 ADD SWAP2 POP POP POP POP POP POP SWAP2 SWAP1 DUP1 CALLDATALOAD SWAP1 PUSH1 0x20 ADD SWAP1 DUP3 ADD DUP1 CALLDATALOAD SWAP1 PUSH1 0x20 ADD SWAP1 DUP1 DUP1 PUSH1 0x20 MUL PUSH1 0x20 ADD PUSH1 0x40 MLOAD SWAP1 DUP2 ADD PUSH1 0x40 MSTORE DUP1 SWAP4 SWAP3 SWAP2 SWAP1 DUP2 DUP2 MSTORE PUSH1 0x20 ADD DUP4 DUP4 PUSH1 0x20 MUL DUP1 DUP3 DUP5 CALLDATACOPY POP SWAP5 SWAP7 POP PUSH2 0x13F0 SWAP6 POP POP POP POP POP POP JUMP JUMPDEST PUSH1 0x40 MLOAD PUSH1 0x20 DUP1 DUP3 MSTORE DUP2 SWAP1 DUP2 ADD DUP4 DUP2 DUP2 MLOAD DUP2 MSTORE PUSH1 0x20 ADD SWAP2 POP DUP1 MLOAD SWAP1 PUSH1 0x20 ADD SWAP1 PUSH1 0x20 MUL DUP1 DUP4 DUP4 PUSH1 0x0 JUMPDEST DUP4 DUP2 LT ISZERO PUSH2 0x643 JUMPI DUP1 DUP3 ADD MLOAD DUP4 DUP3 ADD MSTORE PUSH1 0x20 ADD PUSH2 0x62B JUMP JUMPDEST POP POP POP POP SWAP1 POP ADD SWAP3 POP POP POP PUSH1 0x40 MLOAD DUP1 SWAP2 SUB SWAP1 RETURN JUMPDEST CALLVALUE ISZERO PUSH2 0x662 JUMPI PUSH1 0x0 DUP1 REVERT JUMPDEST PUSH2 0x195 PUSH1 0x4 PUSH2 0x284 CALLDATALOAD PUSH1 0x1 PUSH1 0xA0 PUSH1 0x2 EXP SUB PUSH2 0x2A4 CALLDATALOAD AND PUSH2 0x1613 JUMP JUMPDEST CALLVALUE ISZERO PUSH2 0x688 JUMPI PUSH1 0x0 DUP1 REVERT JUMPDEST PUSH2 0x690 PUSH2 0x167A JUMP JUMPDEST PUSH1 0x40 MLOAD PUSH1 0x1 PUSH1 0xA0 PUSH1 0x2 EXP SUB SWAP1 SWAP2 AND DUP2 MSTORE PUSH1 0x20 ADD PUSH1 0x40 MLOAD DUP1 SWAP2 SUB SWAP1 RETURN JUMPDEST CALLVALUE ISZERO PUSH2 0x6B7 JUMPI PUSH1 0x0 DUP1 REVERT JUMPDEST PUSH2 0x1AA PUSH2 0x1689 JUMP JUMPDEST CALLVALUE ISZERO PUSH2 0x6CA JUMPI PUSH1 0x0 DUP1 REVERT JUMPDEST PUSH2 0x1AA PUSH1 0x4 CALLDATALOAD PUSH2 0x168F JUMP JUMPDEST CALLVALUE ISZERO PUSH2 0x6E0 JUMPI PUSH1 0x0 DUP1 REVERT JUMPDEST PUSH2 0x1AA PUSH2 0x16A3 JUMP JUMPDEST CALLVALUE ISZERO PUSH2 0x6F3 JUMPI PUSH1 0x0 DUP1 REVERT JUMPDEST PUSH2 0x1AA PUSH2 0x16A9 JUMP JUMPDEST CALLVALUE ISZERO PUSH2 0x706 JUMPI PUSH1 0x0 DUP1 REVERT JUMPDEST PUSH2 0x195 PUSH2 0x16AF JUMP JUMPDEST CALLVALUE ISZERO PUSH2 0x719 JUMPI PUSH1 0x0 DUP1 REVERT JUMPDEST PUSH2 0x43F PUSH2 0x18F9 JUMP JUMPDEST CALLVALUE ISZERO PUSH2 0x72C JUMPI PUSH1 0x0 DUP1 REVERT JUMPDEST PUSH2 0x1AA PUSH2 0x1902 JUMP JUMPDEST CALLVALUE ISZERO PUSH2 0x73F JUMPI PUSH1 0x0 DUP1 REVERT JUMPDEST PUSH2 0x1AA PUSH2 0x1908 JUMP JUMPDEST CALLVALUE ISZERO PUSH2 0x752 JUMPI PUSH1 0x0 DUP1 REVERT JUMPDEST PUSH2 0x195 PUSH1 0x4 DUP1 CALLDATALOAD PUSH1 0x1 PUSH1 0xA0 PUSH1 0x2 EXP SUB AND SWAP1 PUSH1 0x24 DUP1 CALLDATALOAD SWAP2 PUSH1 0x44 CALLDATALOAD SWAP2 PUSH1 0x84 SWAP1 PUSH1 0x64 CALLDATALOAD SWAP1 DUP2 ADD SWAP1 DUP4 ADD CALLDATALOAD DUP1 PUSH1 0x20 DUP1 DUP3 MUL ADD PUSH1 0x40 MLOAD SWAP1 DUP2 ADD PUSH1 0x40 MSTORE DUP1 SWAP4 SWAP3 SWAP2 SWAP1 DUP2 DUP2 MSTORE PUSH1 0x20 ADD DUP4 DUP4 PUSH1 0x20 MUL DUP1 DUP3 DUP5 CALLDATACOPY DUP3 ADD SWAP2 POP POP POP POP POP POP SWAP2 SWAP1 DUP1 CALLDATALOAD SWAP1 PUSH1 0x20 ADD SWAP1 DUP3 ADD DUP1 CALLDATALOAD SWAP1 PUSH1 0x20 ADD SWAP1 DUP1 DUP1 PUSH1 0x20 MUL PUSH1 0x20 ADD PUSH1 0x40 MLOAD SWAP1 DUP2 ADD PUSH1 0x40 MSTORE DUP1 SWAP4 SWAP3 SWAP2 SWAP1 DUP2 DUP2 MSTORE PUSH1 0x20 ADD DUP4 DUP4 PUSH1 0x20 MUL DUP1 DUP3 DUP5 CALLDATACOPY DUP3 ADD SWAP2 POP POP POP POP POP POP SWAP2 SWAP1 DUP1 CALLDATALOAD SWAP1 PUSH1 0x20 ADD SWAP1 DUP3 ADD DUP1 CALLDATALOAD SWAP1 PUSH1 0x20 ADD SWAP1 DUP1 DUP1 PUSH1 0x20 MUL PUSH1 0x20 ADD PUSH1 0x40 MLOAD SWAP1 DUP2 ADD PUSH1 0x40 MSTORE DUP1 SWAP4 SWAP3 SWAP2 SWAP1 DUP2 DUP2 MSTORE PUSH1 0x20 ADD DUP4 DUP4 PUSH1 0x20 MUL DUP1 DUP3 DUP5 CALLDATACOPY POP SWAP5 SWAP7 POP PUSH2 0x190E SWAP6 POP POP POP POP POP POP JUMP JUMPDEST CALLVALUE ISZERO PUSH2 0x838 JUMPI PUSH1 0x0 DUP1 REVERT JUMPDEST PUSH2 0x1AA PUSH1 0x4 CALLDATALOAD PUSH2 0x1A66 JUMP JUMPDEST CALLVALUE ISZERO PUSH2 0x84E JUMPI PUSH1 0x0 DUP1 REVERT JUMPDEST PUSH2 0x1AA PUSH2 0x1A73 JUMP JUMPDEST CALLVALUE ISZERO PUSH2 0x861 JUMPI PUSH1 0x0 DUP1 REVERT JUMPDEST PUSH2 0x195 PUSH2 0x1A79 JUMP JUMPDEST CALLVALUE ISZERO PUSH2 0x874 JUMPI PUSH1 0x0 DUP1 REVERT JUMPDEST PUSH2 0x1AA PUSH2 0x1ADB JUMP JUMPDEST CALLVALUE ISZERO PUSH2 0x887 JUMPI PUSH1 0x0 DUP1 REVERT JUMPDEST PUSH2 0x1AA PUSH1 0x4 CALLDATALOAD PUSH1 0x24 CALLDATALOAD PUSH2 0x1AE1 JUMP JUMPDEST CALLVALUE ISZERO PUSH2 0x8A0 JUMPI PUSH1 0x0 DUP1 REVERT JUMPDEST PUSH2 0x1AA PUSH2 0x1AEF JUMP JUMPDEST CALLVALUE ISZERO PUSH2 0x8B3 JUMPI PUSH1 0x0 DUP1 REVERT JUMPDEST PUSH2 0x1AA PUSH2 0x1AF5 JUMP JUMPDEST PUSH1 0x33 SLOAD DUP2 JUMP JUMPDEST PUSH2 0x8C9 PUSH2 0x232B JUMP JUMPDEST PUSH1 0x4D SLOAD PUSH1 0x0 SWAP1 PUSH1 0xFF AND ISZERO PUSH2 0x8D9 JUMPI INVALID JUMPDEST PUSH1 0x35 SLOAD PUSH1 0x1 EQ PUSH2 0x8E5 JUMPI INVALID JUMPDEST PUSH1 0x33 SLOAD PUSH1 0x14 ADD NUMBER GT ISZERO DUP1 ISZERO PUSH2 0x8FB JUMPI POP PUSH1 0x33 SLOAD NUMBER GT JUMPDEST ISZERO PUSH2 0x962 JUMPI PUSH1 0x14 PUSH1 0x40 MLOAD DUP1 MSIZE LT PUSH2 0x90F JUMPI POP MSIZE JUMPDEST SWAP1 DUP1 DUP3 MSTORE DUP1 PUSH1 0x20 MUL PUSH1 0x20 ADD DUP3 ADD PUSH1 0x40 MSTORE POP SWAP2 POP PUSH1 0x0 SWAP1 POP JUMPDEST PUSH1 0x14 DUP2 LT ISZERO PUSH2 0x94F JUMPI DUP1 DUP3 DUP3 DUP2 MLOAD DUP2 LT PUSH2 0x93D JUMPI INVALID JUMPDEST PUSH1 0x20 SWAP1 DUP2 MUL SWAP1 SWAP2 ADD ADD MSTORE PUSH1 0x1 ADD PUSH2 0x927 JUMP JUMPDEST PUSH2 0x958 DUP3 PUSH2 0x1AFB JUMP JUMPDEST PUSH1 0x2 PUSH1 0x35 SSTORE PUSH2 0x96A JUMP JUMPDEST PUSH2 0x96A PUSH2 0x1A79 JUMP JUMPDEST POP POP JUMP JUMPDEST PUSH1 0x4D SLOAD PUSH1 0x0 SWAP1 PUSH1 0xFF AND ISZERO PUSH2 0x97E JUMPI INVALID JUMPDEST PUSH1 0x35 SLOAD PUSH1 0x3 EQ PUSH2 0x98A JUMPI INVALID JUMPDEST PUSH1 0x31 SLOAD PUSH1 0x30 SLOAD PUSH1 0x34 SLOAD ADD ADD NUMBER LT ISZERO PUSH2 0x99E JUMPI INVALID JUMPDEST PUSH1 0x32 SLOAD PUSH1 0x31 SLOAD PUSH1 0x30 SLOAD PUSH1 0x34 SLOAD ADD ADD ADD NUMBER LT PUSH2 0x9B5 JUMPI INVALID JUMPDEST POP PUSH1 0x4 SLOAD PUSH1 0x0 SWAP1 PUSH1 0xFF AND ISZERO ISZERO PUSH1 0x1 EQ ISZERO PUSH2 0xA54 JUMPI PUSH2 0xA4D DUP3 PUSH1 0x2E DUP1 SLOAD DUP1 PUSH1 0x20 MUL PUSH1 0x20 ADD PUSH1 0x40 MLOAD SWAP1 DUP2 ADD PUSH1 0x40 MSTORE DUP2 DUP2 MSTORE SWAP2 SWAP1 PUSH1 0x0 PUSH1 0x20 DUP5 ADD JUMPDEST DUP3 DUP3 LT ISZERO PUSH2 0xA44 JUMPI DUP4 DUP3 SWAP1 PUSH1 0x0 MSTORE PUSH1 0x20 PUSH1 0x0 KECCAK256 SWAP1 PUSH1 0x3 MUL ADD PUSH1 0x3 DUP1 PUSH1 0x20 MUL PUSH1 0x40 MLOAD SWAP1 DUP2 ADD PUSH1 0x40 MSTORE SWAP2 SWAP1 PUSH1 0x60 DUP4 ADD DUP3 DUP5 JUMPDEST DUP2 SLOAD DUP2 MSTORE PUSH1 0x20 ADD SWAP1 PUSH1 0x1 ADD SWAP1 DUP1 DUP4 GT PUSH2 0xA1D JUMPI POP POP POP POP POP DUP2 MSTORE PUSH1 0x20 ADD SWAP1 PUSH1 0x1 ADD SWAP1 PUSH2 0x9ED JUMP JUMPDEST POP POP POP POP PUSH2 0xB06 JUMP JUMPDEST SWAP1 POP PUSH2 0xAD2 JUMP JUMPDEST PUSH2 0xACF DUP3 PUSH1 0x2D DUP1 SLOAD DUP1 PUSH1 0x20 MUL PUSH1 0x20 ADD PUSH1 0x40 MLOAD SWAP1 DUP2 ADD PUSH1 0x40 MSTORE DUP2 DUP2 MSTORE SWAP2 SWAP1 PUSH1 0x0 PUSH1 0x20 DUP5 ADD JUMPDEST DUP3 DUP3 LT ISZERO PUSH2 0xA44 JUMPI DUP4 DUP3 SWAP1 PUSH1 0x0 MSTORE PUSH1 0x20 PUSH1 0x0 KECCAK256 SWAP1 PUSH1 0x3 MUL ADD PUSH1 0x3 DUP1 PUSH1 0x20 MUL PUSH1 0x40 MLOAD SWAP1 DUP2 ADD PUSH1 0x40 MSTORE SWAP2 SWAP1 PUSH1 0x60 DUP4 ADD DUP3 DUP5 JUMPDEST DUP2 SLOAD DUP2 MSTORE PUSH1 0x20 ADD SWAP1 PUSH1 0x1 ADD SWAP1 DUP1 DUP4 GT PUSH2 0xAA8 JUMPI POP POP POP POP POP DUP2 MSTORE PUSH1 0x20 ADD SWAP1 PUSH1 0x1 ADD SWAP1 PUSH2 0xA78 JUMP JUMPDEST SWAP1 POP JUMPDEST PUSH1 0x2 SLOAD DUP2 SGT ISZERO PUSH2 0xAE7 JUMPI PUSH1 0x1 DUP3 SWAP1 SSTORE PUSH1 0x2 DUP2 SWAP1 SSTORE JUMPDEST PUSH1 0x2 SLOAD DUP2 EQ ISZERO PUSH2 0x96A JUMPI PUSH1 0x1 SLOAD DUP3 LT ISZERO PUSH2 0x96A JUMPI PUSH1 0x1 SWAP2 SWAP1 SWAP2 SSTORE PUSH1 0x2 SSTORE JUMP JUMPDEST PUSH1 0x0 PUSH2 0xB10 PUSH2 0x233D JUMP JUMPDEST PUSH1 0x0 DUP1 PUSH1 0x0 PUSH2 0xB1D PUSH2 0x232B JUMP JUMPDEST PUSH2 0xB25 PUSH2 0x232B JUMP JUMPDEST PUSH1 0x4D SLOAD PUSH1 0x0 SWAP1 DUP2 SWAP1 DUP2 SWAP1 DUP2 SWAP1 PUSH1 0xFF AND ISZERO PUSH2 0xB3B JUMPI INVALID JUMPDEST PUSH1 0x35 SLOAD PUSH1 0x3 EQ PUSH2 0xB47 JUMPI INVALID JUMPDEST PUSH1 0x4C DUP1 SLOAD DUP15 SWAP1 DUP2 LT PUSH2 0xB55 JUMPI INVALID JUMPDEST SWAP1 PUSH1 0x0 MSTORE PUSH1 0x20 PUSH1 0x0 KECCAK256 SWAP1 PUSH1 0x6 MUL ADD PUSH1 0xC0 PUSH1 0x40 MLOAD SWAP1 DUP2 ADD PUSH1 0x40 MSTORE SWAP1 DUP2 PUSH1 0x0 DUP3 ADD PUSH1 0x0 SWAP1 SLOAD SWAP1 PUSH2 0x100 EXP SWAP1 DIV PUSH1 0x1 PUSH1 0xA0 PUSH1 0x2 EXP SUB AND PUSH1 0x1 PUSH1 0xA0 PUSH1 0x2 EXP SUB AND PUSH1 0x1 PUSH1 0xA0 PUSH1 0x2 EXP SUB AND DUP2 MSTORE PUSH1 0x20 ADD PUSH1 0x1 DUP3 ADD SLOAD DUP2 MSTORE PUSH1 0x20 ADD PUSH1 0x2 DUP3 ADD SLOAD DUP2 MSTORE PUSH1 0x20 ADD PUSH1 0x3 DUP3 ADD DUP1 SLOAD DUP1 PUSH1 0x20 MUL PUSH1 0x20 ADD PUSH1 0x40 MLOAD SWAP1 DUP2 ADD PUSH1 0x40 MSTORE DUP1 SWAP3 SWAP2 SWAP1 DUP2 DUP2 MSTORE PUSH1 0x20 ADD DUP3 DUP1 SLOAD DUP1 ISZERO PUSH2 0xC01 JUMPI PUSH1 0x20 MUL DUP3 ADD SWAP2 SWAP1 PUSH1 0x0 MSTORE PUSH1 0x20 PUSH1 0x0 KECCAK256 SWAP1 JUMPDEST DUP2 SLOAD DUP2 MSTORE PUSH1 0x20 ADD SWAP1 PUSH1 0x1 ADD SWAP1 DUP1 DUP4 GT PUSH2 0xBED JUMPI JUMPDEST POP POP POP POP POP DUP2 MSTORE PUSH1 0x20 ADD PUSH1 0x4 DUP3 ADD DUP1 SLOAD DUP1 PUSH1 0x20 MUL PUSH1 0x20 ADD PUSH1 0x40 MLOAD SWAP1 DUP2 ADD PUSH1 0x40 MSTORE DUP1 SWAP3 SWAP2 SWAP1 DUP2 DUP2 MSTORE PUSH1 0x20 ADD DUP3 DUP1 SLOAD DUP1 ISZERO PUSH2 0xC59 JUMPI PUSH1 0x20 MUL DUP3 ADD SWAP2 SWAP1 PUSH1 0x0 MSTORE PUSH1 0x20 PUSH1 0x0 KECCAK256 SWAP1 JUMPDEST DUP2 SLOAD DUP2 MSTORE PUSH1 0x20 ADD SWAP1 PUSH1 0x1 ADD SWAP1 DUP1 DUP4 GT PUSH2 0xC45 JUMPI JUMPDEST POP POP POP POP POP DUP2 MSTORE PUSH1 0x20 ADD PUSH1 0x5 DUP3 ADD DUP1 SLOAD DUP1 PUSH1 0x20 MUL PUSH1 0x20 ADD PUSH1 0x40 MLOAD SWAP1 DUP2 ADD PUSH1 0x40 MSTORE DUP1 SWAP3 SWAP2 SWAP1 DUP2 DUP2 MSTORE PUSH1 0x20 ADD DUP3 DUP1 SLOAD DUP1 ISZERO PUSH2 0xCB1 JUMPI PUSH1 0x20 MUL DUP3 ADD SWAP2 SWAP1 PUSH1 0x0 MSTORE PUSH1 0x20 PUSH1 0x0 KECCAK256 SWAP1 JUMPDEST DUP2 SLOAD DUP2 MSTORE PUSH1 0x20 ADD SWAP1 PUSH1 0x1 ADD SWAP1 DUP1 DUP4 GT PUSH2 0xC9D JUMPI JUMPDEST POP POP POP POP POP DUP2 MSTORE POP POP SWAP10 POP PUSH1 0x0 SWAP9 POP PUSH1 0x0 SWAP8 POP DUP10 PUSH1 0x40 ADD MLOAD PUSH1 0x2 EQ ISZERO PUSH2 0xD24 JUMPI PUSH1 0x1 SWAP7 POP DUP10 PUSH1 0x40 ADD MLOAD PUSH1 0x40 MLOAD DUP1 MSIZE LT PUSH2 0xCE7 JUMPI POP MSIZE JUMPDEST SWAP1 DUP1 DUP3 MSTORE DUP1 PUSH1 0x20 MUL PUSH1 0x20 ADD DUP3 ADD PUSH1 0x40 MSTORE POP SWAP6 POP DUP10 PUSH1 0x40 ADD MLOAD PUSH1 0x40 MLOAD DUP1 MSIZE LT PUSH2 0xD0C JUMPI POP MSIZE JUMPDEST SWAP1 DUP1 DUP3 MSTORE DUP1 PUSH1 0x20 MUL PUSH1 0x20 ADD DUP3 ADD PUSH1 0x40 MSTORE POP SWAP5 POP PUSH2 0xD6D JUMP JUMPDEST PUSH1 0x0 SWAP7 POP PUSH1 0x1 PUSH1 0x40 MLOAD DUP1 MSIZE LT PUSH2 0xD37 JUMPI POP MSIZE JUMPDEST SWAP1 DUP1 DUP3 MSTORE DUP1 PUSH1 0x20 MUL PUSH1 0x20 ADD DUP3 ADD PUSH1 0x40 MSTORE POP SWAP6 POP PUSH1 0x1 PUSH1 0x40 MLOAD DUP1 MSIZE LT PUSH2 0xD59 JUMPI POP MSIZE JUMPDEST SWAP1 DUP1 DUP3 MSTORE DUP1 PUSH1 0x20 MUL PUSH1 0x20 ADD DUP3 ADD PUSH1 0x40 MSTORE POP SWAP5 POP JUMPDEST PUSH1 0x0 SWAP4 POP JUMPDEST DUP12 MLOAD DUP5 LT ISZERO PUSH2 0xF44 JUMPI PUSH1 0x2 SWAP3 POP JUMPDEST DUP12 DUP5 DUP2 MLOAD DUP2 LT PUSH2 0xD8C JUMPI INVALID JUMPDEST SWAP1 PUSH1 0x20 ADD SWAP1 PUSH1 0x20 MUL ADD MLOAD POP PUSH1 0x3 DUP4 LT ISZERO PUSH2 0xEBE JUMPI PUSH1 0x1 NOT DUP4 ADD SWAP2 POP DUP7 ISZERO ISZERO PUSH1 0x1 EQ ISZERO PUSH2 0xE76 JUMPI DUP12 DUP5 DUP2 MLOAD DUP2 LT PUSH2 0xDBE JUMPI INVALID JUMPDEST SWAP1 PUSH1 0x20 ADD SWAP1 PUSH1 0x20 MUL ADD MLOAD DUP4 PUSH1 0x3 DUP2 LT PUSH2 0xDD3 JUMPI INVALID JUMPDEST PUSH1 0x20 MUL ADD MLOAD ISZERO ISZERO PUSH2 0xE16 JUMPI PUSH1 0x1 DUP6 DUP4 DUP2 MLOAD DUP2 LT PUSH2 0xDEC JUMPI INVALID JUMPDEST PUSH1 0x20 SWAP1 DUP2 MUL SWAP1 SWAP2 ADD ADD MSTORE PUSH1 0x0 DUP6 PUSH1 0x1 DUP5 ADD DUP2 MLOAD DUP2 LT PUSH2 0xE07 JUMPI INVALID JUMPDEST PUSH1 0x20 SWAP1 DUP2 MUL SWAP1 SWAP2 ADD ADD MSTORE PUSH2 0xE71 JUMP JUMPDEST DUP12 DUP5 DUP2 MLOAD DUP2 LT PUSH2 0xE22 JUMPI INVALID JUMPDEST SWAP1 PUSH1 0x20 ADD SWAP1 PUSH1 0x20 MUL ADD MLOAD DUP4 PUSH1 0x3 DUP2 LT PUSH2 0xE37 JUMPI INVALID JUMPDEST PUSH1 0x20 MUL ADD MLOAD PUSH1 0x1 EQ ISZERO PUSH2 0xE6C JUMPI PUSH1 0x0 DUP6 DUP4 DUP2 MLOAD DUP2 LT PUSH2 0xE52 JUMPI INVALID JUMPDEST PUSH1 0x20 SWAP1 DUP2 MUL SWAP1 SWAP2 ADD ADD MSTORE PUSH1 0x1 DUP6 DUP4 DUP3 ADD DUP2 MLOAD DUP2 LT PUSH2 0xE07 JUMPI INVALID JUMPDEST PUSH1 0x0 DUP1 REVERT JUMPDEST PUSH2 0xEB3 JUMP JUMPDEST DUP12 DUP5 DUP2 MLOAD DUP2 LT PUSH2 0xE82 JUMPI INVALID JUMPDEST SWAP1 PUSH1 0x20 ADD SWAP1 PUSH1 0x20 MUL ADD MLOAD DUP4 PUSH1 0x3 DUP2 LT PUSH2 0xE97 JUMPI INVALID JUMPDEST PUSH1 0x20 MUL ADD MLOAD DUP6 DUP4 DUP2 MLOAD DUP2 LT PUSH2 0xEA8 JUMPI INVALID JUMPDEST PUSH1 0x20 SWAP1 DUP2 MUL SWAP1 SWAP2 ADD ADD MSTORE JUMPDEST PUSH1 0x1 SWAP1 SWAP3 ADD SWAP2 PUSH2 0xD80 JUMP JUMPDEST PUSH2 0xEDD DUP11 DUP14 DUP7 DUP2 MLOAD DUP2 LT PUSH2 0xECE JUMPI INVALID JUMPDEST SWAP1 PUSH1 0x20 ADD SWAP1 PUSH1 0x20 MUL ADD MLOAD PUSH2 0x1C1A JUMP JUMPDEST SWAP6 POP PUSH1 0x0 SWAP1 POP JUMPDEST DUP5 MLOAD DUP2 LT ISZERO PUSH2 0xF39 JUMPI DUP6 DUP2 DUP2 MLOAD DUP2 LT PUSH2 0xEF9 JUMPI INVALID JUMPDEST SWAP1 PUSH1 0x20 ADD SWAP1 PUSH1 0x20 MUL ADD MLOAD DUP6 DUP3 DUP2 MLOAD DUP2 LT PUSH2 0xF0F JUMPI INVALID JUMPDEST SWAP1 PUSH1 0x20 ADD SWAP1 PUSH1 0x20 MUL ADD MLOAD EQ ISZERO PUSH2 0xF2A JUMPI PUSH1 0x1 DUP10 ADD SWAP9 POP PUSH2 0xF31 JUMP JUMPDEST PUSH1 0x1 DUP9 ADD SWAP8 POP JUMPDEST PUSH1 0x1 ADD PUSH2 0xEE4 JUMP JUMPDEST PUSH1 0x1 SWAP1 SWAP4 ADD SWAP3 PUSH2 0xD72 JUMP JUMPDEST DUP8 DUP10 ADD PUSH2 0x2710 DUP11 MUL DUP2 ISZERO ISZERO PUSH2 0xF55 JUMPI INVALID JUMPDEST SDIV SWAP14 SWAP13 POP POP POP POP POP POP POP POP POP POP POP POP POP JUMP JUMPDEST PUSH2 0xF6F PUSH2 0x238E JUMP JUMPDEST PUSH1 0x36 PUSH1 0x10 PUSH2 0x200 PUSH1 0x40 MLOAD SWAP1 DUP2 ADD PUSH1 0x40 MSTORE SWAP2 SWAP1 PUSH2 0x200 DUP4 ADD DUP3 DUP5 JUMPDEST DUP2 SLOAD DUP2 MSTORE PUSH1 0x20 ADD SWAP1 PUSH1 0x1 ADD SWAP1 DUP1 DUP4 GT PUSH2 0xF89 JUMPI POP POP POP POP POP SWAP1 POP JUMPDEST SWAP1 JUMP JUMPDEST PUSH1 0x32 SLOAD DUP2 JUMP JUMPDEST PUSH1 0x2E DUP1 SLOAD DUP4 SWAP1 DUP2 LT PUSH2 0xFBB JUMPI INVALID JUMPDEST SWAP1 PUSH1 0x0 MSTORE PUSH1 0x20 PUSH1 0x0 KECCAK256 SWAP1 PUSH1 0x3 MUL ADD DUP2 PUSH1 0x3 DUP2 LT ISZERO ISZERO PUSH2 0xFD6 JUMPI INVALID JUMPDEST ADD SLOAD SWAP2 POP DUP3 SWAP1 POP JUMP JUMPDEST PUSH2 0xFE7 PUSH2 0x23B6 JUMP JUMPDEST PUSH1 0x46 PUSH1 0x4 PUSH1 0x80 PUSH1 0x40 MLOAD SWAP1 DUP2 ADD PUSH1 0x40 MSTORE DUP3 SLOAD DUP2 MSTORE SWAP2 SWAP1 PUSH1 0x80 DUP4 ADD PUSH1 0x1 DUP4 ADD PUSH1 0x20 DUP6 ADD DUP1 DUP4 GT PUSH2 0xF89 JUMPI POP POP POP POP POP SWAP1 POP SWAP1 JUMP JUMPDEST PUSH1 0x4D SLOAD PUSH1 0xFF AND ISZERO PUSH2 0x1026 JUMPI INVALID JUMPDEST PUSH1 0x35 SLOAD PUSH1 0x3 EQ PUSH2 0x1032 JUMPI INVALID JUMPDEST PUSH1 0x30 SLOAD PUSH1 0x34 SLOAD ADD NUMBER LT ISZERO PUSH2 0x1042 JUMPI INVALID JUMPDEST PUSH1 0x31 SLOAD PUSH1 0x30 SLOAD PUSH1 0x34 SLOAD ADD ADD NUMBER LT PUSH2 0x1055 JUMPI INVALID JUMPDEST PUSH1 0x1 PUSH1 0x3 PUSH1 0x19 DUP5 DIV DIV EQ PUSH2 0x1065 JUMPI INVALID JUMPDEST PUSH1 0x5 PUSH1 0x46 PUSH1 0x4B SLOAD PUSH1 0x4 DUP2 LT ISZERO ISZERO PUSH2 0x1078 JUMPI INVALID JUMPDEST ADD SLOAD PUSH1 0x14 DUP2 LT PUSH2 0x1084 JUMPI INVALID JUMPDEST ADD SLOAD PUSH2 0x10BD DUP5 DUP5 DUP1 PUSH1 0x20 DUP1 DUP3 MUL ADD PUSH1 0x40 MLOAD SWAP1 DUP2 ADD PUSH1 0x40 MSTORE DUP1 SWAP4 SWAP3 SWAP2 SWAP1 DUP2 DUP2 MSTORE PUSH1 0x20 ADD DUP4 DUP4 PUSH1 0x20 MUL DUP1 DUP3 DUP5 CALLDATACOPY POP DUP9 SWAP5 POP PUSH2 0x1CF9 SWAP4 POP POP POP POP JUMP JUMPDEST EQ PUSH2 0x10C4 JUMPI INVALID JUMPDEST PUSH1 0x4B DUP1 SLOAD PUSH1 0x1 ADD SWAP1 SSTORE PUSH2 0x1105 DUP4 DUP4 DUP1 PUSH1 0x20 DUP1 DUP3 MUL ADD PUSH1 0x40 MLOAD SWAP1 DUP2 ADD PUSH1 0x40 MSTORE DUP1 SWAP4 SWAP3 SWAP2 SWAP1 DUP2 DUP2 MSTORE PUSH1 0x20 ADD DUP4 DUP4 PUSH1 0x20 MUL DUP1 DUP3 DUP5 CALLDATACOPY POP PUSH1 0x0 SWAP5 POP PUSH2 0x1E00 SWAP4 POP POP POP POP JUMP JUMPDEST POP POP PUSH1 0x4 DUP1 SLOAD PUSH1 0xFF NOT AND PUSH1 0x1 OR SWAP1 SSTORE POP JUMP JUMPDEST PUSH1 0x0 DUP1 DUP1 DUP1 DUP1 JUMPDEST PUSH1 0x4C SLOAD DUP5 LT ISZERO PUSH2 0xE6C JUMPI DUP11 PUSH1 0x1 PUSH1 0xA0 PUSH1 0x2 EXP SUB AND PUSH1 0x4C DUP6 DUP2 SLOAD DUP2 LT ISZERO ISZERO PUSH2 0x1141 JUMPI INVALID JUMPDEST PUSH1 0x0 SWAP2 DUP3 MSTORE PUSH1 0x20 SWAP1 SWAP2 KECCAK256 PUSH1 0x6 SWAP1 SWAP2 MUL ADD SLOAD PUSH1 0x1 PUSH1 0xA0 PUSH1 0x2 EXP SUB AND EQ PUSH2 0x1165 JUMPI PUSH2 0x12E5 JUMP JUMPDEST DUP10 PUSH1 0x4C DUP6 DUP2 SLOAD DUP2 LT ISZERO ISZERO PUSH2 0x1175 JUMPI INVALID JUMPDEST SWAP1 PUSH1 0x0 MSTORE PUSH1 0x20 PUSH1 0x0 KECCAK256 SWAP1 PUSH1 0x6 MUL ADD PUSH1 0x1 ADD SLOAD EQ ISZERO ISZERO PUSH2 0x1193 JUMPI PUSH2 0x12E5 JUMP JUMPDEST DUP9 PUSH1 0x4C DUP6 DUP2 SLOAD DUP2 LT ISZERO ISZERO PUSH2 0x11A3 JUMPI INVALID JUMPDEST SWAP1 PUSH1 0x0 MSTORE PUSH1 0x20 PUSH1 0x0 KECCAK256 SWAP1 PUSH1 0x6 MUL ADD PUSH1 0x2 ADD SLOAD EQ ISZERO ISZERO PUSH2 0x11C1 JUMPI PUSH2 0x12E5 JUMP JUMPDEST PUSH1 0x0 SWAP3 POP JUMPDEST DUP8 MLOAD DUP4 LT ISZERO PUSH2 0x1221 JUMPI DUP8 DUP4 DUP2 MLOAD DUP2 LT PUSH2 0x11DB JUMPI INVALID JUMPDEST SWAP1 PUSH1 0x20 ADD SWAP1 PUSH1 0x20 MUL ADD MLOAD PUSH1 0x4C DUP1 SLOAD DUP7 SWAP1 DUP2 LT PUSH2 0x11F3 JUMPI INVALID JUMPDEST SWAP1 PUSH1 0x0 MSTORE PUSH1 0x20 PUSH1 0x0 KECCAK256 SWAP1 PUSH1 0x6 MUL ADD PUSH1 0x3 ADD DUP5 DUP2 SLOAD DUP2 LT ISZERO ISZERO PUSH2 0x1211 JUMPI INVALID JUMPDEST POP PUSH1 0x0 MSTORE POP PUSH1 0x1 SWAP1 SWAP3 ADD SWAP2 PUSH2 0x11C6 JUMP JUMPDEST PUSH1 0x0 SWAP2 POP JUMPDEST DUP7 MLOAD DUP3 LT ISZERO PUSH2 0x1281 JUMPI DUP7 DUP3 DUP2 MLOAD DUP2 LT PUSH2 0x123B JUMPI INVALID JUMPDEST SWAP1 PUSH1 0x20 ADD SWAP1 PUSH1 0x20 MUL ADD MLOAD PUSH1 0x4C DUP1 SLOAD DUP7 SWAP1 DUP2 LT PUSH2 0x1253 JUMPI INVALID JUMPDEST SWAP1 PUSH1 0x0 MSTORE PUSH1 0x20 PUSH1 0x0 KECCAK256 SWAP1 PUSH1 0x6 MUL ADD PUSH1 0x4 ADD DUP4 DUP2 SLOAD DUP2 LT ISZERO ISZERO PUSH2 0x1271 JUMPI INVALID JUMPDEST POP PUSH1 0x0 MSTORE POP PUSH1 0x1 SWAP1 SWAP2 ADD SWAP1 PUSH2 0x1226 JUMP JUMPDEST POP PUSH1 0x0 JUMPDEST DUP6 MLOAD DUP2 LT ISZERO PUSH2 0x12DD JUMPI DUP6 DUP2 DUP2 MLOAD DUP2 LT PUSH2 0x129A JUMPI INVALID JUMPDEST SWAP1 PUSH1 0x20 ADD SWAP1 PUSH1 0x20 MUL ADD MLOAD PUSH1 0x4C DUP1 SLOAD DUP7 SWAP1 DUP2 LT PUSH2 0x12B2 JUMPI INVALID JUMPDEST SWAP1 PUSH1 0x0 MSTORE PUSH1 0x20 PUSH1 0x0 KECCAK256 SWAP1 PUSH1 0x6 MUL ADD PUSH1 0x5 ADD DUP3 DUP2 SLOAD DUP2 LT ISZERO ISZERO PUSH2 0x12D0 JUMPI INVALID JUMPDEST POP PUSH1 0x0 MSTORE POP PUSH1 0x1 ADD PUSH2 0x1285 JUMP JUMPDEST DUP4 SWAP5 POP PUSH2 0x12F0 JUMP JUMPDEST PUSH1 0x1 SWAP1 SWAP4 ADD SWAP3 PUSH2 0x111E JUMP JUMPDEST POP POP POP POP SWAP7 SWAP6 POP POP POP POP POP POP JUMP JUMPDEST PUSH1 0x1 SLOAD DUP2 JUMP JUMPDEST PUSH1 0x4 SLOAD PUSH1 0xFF AND DUP2 JUMP JUMPDEST PUSH1 0x4D SLOAD PUSH1 0xFF AND ISZERO PUSH2 0x131A JUMPI INVALID JUMPDEST PUSH1 0x35 SLOAD PUSH1 0x2 EQ PUSH2 0x1326 JUMPI INVALID JUMPDEST PUSH1 0x1 PUSH1 0x3 PUSH1 0x19 DUP5 DIV DIV EQ PUSH2 0x1336 JUMPI INVALID JUMPDEST PUSH1 0x5 PUSH1 0x36 PUSH1 0x4A SLOAD PUSH1 0x10 DUP2 LT ISZERO ISZERO PUSH2 0x1349 JUMPI INVALID JUMPDEST ADD SLOAD PUSH1 0x14 DUP2 LT PUSH2 0x1355 JUMPI INVALID JUMPDEST ADD SLOAD PUSH2 0x138E DUP5 DUP5 DUP1 PUSH1 0x20 DUP1 DUP3 MUL ADD PUSH1 0x40 MLOAD SWAP1 DUP2 ADD PUSH1 0x40 MSTORE DUP1 SWAP4 SWAP3 SWAP2 SWAP1 DUP2 DUP2 MSTORE PUSH1 0x20 ADD DUP4 DUP4 PUSH1 0x20 MUL DUP1 DUP3 DUP5 CALLDATACOPY POP DUP9 SWAP5 POP PUSH2 0x1CF9 SWAP4 POP POP POP POP JUMP JUMPDEST EQ PUSH2 0x1395 JUMPI INVALID JUMPDEST PUSH1 0x4A DUP1 SLOAD PUSH1 0x1 ADD SWAP1 SSTORE PUSH2 0x13D6 DUP4 DUP4 DUP1 PUSH1 0x20 DUP1 DUP3 MUL ADD PUSH1 0x40 MLOAD SWAP1 DUP2 ADD PUSH1 0x40 MSTORE DUP1 SWAP4 SWAP3 SWAP2 SWAP1 DUP2 DUP2 MSTORE PUSH1 0x20 ADD DUP4 DUP4 PUSH1 0x20 MUL DUP1 DUP3 DUP5 CALLDATACOPY POP PUSH1 0x1 SWAP5 POP PUSH2 0x1E00 SWAP4 POP POP POP POP JUMP JUMPDEST PUSH1 0x4A SLOAD PUSH1 0x10 EQ ISZERO PUSH2 0x13EB JUMPI PUSH1 0x3 PUSH1 0x35 SSTORE NUMBER PUSH1 0x34 SSTORE JUMPDEST POP POP POP JUMP JUMPDEST PUSH2 0x13F8 PUSH2 0x232B JUMP JUMPDEST PUSH2 0x1400 PUSH2 0x232B JUMP JUMPDEST PUSH1 0x0 PUSH2 0x140A PUSH2 0x232B JUMP JUMPDEST PUSH2 0x1412 PUSH2 0x232B JUMP JUMPDEST PUSH1 0x0 DUP1 PUSH1 0x0 PUSH1 0x2 PUSH1 0x40 MLOAD DUP1 MSIZE LT PUSH2 0x1426 JUMPI POP MSIZE JUMPDEST SWAP1 DUP1 DUP3 MSTORE DUP1 PUSH1 0x20 MUL PUSH1 0x20 ADD DUP3 ADD PUSH1 0x40 MSTORE POP SWAP7 POP PUSH1 0x0 SWAP6 POP JUMPDEST PUSH1 0x1 DUP15 MLOAD SUB DUP7 LT ISZERO PUSH2 0x1601 JUMPI DUP12 MLOAD ISZERO PUSH2 0x14B4 JUMPI DUP6 ISZERO ISZERO PUSH2 0x146D JUMPI PUSH2 0x1463 DUP13 DUP16 DUP9 PUSH2 0x1FB6 JUMP JUMPDEST SWAP5 POP DUP13 SWAP4 POP PUSH2 0x14AF JUMP JUMPDEST PUSH1 0x2 DUP15 MLOAD SUB DUP7 EQ ISZERO PUSH2 0x1491 JUMPI DUP11 SWAP5 POP PUSH2 0x148A DUP13 DUP16 PUSH1 0x1 DUP10 SUB PUSH2 0x1FB6 JUMP JUMPDEST SWAP4 POP PUSH2 0x14AF JUMP JUMPDEST PUSH2 0x149C DUP13 DUP16 DUP9 PUSH2 0x1FB6 JUMP JUMPDEST SWAP5 POP PUSH2 0x14AC DUP13 DUP16 PUSH1 0x1 DUP10 SUB PUSH2 0x1FB6 JUMP JUMPDEST SWAP4 POP JUMPDEST PUSH2 0x14BB JUMP JUMPDEST DUP11 SWAP5 POP DUP13 SWAP4 POP JUMPDEST PUSH1 0x0 SWAP3 POP JUMPDEST DUP5 MLOAD DUP4 LT ISZERO PUSH2 0x15F6 JUMPI POP PUSH1 0x0 SWAP1 POP DUP1 JUMPDEST DUP4 MLOAD DUP2 LT ISZERO PUSH2 0x1546 JUMPI DUP10 DUP8 PUSH1 0x0 DUP2 MLOAD DUP2 LT PUSH2 0x14E7 JUMPI INVALID JUMPDEST SWAP1 PUSH1 0x20 ADD SWAP1 PUSH1 0x20 MUL ADD MLOAD DUP2 MLOAD DUP2 LT PUSH2 0x14FB JUMPI INVALID JUMPDEST SWAP1 PUSH1 0x20 ADD SWAP1 PUSH1 0x20 MUL ADD MLOAD DUP5 DUP3 DUP2 MLOAD DUP2 LT PUSH2 0x1511 JUMPI INVALID JUMPDEST SWAP1 PUSH1 0x20 ADD SWAP1 PUSH1 0x20 MUL ADD MLOAD MUL DUP3 ADD SWAP2 POP DUP7 PUSH1 0x0 DUP2 MLOAD DUP2 LT PUSH2 0x152D JUMPI INVALID JUMPDEST SWAP1 PUSH1 0x20 ADD SWAP1 PUSH1 0x20 MUL ADD DUP1 MLOAD PUSH1 0x1 SWAP1 DUP2 ADD SWAP1 SWAP2 MSTORE ADD PUSH2 0x14D0 JUMP JUMPDEST DUP9 DUP7 DUP2 MLOAD DUP2 LT PUSH2 0x1552 JUMPI INVALID JUMPDEST SWAP1 PUSH1 0x20 ADD SWAP1 PUSH1 0x20 MUL ADD MLOAD PUSH2 0x2710 SWAP3 ADD SWAP2 SWAP1 SWAP2 SDIV SWAP1 PUSH1 0x2 DUP15 MLOAD SUB DUP7 EQ ISZERO PUSH2 0x1596 JUMPI PUSH2 0x157B DUP3 PUSH2 0x20D3 JUMP JUMPDEST DUP12 DUP5 DUP2 MLOAD DUP2 LT PUSH2 0x1587 JUMPI INVALID JUMPDEST PUSH1 0x20 SWAP1 DUP2 MUL SWAP1 SWAP2 ADD ADD MSTORE PUSH2 0x15CC JUMP JUMPDEST PUSH2 0x159F DUP3 PUSH2 0x20D3 JUMP JUMPDEST DUP13 DUP9 PUSH1 0x1 DUP2 MLOAD DUP2 LT PUSH2 0x15AD JUMPI INVALID JUMPDEST SWAP1 PUSH1 0x20 ADD SWAP1 PUSH1 0x20 MUL ADD MLOAD DUP2 MLOAD DUP2 LT PUSH2 0x15C1 JUMPI INVALID JUMPDEST PUSH1 0x20 SWAP1 DUP2 MUL SWAP1 SWAP2 ADD ADD MSTORE JUMPDEST DUP7 PUSH1 0x1 DUP2 MLOAD DUP2 LT PUSH2 0x15D9 JUMPI INVALID JUMPDEST SWAP1 PUSH1 0x20 ADD SWAP1 PUSH1 0x20 MUL ADD DUP1 MLOAD PUSH1 0x1 SWAP1 DUP2 ADD SWAP1 SWAP2 MSTORE SWAP3 SWAP1 SWAP3 ADD SWAP2 PUSH2 0x14C0 JUMP JUMPDEST PUSH1 0x1 SWAP1 SWAP6 ADD SWAP5 PUSH2 0x143E JUMP JUMPDEST POP SWAP9 SWAP13 SWAP12 POP POP POP POP POP POP POP POP POP POP POP POP JUMP JUMPDEST PUSH1 0x4D SLOAD PUSH1 0xFF AND ISZERO PUSH2 0x1620 JUMPI INVALID JUMPDEST PUSH1 0x35 SLOAD ISZERO PUSH2 0x162A JUMPI INVALID JUMPDEST PUSH1 0x0 DUP1 SLOAD PUSH20 0xFFFFFFFFFFFFFFFFFFFFFFFFFFFFFFFFFFFFFFFF NOT AND PUSH1 0x1 PUSH1 0xA0 PUSH1 0x2 EXP SUB DUP4 AND OR SWAP1 SSTORE PUSH1 0x1 PUSH1 0x35 SSTORE NUMBER PUSH1 0x33 SSTORE PUSH2 0x1668 PUSH1 0x5 DUP5 PUSH1 0x14 PUSH2 0x23D0 JUMP JUMPDEST POP PUSH1 0x0 DUP3 SGT PUSH2 0x1673 JUMPI INVALID JUMPDEST POP PUSH1 0x3 SSTORE POP JUMP JUMPDEST PUSH1 0x0 SLOAD PUSH1 0x1 PUSH1 0xA0 PUSH1 0x2 EXP SUB AND DUP2 JUMP JUMPDEST PUSH1 0x35 SLOAD DUP2 JUMP JUMPDEST PUSH1 0x46 DUP2 PUSH1 0x4 DUP2 LT PUSH2 0x169C JUMPI INVALID JUMPDEST ADD SLOAD SWAP1 POP DUP2 JUMP JUMPDEST PUSH1 0x2D SLOAD SWAP1 JUMP JUMPDEST PUSH1 0x2 SLOAD DUP2 JUMP JUMPDEST PUSH2 0x16B7 PUSH2 0x233D JUMP JUMPDEST PUSH1 0x4D SLOAD PUSH1 0xFF AND ISZERO PUSH2 0x16C4 JUMPI INVALID JUMPDEST PUSH1 0x35 SLOAD PUSH1 0x3 EQ PUSH2 0x16D0 JUMPI INVALID JUMPDEST PUSH1 0x32 SLOAD PUSH1 0x31 SLOAD PUSH1 0x30 SLOAD PUSH1 0x34 SLOAD ADD ADD ADD NUMBER LT ISZERO PUSH2 0x16E8 JUMPI INVALID JUMPDEST PUSH1 0x4C PUSH1 0x1 SLOAD DUP2 SLOAD DUP2 LT ISZERO ISZERO PUSH2 0x16F9 JUMPI INVALID JUMPDEST SWAP1 PUSH1 0x0 MSTORE PUSH1 0x20 PUSH1 0x0 KECCAK256 SWAP1 PUSH1 0x6 MUL ADD PUSH1 0xC0 PUSH1 0x40 MLOAD SWAP1 DUP2 ADD PUSH1 0x40 MSTORE SWAP1 DUP2 PUSH1 0x0 DUP3 ADD PUSH1 0x0 SWAP1 SLOAD SWAP1 PUSH2 0x100 EXP SWAP1 DIV PUSH1 0x1 PUSH1 0xA0 PUSH1 0x2 EXP SUB AND PUSH1 0x1 PUSH1 0xA0 PUSH1 0x2 EXP SUB AND PUSH1 0x1 PUSH1 0xA0 PUSH1 0x2 EXP SUB AND DUP2 MSTORE PUSH1 0x20 ADD PUSH1 0x1 DUP3 ADD SLOAD DUP2 MSTORE PUSH1 0x20 ADD PUSH1 0x2 DUP3 ADD SLOAD DUP2 MSTORE PUSH1 0x20 ADD PUSH1 0x3 DUP3 ADD DUP1 SLOAD DUP1 PUSH1 0x20 MUL PUSH1 0x20 ADD PUSH1 0x40 MLOAD SWAP1 DUP2 ADD PUSH1 0x40 MSTORE DUP1 SWAP3 SWAP2 SWAP1 DUP2 DUP2 MSTORE PUSH1 0x20 ADD DUP3 DUP1 SLOAD DUP1 ISZERO PUSH2 0x17A5 JUMPI PUSH1 0x20 MUL DUP3 ADD SWAP2 SWAP1 PUSH1 0x0 MSTORE PUSH1 0x20 PUSH1 0x0 KECCAK256 SWAP1 JUMPDEST DUP2 SLOAD DUP2 MSTORE PUSH1 0x20 ADD SWAP1 PUSH1 0x1 ADD SWAP1 DUP1 DUP4 GT PUSH2 0x1791 JUMPI JUMPDEST POP POP POP POP POP DUP2 MSTORE PUSH1 0x20 ADD PUSH1 0x4 DUP3 ADD DUP1 SLOAD DUP1 PUSH1 0x20 MUL PUSH1 0x20 ADD PUSH1 0x40 MLOAD SWAP1 DUP2 ADD PUSH1 0x40 MSTORE DUP1 SWAP3 SWAP2 SWAP1 DUP2 DUP2 MSTORE PUSH1 0x20 ADD DUP3 DUP1 SLOAD DUP1 ISZERO PUSH2 0x17FD JUMPI PUSH1 0x20 MUL DUP3 ADD SWAP2 SWAP1 PUSH1 0x0 MSTORE PUSH1 0x20 PUSH1 0x0 KECCAK256 SWAP1 JUMPDEST DUP2 SLOAD DUP2 MSTORE PUSH1 0x20 ADD SWAP1 PUSH1 0x1 ADD SWAP1 DUP1 DUP4 GT PUSH2 0x17E9 JUMPI JUMPDEST POP POP POP POP POP DUP2 MSTORE PUSH1 0x20 ADD PUSH1 0x5 DUP3 ADD DUP1 SLOAD DUP1 PUSH1 0x20 MUL PUSH1 0x20 ADD PUSH1 0x40 MLOAD SWAP1 DUP2 ADD PUSH1 0x40 MSTORE DUP1 SWAP3 SWAP2 SWAP1 DUP2 DUP2 MSTORE PUSH1 0x20 ADD DUP3 DUP1 SLOAD DUP1 ISZERO PUSH2 0x1855 JUMPI PUSH1 0x20 MUL DUP3 ADD SWAP2 SWAP1 PUSH1 0x0 MSTORE PUSH1 0x20 PUSH1 0x0 KECCAK256 SWAP1 JUMPDEST DUP2 SLOAD DUP2 MSTORE PUSH1 0x20 ADD SWAP1 PUSH1 0x1 ADD SWAP1 DUP1 DUP4 GT PUSH2 0x1841 JUMPI JUMPDEST POP POP POP POP POP DUP2 MSTORE POP POP SWAP1 POP PUSH1 0x3 SLOAD PUSH1 0x2 SLOAD SLT ISZERO ISZERO PUSH2 0x18B0 JUMPI DUP1 MLOAD PUSH1 0x1 PUSH1 0xA0 PUSH1 0x2 EXP SUB AND PUSH2 0x8FC ADDRESS PUSH1 0x1 PUSH1 0xA0 PUSH1 0x2 EXP SUB AND BALANCE SWAP1 DUP2 ISZERO MUL SWAP1 PUSH1 0x40 MLOAD PUSH1 0x0 PUSH1 0x40 MLOAD DUP1 DUP4 SUB DUP2 DUP6 DUP9 DUP9 CALL SWAP4 POP POP POP POP ISZERO ISZERO PUSH2 0x18AB JUMPI PUSH1 0x0 DUP1 REVERT JUMPDEST PUSH2 0x18E9 JUMP JUMPDEST PUSH1 0x0 SLOAD PUSH1 0x1 PUSH1 0xA0 PUSH1 0x2 EXP SUB SWAP1 DUP2 AND SWAP1 ADDRESS AND BALANCE DUP1 ISZERO PUSH2 0x8FC MUL SWAP1 PUSH1 0x40 MLOAD PUSH1 0x0 PUSH1 0x40 MLOAD DUP1 DUP4 SUB DUP2 DUP6 DUP9 DUP9 CALL SWAP4 POP POP POP POP ISZERO ISZERO PUSH2 0x18E9 JUMPI PUSH1 0x0 DUP1 REVERT JUMPDEST POP PUSH1 0x4D DUP1 SLOAD PUSH1 0xFF NOT AND PUSH1 0x1 OR SWAP1 SSTORE JUMP JUMPDEST PUSH1 0x4D SLOAD PUSH1 0xFF AND DUP2 JUMP JUMPDEST PUSH1 0x34 SLOAD DUP2 JUMP JUMPDEST PUSH1 0x4C SLOAD SWAP1 JUMP JUMPDEST PUSH1 0x4D SLOAD PUSH1 0xFF AND ISZERO PUSH2 0x191B JUMPI INVALID JUMPDEST PUSH1 0x35 SLOAD PUSH1 0x3 EQ PUSH2 0x1927 JUMPI INVALID JUMPDEST PUSH1 0x30 SLOAD PUSH1 0x34 SLOAD ADD NUMBER LT PUSH2 0x1936 JUMPI INVALID JUMPDEST PUSH1 0x2 DUP6 EQ PUSH2 0x1940 JUMPI INVALID JUMPDEST PUSH1 0x1 DUP5 EQ DUP1 PUSH2 0x194F JUMPI POP PUSH1 0x2 DUP5 EQ JUMPDEST ISZERO ISZERO PUSH2 0x1957 JUMPI INVALID JUMPDEST PUSH2 0x1963 DUP3 DUP7 DUP7 DUP7 PUSH2 0x20ED JUMP JUMPDEST ISZERO ISZERO PUSH2 0x196B JUMPI INVALID JUMPDEST PUSH1 0x4C DUP1 SLOAD PUSH1 0x1 DUP2 ADD PUSH2 0x197D DUP4 DUP3 PUSH2 0x2410 JUMP JUMPDEST SWAP2 PUSH1 0x0 MSTORE PUSH1 0x20 PUSH1 0x0 KECCAK256 SWAP1 PUSH1 0x6 MUL ADD PUSH1 0x0 PUSH1 0xC0 PUSH1 0x40 MLOAD SWAP1 DUP2 ADD PUSH1 0x40 MSTORE DUP1 DUP11 PUSH1 0x1 PUSH1 0xA0 PUSH1 0x2 EXP SUB AND DUP2 MSTORE PUSH1 0x20 ADD DUP10 DUP2 MSTORE PUSH1 0x20 ADD DUP9 DUP2 MSTORE PUSH1 0x20 ADD DUP8 DUP2 MSTORE PUSH1 0x20 ADD DUP7 DUP2 MSTORE PUSH1 0x20 ADD DUP6 DUP2 MSTORE POP SWAP1 SWAP2 SWAP1 SWAP2 POP PUSH1 0x0 DUP3 ADD MLOAD DUP2 SLOAD PUSH20 0xFFFFFFFFFFFFFFFFFFFFFFFFFFFFFFFFFFFFFFFF NOT AND PUSH1 0x1 PUSH1 0xA0 PUSH1 0x2 EXP SUB SWAP2 SWAP1 SWAP2 AND OR DUP2 SSTORE PUSH1 0x20 DUP3 ADD MLOAD DUP2 PUSH1 0x1 ADD SSTORE PUSH1 0x40 DUP3 ADD MLOAD DUP2 PUSH1 0x2 ADD SSTORE PUSH1 0x60 DUP3 ADD MLOAD DUP2 PUSH1 0x3 ADD SWAP1 DUP1 MLOAD PUSH2 0x1A24 SWAP3 SWAP2 PUSH1 0x20 ADD SWAP1 PUSH2 0x243C JUMP JUMPDEST POP PUSH1 0x80 DUP3 ADD MLOAD DUP2 PUSH1 0x4 ADD SWAP1 DUP1 MLOAD PUSH2 0x1A3F SWAP3 SWAP2 PUSH1 0x20 ADD SWAP1 PUSH2 0x243C JUMP JUMPDEST POP PUSH1 0xA0 DUP3 ADD MLOAD DUP2 PUSH1 0x5 ADD SWAP1 DUP1 MLOAD PUSH2 0x1A5A SWAP3 SWAP2 PUSH1 0x20 ADD SWAP1 PUSH2 0x243C JUMP JUMPDEST POP POP POP POP POP POP POP POP POP POP JUMP JUMPDEST PUSH1 0x36 DUP2 PUSH1 0x10 DUP2 LT PUSH2 0x169C JUMPI INVALID JUMPDEST PUSH1 0x31 SLOAD DUP2 JUMP JUMPDEST PUSH1 0x4D SLOAD PUSH1 0xFF AND ISZERO PUSH2 0x1A86 JUMPI INVALID JUMPDEST PUSH1 0x35 SLOAD PUSH1 0x3 SWAP1 LT PUSH2 0x1A93 JUMPI INVALID JUMPDEST PUSH1 0x0 SLOAD PUSH1 0x1 PUSH1 0xA0 PUSH1 0x2 EXP SUB SWAP1 DUP2 AND SWAP1 ADDRESS AND BALANCE DUP1 ISZERO PUSH2 0x8FC MUL SWAP1 PUSH1 0x40 MLOAD PUSH1 0x0 PUSH1 0x40 MLOAD DUP1 DUP4 SUB DUP2 DUP6 DUP9 DUP9 CALL SWAP4 POP POP POP POP ISZERO ISZERO PUSH2 0x1ACC JUMPI PUSH1 0x0 DUP1 REVERT JUMPDEST PUSH1 0x4D DUP1 SLOAD PUSH1 0xFF NOT AND PUSH1 0x1 OR SWAP1 SSTORE JUMP JUMPDEST PUSH1 0x3 SLOAD DUP2 JUMP JUMPDEST PUSH1 0x2D DUP1 SLOAD DUP4 SWAP1 DUP2 LT PUSH2 0xFBB JUMPI INVALID JUMPDEST PUSH1 0x2E SLOAD SWAP1 JUMP JUMPDEST PUSH1 0x30 SLOAD DUP2 JUMP JUMPDEST PUSH1 0x0 DUP1 DUP1 DUP1 DUP5 MLOAD SWAP3 POP PUSH1 0x0 SWAP2 POP JUMPDEST PUSH1 0x10 DUP5 LT ISZERO PUSH2 0x1BCA JUMPI DUP3 PUSH1 0x2 DUP4 NUMBER SUB BLOCKHASH PUSH1 0x0 PUSH1 0x40 MLOAD PUSH1 0x20 ADD MSTORE PUSH1 0x40 MLOAD SWAP1 DUP2 MSTORE PUSH1 0x20 SWAP1 DUP2 ADD SWAP1 PUSH1 0x40 MLOAD DUP1 DUP4 SUB DUP2 PUSH1 0x0 DUP7 PUSH2 0x646E GAS SUB CALL ISZERO ISZERO PUSH2 0x1B49 JUMPI PUSH1 0x0 DUP1 REVERT JUMPDEST POP POP PUSH1 0x40 MLOAD DUP1 MLOAD SWAP1 POP DUP2 ISZERO ISZERO PUSH2 0x1B5B JUMPI INVALID JUMPDEST MOD SWAP1 POP DUP5 DUP2 DUP2 MLOAD DUP2 LT PUSH2 0x1B6A JUMPI INVALID JUMPDEST SWAP1 PUSH1 0x20 ADD SWAP1 PUSH1 0x20 MUL ADD MLOAD PUSH1 0x36 DUP6 PUSH1 0x10 DUP2 LT PUSH2 0x1B81 JUMPI INVALID JUMPDEST ADD SSTORE DUP5 PUSH1 0x0 NOT DUP5 ADD DUP2 MLOAD DUP2 LT PUSH2 0x1B93 JUMPI INVALID JUMPDEST SWAP1 PUSH1 0x20 ADD SWAP1 PUSH1 0x20 MUL ADD MLOAD DUP6 DUP3 DUP2 MLOAD DUP2 LT PUSH2 0x1BA9 JUMPI INVALID JUMPDEST PUSH1 0x20 SWAP1 DUP2 MUL SWAP1 SWAP2 ADD ADD MSTORE PUSH1 0x1 SWAP4 DUP5 ADD SWAP4 PUSH1 0x0 NOT SWAP1 SWAP4 ADD SWAP3 SWAP2 SWAP1 SWAP2 ADD SWAP1 PUSH2 0x1B09 JUMP JUMPDEST PUSH1 0x0 SWAP4 POP JUMPDEST PUSH1 0x4 DUP5 LT ISZERO PUSH2 0x1C13 JUMPI DUP5 PUSH1 0x1 DUP5 SUB DUP2 MLOAD DUP2 LT PUSH2 0x1BE7 JUMPI INVALID JUMPDEST SWAP1 PUSH1 0x20 ADD SWAP1 PUSH1 0x20 MUL ADD MLOAD PUSH1 0x46 DUP6 PUSH1 0x4 DUP2 LT PUSH2 0x1BFE JUMPI INVALID JUMPDEST ADD SSTORE PUSH1 0x1 SWAP4 SWAP1 SWAP4 ADD SWAP3 PUSH1 0x0 NOT SWAP1 SWAP3 ADD SWAP2 PUSH2 0x1BCF JUMP JUMPDEST POP POP POP POP POP JUMP JUMPDEST PUSH2 0x1C22 PUSH2 0x232B JUMP JUMPDEST PUSH2 0x1C2A PUSH2 0x232B JUMP JUMPDEST PUSH1 0x0 DUP5 PUSH1 0x60 ADD MLOAD MLOAD PUSH1 0x2 ADD PUSH1 0x40 MLOAD DUP1 MSIZE LT PUSH2 0x1C42 JUMPI POP MSIZE JUMPDEST DUP2 DUP2 MSTORE PUSH1 0x20 SWAP2 DUP3 MUL DUP2 ADD DUP3 ADD PUSH1 0x40 MSTORE SWAP3 POP DUP6 ADD MLOAD DUP3 PUSH1 0x0 DUP2 MLOAD DUP2 LT PUSH2 0x1C63 JUMPI INVALID JUMPDEST PUSH1 0x20 SWAP1 DUP2 MUL SWAP1 SWAP2 ADD ADD MSTORE POP PUSH1 0x0 JUMPDEST DUP5 PUSH1 0x60 ADD MLOAD MLOAD DUP2 LT ISZERO PUSH2 0x1CB9 JUMPI DUP5 PUSH1 0x60 ADD MLOAD DUP2 DUP2 MLOAD DUP2 LT PUSH2 0x1C8E JUMPI INVALID JUMPDEST SWAP1 PUSH1 0x20 ADD SWAP1 PUSH1 0x20 MUL ADD MLOAD DUP3 DUP3 PUSH1 0x1 ADD DUP2 MLOAD DUP2 LT PUSH2 0x1CA7 JUMPI INVALID JUMPDEST PUSH1 0x20 SWAP1 DUP2 MUL SWAP1 SWAP2 ADD ADD MSTORE PUSH1 0x1 ADD PUSH2 0x1C71 JUMP JUMPDEST DUP5 PUSH1 0x40 ADD MLOAD DUP3 DUP7 PUSH1 0x60 ADD MLOAD MLOAD PUSH1 0x1 ADD DUP2 MLOAD DUP2 LT PUSH2 0x1CD2 JUMPI INVALID JUMPDEST PUSH1 0x20 SWAP1 DUP2 MUL SWAP1 SWAP2 ADD ADD MSTORE PUSH2 0x1CF0 DUP5 PUSH1 0x80 DUP8 ADD MLOAD DUP8 PUSH1 0xA0 ADD MLOAD DUP6 PUSH2 0x21B2 JUMP JUMPDEST SWAP6 SWAP5 POP POP POP POP POP JUMP JUMPDEST PUSH1 0x0 DUP1 PUSH1 0x0 PUSH2 0x1D06 PUSH2 0x232B JUMP JUMPDEST PUSH1 0x0 SWAP3 POP PUSH1 0x4B SWAP2 POP DUP3 PUSH1 0x4C PUSH1 0x40 MLOAD DUP1 MSIZE LT PUSH2 0x1D1E JUMPI POP MSIZE JUMPDEST SWAP1 DUP1 DUP3 MSTORE DUP1 PUSH1 0x20 MUL PUSH1 0x20 ADD DUP3 ADD PUSH1 0x40 MSTORE POP SWAP2 POP PUSH1 0x0 SWAP1 POP JUMPDEST DUP3 DUP2 LT ISZERO PUSH2 0x1D76 JUMPI DUP7 DUP2 DUP2 MLOAD DUP2 LT PUSH2 0x1D4A JUMPI INVALID JUMPDEST SWAP1 PUSH1 0x20 ADD SWAP1 PUSH1 0x20 MUL ADD MLOAD DUP3 DUP6 DUP2 MLOAD DUP2 LT PUSH2 0x1D60 JUMPI INVALID JUMPDEST PUSH1 0x20 SWAP1 DUP2 MUL SWAP1 SWAP2 ADD ADD MSTORE PUSH1 0x1 SWAP4 DUP5 ADD SWAP4 ADD PUSH2 0x1D36 JUMP JUMPDEST DUP6 DUP3 DUP6 DUP2 MLOAD DUP2 LT PUSH2 0x1D83 JUMPI INVALID JUMPDEST PUSH1 0x20 SWAP1 DUP2 MUL SWAP1 SWAP2 ADD ADD MSTORE PUSH1 0x2 DUP3 PUSH1 0x0 PUSH1 0x40 MLOAD PUSH1 0x20 ADD MSTORE PUSH1 0x40 MLOAD DUP1 DUP3 DUP1 MLOAD SWAP1 PUSH1 0x20 ADD SWAP1 PUSH1 0x20 MUL DUP1 DUP4 DUP4 PUSH1 0x0 JUMPDEST DUP4 DUP2 LT ISZERO PUSH2 0x1DC6 JUMPI DUP1 DUP3 ADD MLOAD DUP4 DUP3 ADD MSTORE PUSH1 0x20 ADD PUSH2 0x1DAE JUMP JUMPDEST POP POP POP POP SWAP1 POP ADD SWAP2 POP POP PUSH1 0x20 PUSH1 0x40 MLOAD DUP1 DUP4 SUB DUP2 PUSH1 0x0 DUP7 PUSH2 0x646E GAS SUB CALL ISZERO ISZERO PUSH2 0x1DED JUMPI PUSH1 0x0 DUP1 REVERT JUMPDEST POP POP PUSH1 0x40 MLOAD DUP1 MLOAD SWAP9 SWAP8 POP POP POP POP POP POP POP POP JUMP JUMPDEST PUSH2 0x1E08 PUSH2 0x232B JUMP JUMPDEST PUSH1 0x0 DUP1 PUSH1 0x0 DUP1 PUSH1 0x3 DUP8 MLOAD DUP2 ISZERO ISZERO PUSH2 0x1E1B JUMPI INVALID JUMPDEST DIV PUSH1 0x40 MLOAD DUP1 MSIZE LT PUSH2 0x1E29 JUMPI POP MSIZE JUMPDEST SWAP1 DUP1 DUP3 MSTORE DUP1 PUSH1 0x20 MUL PUSH1 0x20 ADD DUP3 ADD PUSH1 0x40 MSTORE DUP1 ISZERO PUSH2 0x1E5F JUMPI DUP2 PUSH1 0x20 ADD JUMPDEST PUSH2 0x1E4C PUSH2 0x2477 JUMP JUMPDEST DUP2 MSTORE PUSH1 0x20 ADD SWAP1 PUSH1 0x1 SWAP1 SUB SWAP1 DUP2 PUSH2 0x1E44 JUMPI SWAP1 POP JUMPDEST POP SWAP5 POP PUSH1 0x0 SWAP4 POP JUMPDEST PUSH1 0x3 DUP8 MLOAD DUP2 ISZERO ISZERO PUSH2 0x1E74 JUMPI INVALID JUMPDEST DIV DUP5 LT ISZERO PUSH2 0x1EE1 JUMPI PUSH1 0x0 SWAP3 POP JUMPDEST PUSH1 0x3 DUP4 LT ISZERO PUSH2 0x1ED6 JUMPI DUP7 DUP4 PUSH1 0x3 DUP7 MUL ADD DUP2 MLOAD DUP2 LT PUSH2 0x1E9B JUMPI INVALID JUMPDEST SWAP1 PUSH1 0x20 ADD SWAP1 PUSH1 0x20 MUL ADD MLOAD DUP6 DUP6 DUP2 MLOAD DUP2 LT PUSH2 0x1EB1 JUMPI INVALID JUMPDEST SWAP1 PUSH1 0x20 ADD SWAP1 PUSH1 0x20 MUL ADD MLOAD DUP5 PUSH1 0x3 DUP2 LT PUSH2 0x1EC6 JUMPI INVALID JUMPDEST PUSH1 0x20 MUL ADD MSTORE PUSH1 0x1 SWAP1 SWAP3 ADD SWAP2 PUSH2 0x1E81 JUMP JUMPDEST PUSH1 0x1 SWAP1 SWAP4 ADD SWAP3 PUSH2 0x1E67 JUMP JUMPDEST PUSH1 0x1 DUP7 ISZERO ISZERO EQ ISZERO PUSH2 0x1F51 JUMPI PUSH1 0x0 SWAP2 POP JUMPDEST DUP5 MLOAD DUP3 LT ISZERO PUSH2 0x1F4C JUMPI PUSH1 0x2D DUP1 SLOAD PUSH1 0x1 DUP2 ADD PUSH2 0x1F0C DUP4 DUP3 PUSH2 0x2491 JUMP JUMPDEST SWAP2 PUSH1 0x0 MSTORE PUSH1 0x20 PUSH1 0x0 KECCAK256 SWAP1 PUSH1 0x3 MUL ADD PUSH1 0x0 DUP8 DUP6 DUP2 MLOAD DUP2 LT PUSH2 0x1F28 JUMPI INVALID JUMPDEST SWAP1 PUSH1 0x20 ADD SWAP1 PUSH1 0x20 MUL ADD MLOAD PUSH2 0x1F3F SWAP3 SWAP2 POP PUSH1 0x3 PUSH2 0x24BD JUMP JUMPDEST POP POP PUSH1 0x1 SWAP1 SWAP2 ADD SWAP1 PUSH2 0x1EF1 JUMP JUMPDEST PUSH2 0x1FAD JUMP JUMPDEST POP PUSH1 0x0 JUMPDEST DUP5 MLOAD DUP2 LT ISZERO PUSH2 0x1FAD JUMPI PUSH1 0x2E DUP1 SLOAD PUSH1 0x1 DUP2 ADD PUSH2 0x1F70 DUP4 DUP3 PUSH2 0x2491 JUMP JUMPDEST SWAP2 PUSH1 0x0 MSTORE PUSH1 0x20 PUSH1 0x0 KECCAK256 SWAP1 PUSH1 0x3 MUL ADD PUSH1 0x0 DUP8 DUP5 DUP2 MLOAD DUP2 LT PUSH2 0x1F8C JUMPI INVALID JUMPDEST SWAP1 PUSH1 0x20 ADD SWAP1 PUSH1 0x20 MUL ADD MLOAD PUSH2 0x1FA3 SWAP3 SWAP2 POP PUSH1 0x3 PUSH2 0x24BD JUMP JUMPDEST POP POP PUSH1 0x1 ADD PUSH2 0x1F55 JUMP JUMPDEST POP POP POP POP POP POP POP JUMP JUMPDEST PUSH2 0x1FBE PUSH2 0x232B JUMP JUMPDEST PUSH2 0x1FC6 PUSH2 0x232B JUMP JUMPDEST PUSH1 0x0 DUP1 PUSH1 0x0 DUP1 PUSH1 0x0 DUP1 DUP10 DUP10 PUSH1 0x1 ADD DUP2 MLOAD DUP2 LT PUSH2 0x1FDE JUMPI INVALID JUMPDEST SWAP1 PUSH1 0x20 ADD SWAP1 PUSH1 0x20 MUL ADD MLOAD PUSH1 0x40 MLOAD DUP1 MSIZE LT PUSH2 0x1FF5 JUMPI POP MSIZE JUMPDEST SWAP1 DUP1 DUP3 MSTORE DUP1 PUSH1 0x20 MUL PUSH1 0x20 ADD DUP3 ADD PUSH1 0x40 MSTORE POP SWAP7 POP PUSH1 0x0 SWAP6 POP PUSH1 0x0 SWAP5 POP PUSH1 0x0 SWAP4 POP PUSH1 0x0 SWAP3 POP JUMPDEST DUP9 DUP4 LT ISZERO PUSH2 0x2049 JUMPI DUP10 DUP4 PUSH1 0x1 ADD DUP2 MLOAD DUP2 LT PUSH2 0x2030 JUMPI INVALID JUMPDEST SWAP1 PUSH1 0x20 ADD SWAP1 PUSH1 0x20 MUL ADD MLOAD SWAP1 SWAP5 ADD SWAP4 PUSH1 0x1 SWAP1 SWAP3 ADD SWAP2 PUSH2 0x2019 JUMP JUMPDEST PUSH1 0x0 SWAP2 POP JUMPDEST DUP9 PUSH1 0x1 ADD DUP3 LT ISZERO PUSH2 0x2081 JUMPI DUP10 DUP3 PUSH1 0x1 ADD DUP2 MLOAD DUP2 LT PUSH2 0x2068 JUMPI INVALID JUMPDEST SWAP1 PUSH1 0x20 ADD SWAP1 PUSH1 0x20 MUL ADD MLOAD SWAP1 SWAP4 ADD SWAP3 PUSH1 0x1 SWAP1 SWAP2 ADD SWAP1 PUSH2 0x204E JUMP JUMPDEST POP DUP4 JUMPDEST DUP4 DUP2 LT ISZERO PUSH2 0x20C4 JUMPI DUP11 DUP2 DUP2 MLOAD DUP2 LT PUSH2 0x2098 JUMPI INVALID JUMPDEST SWAP1 PUSH1 0x20 ADD SWAP1 PUSH1 0x20 MUL ADD MLOAD DUP8 DUP8 DUP2 MLOAD DUP2 LT PUSH2 0x20AE JUMPI INVALID JUMPDEST PUSH1 0x20 SWAP1 DUP2 MUL SWAP1 SWAP2 ADD ADD MSTORE PUSH1 0x1 SWAP6 DUP7 ADD SWAP6 ADD PUSH2 0x2084 JUMP JUMPDEST POP SWAP5 SWAP10 SWAP9 POP POP POP POP POP POP POP POP POP JUMP JUMPDEST PUSH1 0x0 DUP1 DUP3 SLT ISZERO PUSH2 0x20E5 JUMPI POP PUSH1 0x0 PUSH2 0x20E8 JUMP JUMPDEST POP DUP1 JUMPDEST SWAP2 SWAP1 POP JUMP JUMPDEST PUSH1 0x0 DUP1 DUP1 DUP1 DUP1 DUP6 MLOAD PUSH1 0x2 ADD SWAP2 POP DUP2 PUSH1 0x2 EQ ISZERO PUSH2 0x210D JUMPI DUP7 DUP9 MUL SWAP4 POP PUSH2 0x21A0 JUMP JUMPDEST POP PUSH1 0x0 JUMPDEST DUP6 MLOAD DUP2 LT ISZERO PUSH2 0x217F JUMPI DUP1 ISZERO ISZERO PUSH2 0x2142 JUMPI DUP6 DUP2 DUP2 MLOAD DUP2 LT PUSH2 0x212D JUMPI INVALID JUMPDEST SWAP1 PUSH1 0x20 ADD SWAP1 PUSH1 0x20 MUL ADD MLOAD DUP9 MUL DUP5 ADD SWAP4 POP PUSH2 0x2177 JUMP JUMPDEST DUP6 DUP2 DUP2 MLOAD DUP2 LT PUSH2 0x214E JUMPI INVALID JUMPDEST SWAP1 PUSH1 0x20 ADD SWAP1 PUSH1 0x20 MUL ADD MLOAD DUP7 PUSH1 0x1 DUP4 SUB DUP2 MLOAD DUP2 LT PUSH2 0x2167 JUMPI INVALID JUMPDEST SWAP1 PUSH1 0x20 ADD SWAP1 PUSH1 0x20 MUL ADD MLOAD MUL DUP5 ADD SWAP4 POP JUMPDEST PUSH1 0x1 ADD PUSH2 0x2111 JUMP JUMPDEST DUP7 DUP7 PUSH1 0x1 DUP9 MLOAD SUB DUP2 MLOAD DUP2 LT PUSH2 0x2190 JUMPI INVALID JUMPDEST SWAP1 PUSH1 0x20 ADD SWAP1 PUSH1 0x20 MUL ADD MLOAD MUL DUP5 ADD SWAP4 POP JUMPDEST DUP9 MLOAD SWAP4 SWAP1 SWAP4 EQ SWAP9 SWAP8 POP POP POP POP POP POP POP POP JUMP JUMPDEST PUSH2 0x21BA PUSH2 0x232B JUMP JUMPDEST PUSH2 0x21C2 PUSH2 0x232B JUMP JUMPDEST PUSH2 0x21CA PUSH2 0x232B JUMP JUMPDEST PUSH2 0x21D2 PUSH2 0x232B JUMP JUMPDEST PUSH1 0x0 PUSH2 0x21F3 DUP7 PUSH1 0x0 DUP2 MLOAD DUP2 LT PUSH2 0x21E4 JUMPI INVALID JUMPDEST SWAP1 PUSH1 0x20 ADD SWAP1 PUSH1 0x20 MUL ADD MLOAD PUSH2 0x2282 JUMP JUMPDEST SWAP4 POP PUSH2 0x21FE DUP7 PUSH2 0x22B7 JUMP JUMPDEST SWAP3 POP PUSH2 0x2213 DUP7 PUSH1 0x1 DUP9 MLOAD SUB DUP2 MLOAD DUP2 LT PUSH2 0x21E4 JUMPI INVALID JUMPDEST SWAP2 POP PUSH1 0x0 SWAP1 POP JUMPDEST DUP6 PUSH1 0x0 DUP2 MLOAD DUP2 LT PUSH2 0x2227 JUMPI INVALID JUMPDEST SWAP1 PUSH1 0x20 ADD SWAP1 PUSH1 0x20 MUL ADD MLOAD DUP2 LT ISZERO PUSH2 0x2267 JUMPI DUP9 DUP2 PUSH1 0x3 DUP2 LT PUSH2 0x2244 JUMPI INVALID JUMPDEST PUSH1 0x20 MUL ADD MLOAD DUP5 DUP3 DUP2 MLOAD DUP2 LT PUSH2 0x2255 JUMPI INVALID JUMPDEST PUSH1 0x20 SWAP1 DUP2 MUL SWAP1 SWAP2 ADD ADD MSTORE PUSH1 0x1 ADD PUSH2 0x221A JUMP JUMPDEST PUSH2 0x2275 DUP7 DUP6 DUP6 DUP6 DUP13 DUP13 PUSH2 0x13F0 JUMP JUMPDEST SWAP10 SWAP9 POP POP POP POP POP POP POP POP POP JUMP JUMPDEST PUSH2 0x228A PUSH2 0x232B JUMP JUMPDEST PUSH2 0x2292 PUSH2 0x232B JUMP JUMPDEST DUP3 PUSH1 0x40 MLOAD DUP1 MSIZE LT PUSH2 0x22A0 JUMPI POP MSIZE JUMPDEST DUP2 DUP2 MSTORE PUSH1 0x20 SWAP2 DUP3 MUL DUP2 ADD SWAP1 SWAP2 ADD PUSH1 0x40 MSTORE SWAP4 SWAP3 POP POP POP JUMP JUMPDEST PUSH2 0x22BF PUSH2 0x232B JUMP JUMPDEST PUSH1 0x0 DUP1 PUSH2 0x22CA PUSH2 0x232B JUMP JUMPDEST PUSH1 0x0 SWAP3 POP PUSH1 0x1 SWAP2 POP JUMPDEST PUSH1 0x1 DUP6 MLOAD SUB DUP3 LT ISZERO PUSH2 0x2304 JUMPI DUP5 DUP3 DUP2 MLOAD DUP2 LT PUSH2 0x22EB JUMPI INVALID JUMPDEST SWAP1 PUSH1 0x20 ADD SWAP1 PUSH1 0x20 MUL ADD MLOAD SWAP1 SWAP3 ADD SWAP2 PUSH1 0x1 SWAP1 SWAP2 ADD SWAP1 PUSH2 0x22D3 JUMP JUMPDEST DUP3 PUSH1 0x40 MLOAD DUP1 MSIZE LT PUSH2 0x2312 JUMPI POP MSIZE JUMPDEST DUP2 DUP2 MSTORE PUSH1 0x20 SWAP2 DUP3 MUL DUP2 ADD SWAP1 SWAP2 ADD PUSH1 0x40 MSTORE SWAP6 SWAP5 POP POP POP POP POP JUMP JUMPDEST PUSH1 0x20 PUSH1 0x40 MLOAD SWAP1 DUP2 ADD PUSH1 0x40 MSTORE PUSH1 0x0 DUP2 MSTORE SWAP1 JUMP JUMPDEST PUSH1 0xC0 PUSH1 0x40 MLOAD SWAP1 DUP2 ADD PUSH1 0x40 MSTORE DUP1 PUSH1 0x0 PUSH1 0x1 PUSH1 0xA0 PUSH1 0x2 EXP SUB AND DUP2 MSTORE PUSH1 0x20 ADD PUSH1 0x0 DUP2 MSTORE PUSH1 0x20 ADD PUSH1 0x0 DUP2 MSTORE PUSH1 0x20 ADD PUSH2 0x236F PUSH2 0x232B JUMP JUMPDEST DUP2 MSTORE PUSH1 0x20 ADD PUSH2 0x237C PUSH2 0x232B JUMP JUMPDEST DUP2 MSTORE PUSH1 0x20 ADD PUSH2 0x2389 PUSH2 0x232B JUMP JUMPDEST SWAP1 MSTORE SWAP1 JUMP JUMPDEST PUSH2 0x200 PUSH1 0x40 MLOAD SWAP1 DUP2 ADD PUSH1 0x40 MSTORE PUSH1 0x10 DUP2 JUMPDEST PUSH1 0x0 DUP2 MSTORE PUSH1 0x20 ADD SWAP1 PUSH1 0x1 SWAP1 SUB SWAP1 DUP2 PUSH2 0x239E JUMPI SWAP1 POP POP SWAP1 JUMP JUMPDEST PUSH1 0x80 PUSH1 0x40 MLOAD SWAP1 DUP2 ADD PUSH1 0x40 MSTORE PUSH1 0x0 DUP2 MSTORE PUSH1 0x3 PUSH1 0x20 DUP3 ADD PUSH2 0x239E JUMP JUMPDEST DUP3 PUSH1 0x14 DUP2 ADD SWAP3 DUP3 ISZERO PUSH2 0x2400 JUMPI SWAP2 PUSH1 0x20 MUL DUP3 ADD JUMPDEST DUP3 DUP2 GT ISZERO PUSH2 0x2400 JUMPI DUP3 CALLDATALOAD DUP3 SSTORE PUSH1 0x20 SWAP1 SWAP3 ADD SWAP2 PUSH1 0x1 SWAP1 SWAP2 ADD SWAP1 PUSH2 0x23E3 JUMP JUMPDEST POP PUSH2 0x240C SWAP3 SWAP2 POP PUSH2 0x24EA JUMP JUMPDEST POP SWAP1 JUMP JUMPDEST DUP2 SLOAD DUP2 DUP4 SSTORE DUP2 DUP2 ISZERO GT PUSH2 0x13EB JUMPI PUSH1 0x6 MUL DUP2 PUSH1 0x6 MUL DUP4 PUSH1 0x0 MSTORE PUSH1 0x20 PUSH1 0x0 KECCAK256 SWAP2 DUP3 ADD SWAP2 ADD PUSH2 0x13EB SWAP2 SWAP1 PUSH2 0x2504 JUMP JUMPDEST DUP3 DUP1 SLOAD DUP3 DUP3 SSTORE SWAP1 PUSH1 0x0 MSTORE PUSH1 0x20 PUSH1 0x0 KECCAK256 SWAP1 DUP2 ADD SWAP3 DUP3 ISZERO PUSH2 0x2400 JUMPI SWAP2 PUSH1 0x20 MUL DUP3 ADD JUMPDEST DUP3 DUP2 GT ISZERO PUSH2 0x2400 JUMPI DUP3 MLOAD DUP3 SSTORE SWAP2 PUSH1 0x20 ADD SWAP2 SWAP1 PUSH1 0x1 ADD SWAP1 PUSH2 0x245C JUMP JUMPDEST PUSH1 0x60 PUSH1 0x40 MLOAD SWAP1 DUP2 ADD PUSH1 0x40 MSTORE PUSH1 0x0 DUP2 MSTORE PUSH1 0x2 PUSH1 0x20 DUP3 ADD PUSH2 0x239E JUMP JUMPDEST DUP2 SLOAD DUP2 DUP4 SSTORE DUP2 DUP2 ISZERO GT PUSH2 0x13EB JUMPI PUSH1 0x3 MUL DUP2 PUSH1 0x3 MUL DUP4 PUSH1 0x0 MSTORE PUSH1 0x20 PUSH1 0x0 KECCAK256 SWAP2 DUP3 ADD SWAP2 ADD PUSH2 0x13EB SWAP2 SWAP1 PUSH2 0x256F JUMP JUMPDEST DUP3 PUSH1 0x3 DUP2 ADD SWAP3 DUP3 ISZERO PUSH2 0x2400 JUMPI SWAP2 PUSH1 0x20 MUL DUP3 ADD DUP3 DUP2 GT ISZERO PUSH2 0x2400 JUMPI DUP3 MLOAD DUP3 SSTORE SWAP2 PUSH1 0x20 ADD SWAP2 SWAP1 PUSH1 0x1 ADD SWAP1 PUSH2 0x245C JUMP JUMPDEST PUSH2 0xFA4 SWAP2 SWAP1 JUMPDEST DUP1 DUP3 GT ISZERO PUSH2 0x240C JUMPI PUSH1 0x0 DUP2 SSTORE PUSH1 0x1 ADD PUSH2 0x24F0 JUMP JUMPDEST PUSH2 0xFA4 SWAP2 SWAP1 JUMPDEST DUP1 DUP3 GT ISZERO PUSH2 0x240C JUMPI DUP1 SLOAD PUSH20 0xFFFFFFFFFFFFFFFFFFFFFFFFFFFFFFFFFFFFFFFF NOT AND DUP2 SSTORE PUSH1 0x0 PUSH1 0x1 DUP3 ADD DUP2 SWAP1 SSTORE PUSH1 0x2 DUP3 ADD DUP2 SWAP1 SSTORE PUSH2 0x254A PUSH1 0x3 DUP4 ADD DUP3 PUSH2 0x2592 JUMP JUMPDEST PUSH2 0x2558 PUSH1 0x4 DUP4 ADD PUSH1 0x0 PUSH2 0x2592 JUMP JUMPDEST PUSH2 0x2566 PUSH1 0x5 DUP4 ADD PUSH1 0x0 PUSH2 0x2592 JUMP JUMPDEST POP PUSH1 0x6 ADD PUSH2 0x250A JUMP JUMPDEST PUSH2 0xFA4 SWAP2 SWAP1 JUMPDEST DUP1 DUP3 GT ISZERO PUSH2 0x240C JUMPI PUSH1 0x0 PUSH2 0x2589 DUP3 DUP3 PUSH2 0x25B3 JUMP JUMPDEST POP PUSH1 0x3 ADD PUSH2 0x2575 JUMP JUMPDEST POP DUP1 SLOAD PUSH1 0x0 DUP3 SSTORE SWAP1 PUSH1 0x0 MSTORE PUSH1 0x20 PUSH1 0x0 KECCAK256 SWAP1 DUP2 ADD SWAP1 PUSH2 0x25B0 SWAP2 SWAP1 PUSH2 0x24EA JUMP JUMPDEST POP JUMP JUMPDEST POP PUSH1 0x0 DUP2 SSTORE PUSH1 0x1 ADD PUSH1 0x0 DUP2 SSTORE PUSH1 0x1 ADD PUSH1 0x0 SWAP1 SSTORE JUMP STOP LOG1 PUSH6 0x627A7A723058 KECCAK256 JUMP 0xbc 0xc0 0x1e CALLVALUE MUL 0xde 0x4e PUSH29 0xC7C7E96A58331D9D970ED1AC1938CB9D30B38E4E59E88B002900000000 ",
  "sha1": "dbceca003aecd6d527b6855b6c1f8a028753256f",
  "source": "pragma solidity ^0.4.19;\n// Danku contract version 0.0.1\n// Data points are x, y, and z\n\ncontract Danku_demo {\n  function Danku_demo() public {\n    // Neural Network Structure:\n    //\n    // (required) input layer x number of neurons\n    // (optional) hidden layers x number of neurons\n    // (required) output layer x number of neurons\n  }\n  struct Submission {\n      address payment_address;\n      // Define the number of neurons each layer has.\n      uint num_neurons_input_layer;\n      uint num_neurons_output_layer;\n      // There can be multiple hidden layers.\n      uint[] num_neurons_hidden_layer;\n      // Weights indexes are the following:\n      // weights[l_i x l_n_i x pl_n_i]\n      // Also number of layers in weights is layers.length-1\n      int256[] weights;\n      int256[] biases;\n  }\n  struct NeuralLayer {\n    int256[] neurons;\n    int256[] errors;\n    string layer_type;\n  }\n\n  address public organizer;\n  // Keep track of the best model\n  uint public best_submission_index;\n  // Keep track of best model accuracy\n  int256 public best_submission_accuracy = 0;\n  // The model accuracy criteria\n  int256 public model_accuracy_criteria;\n  // Use test data if provided\n  bool public use_test_data = false;\n  // Each partition is 5% of the total dataset size\n  uint constant partition_size = 25;\n  // Data points are made up of x and y coordinates and the prediction\n  uint constant datapoint_size = 3;\n  uint constant prediction_size = 1;\n  // Max number of data groups\n  // Change this to your data group size\n  uint16 constant max_num_data_groups = 500;\n  // Training partition size\n  uint16 constant training_data_group_size = 400;\n  // Testing partition size\n  uint16 constant testing_data_group_size = max_num_data_groups - training_data_group_size;\n  // Dataset is divided into data groups.\n  // Every data group includes a nonce.\n  // Look at sha_data_group() for more detail about hashing a data group\n  bytes32[max_num_data_groups/partition_size] hashed_data_groups;\n  // Nonces are revelead together with data groups\n  uint[max_num_data_groups/partition_size] data_group_nonces;\n  // + 1 for prediction\n  // A data group has 3 data points in total\n  int256[datapoint_size][] public train_data;\n  int256[datapoint_size][] public test_data;\n  bytes32 partition_seed;\n  // Deadline for submitting solutions in terms of block size\n  uint public submission_stage_block_size = 241920; // 6 weeks timeframe\n  // Deadline for revealing the testing dataset\n  uint public reveal_test_data_groups_block_size = 17280; // 3 days timeframe\n  // Deadline for evaluating the submissions\n  uint public evaluation_stage_block_size = 40320; // 7 days timeframe\n  uint public init1_block_height;\n  uint public init3_block_height;\n  uint public init_level = 0;\n  // Training partition size is 14 (70%)\n  // Testing partition size is 6 (30%)\n  uint[training_data_group_size/partition_size] public training_partition;\n  uint[testing_data_group_size/partition_size] public testing_partition;\n  uint256 train_dg_revealed = 0;\n  uint256 test_dg_revealed = 0;\n  Submission[] submission_queue;\n  bool public contract_terminated = false;\n  // Integer precision for calculating float values for weights and biases\n  int constant int_precision = 10000;\n\n  // Takes in array of hashed data points of the entire dataset,\n  // submission and evaluation times\n  function init1(bytes32[max_num_data_groups/partition_size] _hashed_data_groups, int accuracy_criteria, address organizer_refund_address) external {\n    // Make sure contract is not terminated\n    assert(contract_terminated == false);\n    // Make sure it's called in order\n    assert(init_level == 0);\n    organizer = organizer_refund_address;\n    init_level = 1;\n    init1_block_height = block.number;\n\n    // Make sure there are in total 20 hashed data groups\n    assert(_hashed_data_groups.length == max_num_data_groups/partition_size);\n    hashed_data_groups = _hashed_data_groups;\n    // Accuracy criteria example: 85.9% => 8,590\n    // 100 % => 10,000\n    assert(accuracy_criteria > 0);\n    model_accuracy_criteria = accuracy_criteria;\n  }\n\n  function init2() external {\n    // Make sure contract is not terminated\n    assert(contract_terminated == false);\n    // Only allow calling it once, in order\n    assert(init_level == 1);\n    // Make sure it's being called within 20 blocks on init1()\n    // to minimize organizer influence on random index selection\n    if (block.number <= init1_block_height+20 && block.number > init1_block_height) {\n      // Randomly select indexes\n      uint[] memory index_array = new uint[](max_num_data_groups/partition_size);\n      for (uint i = 0; i < max_num_data_groups/partition_size; i++) {\n        index_array[i] = i;\n      }\n      randomly_select_index(index_array);\n      init_level = 2;\n    } else {\n      // Cancel the contract if init2() hasn't been called within 5\n      // blocks of init1()\n      cancel_contract();\n    }\n  }\n\n  function init3(int256[] _train_data_groups, int256 _train_data_group_nonces) external {\n    // Pass a single data group at a time\n    // Make sure contract is not terminated\n    assert(contract_terminated == false);\n    // Only allow calling once, in order\n    assert(init_level == 2);\n    // Verify data group and nonce lengths\n    assert((_train_data_groups.length/partition_size)/datapoint_size == 1);\n    // Verify data group hashes\n    // Order of revealed training data group must be the same with training partitions\n    // Otherwise hash verification will fail\n    assert(sha_data_group(_train_data_groups, _train_data_group_nonces) ==\n      hashed_data_groups[training_partition[train_dg_revealed]]);\n    train_dg_revealed += 1;\n    // Assign training data after verifying the corresponding hash\n    unpack_data_groups(_train_data_groups, true);\n    if (train_dg_revealed == (training_data_group_size/partition_size)) {\n      init_level = 3;\n      init3_block_height = block.number;\n    }\n  }\n\n  function get_training_index() public view returns(uint[training_data_group_size/partition_size]) {\n    return training_partition;\n  }\n\n  function get_testing_index() public view returns(uint[testing_data_group_size/partition_size]) {\n    return testing_partition;\n  }\n\n  function get_submission_queue_length() public view returns(uint) {\n    return submission_queue.length;\n  }\n\n  function submit_model(\n    // Public function for users to submit a solution\n    address payment_address,\n    uint num_neurons_input_layer,\n    uint num_neurons_output_layer,\n    uint[] num_neurons_hidden_layer,\n    int[] weights,\n    int256[] biases) public {\n      // Make sure contract is not terminated\n      assert(contract_terminated == false);\n      // Make sure it's not the initialization stage anymore\n      assert(init_level == 3);\n      // Make sure it's still within the submission stage\n      assert(block.number < init3_block_height + submission_stage_block_size);\n      // Make sure that num of neurons in the input & output layer matches\n      // the problem description\n      assert(num_neurons_input_layer == datapoint_size - prediction_size);\n      // Because we can encode binary output in two different ways, we check\n      // for both of them\n      assert(num_neurons_output_layer == prediction_size || num_neurons_output_layer == (prediction_size+1));\n      // Make sure that the number of weights match network structure\n      assert(valid_weights(weights, num_neurons_input_layer, num_neurons_output_layer, num_neurons_hidden_layer));\n      // Add solution to submission queue\n      submission_queue.push(Submission(\n        payment_address,\n        num_neurons_input_layer,\n        num_neurons_output_layer,\n        num_neurons_hidden_layer,\n        weights,\n        biases));\n  }\n\n  function get_submission_id(\n    // Public function that returns the submission index ID\n    address paymentAddress,\n    uint num_neurons_input_layer,\n    uint num_neurons_output_layer,\n    uint[] num_neurons_hidden_layer,\n    int[] weights,\n    int256[] biases) public view returns (uint) {\n      // Iterate over submission queue to get submission index ID\n      for (uint i = 0; i < submission_queue.length; i++) {\n        if (submission_queue[i].payment_address != paymentAddress) {\n          continue;\n        }\n        if (submission_queue[i].num_neurons_input_layer != num_neurons_input_layer) {\n          continue;\n        }\n        if (submission_queue[i].num_neurons_output_layer != num_neurons_output_layer) {\n          continue;\n        }\n        for (uint j = 0; j < num_neurons_hidden_layer.length; j++) {\n            if (submission_queue[i].num_neurons_hidden_layer[j] != num_neurons_hidden_layer[j]) {\n              continue;\n            }\n        }\n        for (uint k = 0; k < weights.length; k++) {\n            if (submission_queue[i].weights[k] != weights[k]) {\n              continue;\n            }\n        }\n        for (uint l = 0; l < biases.length; l++) {\n          if (submission_queue[i].biases[l] != biases[l]) {\n            continue;\n          }\n        }\n        // If everything matches, return the submission index\n        return i;\n      }\n      // If submission is not in the queue, just throw an exception\n      require(false);\n  }\n\n    function reveal_test_data(int256[] _test_data_groups, int256 _test_data_group_nonces) external {\n    // Make sure contract is not terminated\n    assert(contract_terminated == false);\n    // Make sure it's not the initialization stage anymore\n    assert(init_level == 3);\n    // Make sure it's revealed after the submission stage\n    assert(block.number >= init3_block_height + submission_stage_block_size);\n    // Make sure it's revealed within the reveal stage\n    assert(block.number < init3_block_height + submission_stage_block_size + reveal_test_data_groups_block_size);\n    // Verify data group and nonce lengths\n    assert((_test_data_groups.length/partition_size)/datapoint_size == 1);\n    // Verify data group hashes\n    assert(sha_data_group(_test_data_groups, _test_data_group_nonces) ==\n      hashed_data_groups[testing_partition[test_dg_revealed]]);\n    test_dg_revealed += 1;\n    // Assign testing data after verifying the corresponding hash\n    unpack_data_groups(_test_data_groups, false);\n    // Use test data for evaluation\n    use_test_data = true;\n  }\n\n  function evaluate_model(uint submission_index) public {\n    // Make sure contract is not terminated\n    assert(contract_terminated == false);\n    // Make sure it's not the initialization stage anymore\n    assert(init_level == 3);\n    // Make sure it's evaluated after the reveal stage\n    assert(block.number >= init3_block_height + submission_stage_block_size + reveal_test_data_groups_block_size);\n    // Make sure it's evaluated within the evaluation stage\n    assert(block.number < init3_block_height + submission_stage_block_size + reveal_test_data_groups_block_size + evaluation_stage_block_size);\n    // Evaluates a submitted model & keeps track of the best model\n    int256 submission_accuracy = 0;\n    if (use_test_data == true) {\n      submission_accuracy = model_accuracy(submission_index, test_data);\n    } else {\n      submission_accuracy = model_accuracy(submission_index, train_data);\n    }\n\n    // Keep track of the most accurate model\n    if (submission_accuracy > best_submission_accuracy) {\n      best_submission_index = submission_index;\n      best_submission_accuracy = submission_accuracy;\n    }\n    // If accuracy is the same, the earlier submission is selected\n    if (submission_accuracy == best_submission_accuracy) {\n      if (submission_index < best_submission_index) {\n        best_submission_index = submission_index;\n        best_submission_accuracy = submission_accuracy;\n      }\n    }\n  }\n\n  function cancel_contract() public {\n    // Make sure contract is not already terminated\n    assert(contract_terminated == false);\n    // Contract can only be cancelled if initialization has failed.\n    assert(init_level < 3);\n    // Refund remaining balance to organizer\n    organizer.transfer(this.balance);\n    // Terminate contract\n    contract_terminated = true;\n  }\n\n  function finalize_contract() public {\n    // Make sure contract is not terminated\n    assert(contract_terminated == false);\n    // Make sure it's not the initialization stage anymore\n    assert(init_level == 3);\n    // Make sure the contract is finalized after the evaluation stage\n    assert(block.number >= init3_block_height + submission_stage_block_size + reveal_test_data_groups_block_size + evaluation_stage_block_size);\n    // Get the best submission to compare it against the criteria\n    Submission memory best_submission = submission_queue[best_submission_index];\n    // If best submission passes criteria, payout to the submitter\n    if (best_submission_accuracy >= model_accuracy_criteria) {\n      best_submission.payment_address.transfer(this.balance);\n    // If the best submission fails the criteria, refund the balance back to the organizer\n    } else {\n      organizer.transfer(this.balance);\n    }\n    contract_terminated = true;\n  }\n\n  function model_accuracy(uint submission_index, int256[datapoint_size][] data) public constant returns (int256){\n    // Make sure contract is not terminated\n    assert(contract_terminated == false);\n    // Make sure it's not the initialization stage anymore\n    assert(init_level == 3);\n    // Leave function public for offline error calculation\n    // Get's the sum error for the model\n    Submission memory sub = submission_queue[submission_index];\n    int256 true_prediction = 0;\n    int256 false_prediction = 0;\n    bool one_hot; // one-hot encoding if prediction size is 1 but model output size is 2\n    int[] memory prediction;\n    int[] memory ground_truth;\n    if ((prediction_size + 1) == sub.num_neurons_output_layer) {\n      one_hot = true;\n      prediction = new int[](sub.num_neurons_output_layer);\n      ground_truth = new int[](sub.num_neurons_output_layer);\n    } else {\n      one_hot = false;\n      prediction = new int[](prediction_size);\n      ground_truth = new int[](prediction_size);\n    }\n    for (uint i = 0; i < data.length; i++) {\n      // Get ground truth\n      for (uint j = datapoint_size-prediction_size; j < data[i].length; j++) {\n        uint d_index = j - datapoint_size + prediction_size;\n        // Only get prediction values\n        if (one_hot == true) {\n          if (data[i][j] == 0) {\n            ground_truth[d_index] = 1;\n            ground_truth[d_index + 1] = 0;\n          } else if (data[i][j] == 1) {\n            ground_truth[d_index] = 0;\n            ground_truth[d_index + 1] = 1;\n          } else {\n            // One-hot encoding for more than 2 classes is not supported\n            require(false);\n          }\n        } else {\n          ground_truth[d_index] = data[i][j];\n        }\n      }\n      // Get prediction\n      prediction = get_prediction(sub, data[i]);\n      // Get error for the output layer\n      for (uint k = 0; k < ground_truth.length; k++) {\n        if (ground_truth[k] == prediction[k]) {\n          true_prediction += 1;\n        } else {\n          false_prediction += 1;\n        }\n      }\n    }\n    // We multipl by int_precision to get up to x decimal point precision while\n    // calculating the accuracy\n    return (true_prediction * int_precision) / (true_prediction + false_prediction);\n  }\n\n  function get_train_data_length() public view returns(uint256) {\n    return train_data.length;\n  }\n\n  function get_test_data_length() public view returns(uint256) {\n    return test_data.length;\n  }\n\n  function round_up_division(int256 dividend, int256 divisor) private pure returns(int256) {\n    // A special trick since solidity normall rounds it down\n    return (dividend + divisor -1) / divisor;\n  }\n\n  function not_in_train_partition(uint[training_data_group_size/partition_size] partition, uint number) private pure returns (bool) {\n    for (uint i = 0; i < partition.length; i++) {\n      if (number == partition[i]) {\n        return false;\n      }\n    }\n    return true;\n  }\n\n  function randomly_select_index(uint[] array) private {\n    uint t_index = 0;\n    uint array_length = array.length;\n    uint block_i = 0;\n    // Randomly select training indexes\n    while(t_index < training_partition.length) {\n      uint random_index = uint(sha256(block.blockhash(block.number-block_i))) % array_length;\n      training_partition[t_index] = array[random_index];\n      array[random_index] = array[array_length-1];\n      array_length--;\n      block_i++;\n      t_index++;\n    }\n    t_index = 0;\n    while(t_index < testing_partition.length) {\n      testing_partition[t_index] = array[array_length-1];\n      array_length--;\n      t_index++;\n    }\n  }\n\n  function valid_weights(int[] weights, uint num_neurons_input_layer, uint num_neurons_output_layer, uint[] num_neurons_hidden_layer) private pure returns (bool) {\n    // make sure the number of weights match the network structure\n    // get number of weights based on network structure\n    uint ns_total = 0;\n    uint wa_total = 0;\n    uint number_of_layers = 2 + num_neurons_hidden_layer.length;\n\n    if (number_of_layers == 2) {\n      ns_total = num_neurons_input_layer * num_neurons_output_layer;\n    } else {\n      for(uint i = 0; i < num_neurons_hidden_layer.length; i++) {\n        // Get weights between first hidden layer and input layer\n        if (i==0){\n          ns_total += num_neurons_input_layer * num_neurons_hidden_layer[i];\n        // Get weights between hidden layers\n        } else {\n          ns_total += num_neurons_hidden_layer[i-1] * num_neurons_hidden_layer[i];\n        }\n      }\n      // Get weights between last hidden layer and output layer\n      ns_total += num_neurons_hidden_layer[num_neurons_hidden_layer.length-1] * num_neurons_output_layer;\n    }\n    // get number of weights in the weights array\n    wa_total = weights.length;\n\n    return ns_total == wa_total;\n  }\n\n    function unpack_data_groups(int256[] _data_groups, bool is_train_data) private {\n    int256[datapoint_size][] memory merged_data_group = new int256[datapoint_size][](_data_groups.length/datapoint_size);\n\n    for (uint i = 0; i < _data_groups.length/datapoint_size; i++) {\n      for (uint j = 0; j < datapoint_size; j++) {\n        merged_data_group[i][j] = _data_groups[i*datapoint_size + j];\n      }\n    }\n    if (is_train_data == true) {\n      // Assign training data\n      for (uint k = 0; k < merged_data_group.length; k++) {\n        train_data.push(merged_data_group[k]);\n      }\n    } else {\n      // Assign testing data\n      for (uint l = 0; l < merged_data_group.length; l++) {\n        test_data.push(merged_data_group[l]);\n      }\n    }\n  }\n\n    function sha_data_group(int256[] data_group, int256 data_group_nonce) private pure returns (bytes32) {\n      // Extract the relevant data points for the given data group index\n      // We concat all data groups and add the nounce to the end of the array\n      // and get the sha256 for the array\n      uint index_tracker = 0;\n      uint256 total_size = datapoint_size * partition_size;\n      /* uint256 start_index = data_group_index * total_size;\n      uint256 iter_limit = start_index + total_size; */\n      int256[] memory all_data_points = new int256[](total_size+1);\n\n      for (uint256 i = 0; i < total_size; i++) {\n        all_data_points[index_tracker] = data_group[i];\n        index_tracker += 1;\n      }\n      // Add nonce to the whole array\n      all_data_points[index_tracker] = data_group_nonce;\n      // Return sha256 on all data points + nonce\n      return sha256(all_data_points);\n    }\n\n  function relu_activation(int256 x) private pure returns (int256) {\n    if (x < 0) {\n      return 0;\n    } else {\n      return x;\n    }\n  }\n\n  function get_layer(uint nn) private pure returns (int256[]) {\n    int256[] memory input_layer = new int256[](nn);\n    return input_layer;\n  }\n\n  function get_hidden_layers(uint[] l_nn) private pure returns (int256[]) {\n    uint total_nn = 0;\n    // Skip first and last layer since they're not hidden layers\n    for (uint i = 1; i < l_nn.length-1; i++) {\n      total_nn += l_nn[i];\n    }\n    int256[] memory hidden_layers = new int256[](total_nn);\n    return hidden_layers;\n  }\n\n  function access_hidden_layer(int256[] hls, uint[] l_nn, uint index) private pure returns (int256[]) {\n    // Returns the hidden layer from the hidden layers array\n    int256[] memory hidden_layer = new int256[](l_nn[index+1]);\n    uint hidden_layer_index = 0;\n    uint start = 0;\n    uint end = 0;\n    for (uint i = 0; i < index; i++) {\n      start += l_nn[i+1];\n    }\n    for (uint j = 0; j < (index + 1); j++) {\n      end += l_nn[j+1];\n    }\n    for (uint h_i = start; h_i < end; h_i++) {\n      hidden_layer[hidden_layer_index] = hls[h_i];\n      hidden_layer_index += 1;\n    }\n    return hidden_layer;\n  }\n\n  function get_prediction(Submission sub, int[datapoint_size] data_point) private pure returns(int256[]) {\n    uint[] memory l_nn = new uint[](sub.num_neurons_hidden_layer.length + 2);\n    l_nn[0] = sub.num_neurons_input_layer;\n    for (uint i = 0; i < sub.num_neurons_hidden_layer.length; i++) {\n      l_nn[i+1] = sub.num_neurons_hidden_layer[i];\n    }\n    l_nn[sub.num_neurons_hidden_layer.length+1] = sub.num_neurons_output_layer;\n    return forward_pass(data_point, sub.weights, sub.biases, l_nn);\n  }\n\n  function forward_pass(int[datapoint_size] data_point, int256[] weights, int256[] biases, uint[] l_nn) private pure returns (int256[]) {\n    // Initialize neuron arrays\n    int256[] memory input_layer = get_layer(l_nn[0]);\n    int256[] memory hidden_layers = get_hidden_layers(l_nn);\n    int256[] memory output_layer = get_layer(l_nn[l_nn.length-1]);\n\n    // load inputs from input layer\n    for (uint input_i = 0; input_i < l_nn[0]; input_i++) {\n      input_layer[input_i] = data_point[input_i];\n    }\n    return forward_pass2(l_nn, input_layer, hidden_layers, output_layer, weights, biases);\n  }\n\n  function forward_pass2(uint[] l_nn, int256[] input_layer, int256[] hidden_layers, int256[] output_layer, int256[] weights, int256[] biases) public pure returns (int256[]) {\n    // index_counter[0] is weight index\n    // index_counter[1] is hidden_layer_index\n    uint[] memory index_counter = new uint[](2);\n    for (uint layer_i = 0; layer_i < (l_nn.length-1); layer_i++) {\n      int256[] memory current_layer;\n      int256[] memory prev_layer;\n      // If between input and first hidden layer\n      if (hidden_layers.length != 0) {\n        if (layer_i == 0) {\n          current_layer = access_hidden_layer(hidden_layers, l_nn, layer_i);\n          prev_layer = input_layer;\n        // If between output and last hidden layer\n        } else if (layer_i == (l_nn.length-2)) {\n          current_layer = output_layer;\n          prev_layer = access_hidden_layer(hidden_layers, l_nn, (layer_i-1));\n        // If between hidden layers\n        } else {\n          current_layer = access_hidden_layer(hidden_layers, l_nn, layer_i);\n          prev_layer = access_hidden_layer(hidden_layers, l_nn, layer_i-1);\n        }\n      } else {\n        current_layer = output_layer;\n        prev_layer = input_layer;\n      }\n      for (uint layer_neuron_i = 0; layer_neuron_i < current_layer.length; layer_neuron_i++) {\n        int total = 0;\n        for (uint prev_layer_neuron_i = 0; prev_layer_neuron_i < prev_layer.length; prev_layer_neuron_i++) {\n          total += prev_layer[prev_layer_neuron_i] * weights[index_counter[0]];\n          index_counter[0]++;\n        }\n        total += biases[layer_i];\n        total = total / int_precision; // Divide by int_precision to scale down\n        // If between output and last hidden layer\n        if (layer_i == (l_nn.length-2)) {\n            output_layer[layer_neuron_i] = relu_activation(total);\n        } else {\n            hidden_layers[index_counter[1]] = relu_activation(total);\n        }\n        index_counter[1]++;\n      }\n    }\n    return output_layer;\n  }\n\n  // Fallback function for sending ether to this contract\n  function () public payable {}\n}\n",
  "sourcePath": "contracts/Danku_demo.sol",
  "type": "contract"
}