{
  "abi": [
    {
      "constant": true,
      "inputs": [],
      "name": "init1_block_height",
      "outputs": [
        {
          "name": "",
          "type": "uint256"
        }
      ],
      "payable": false,
      "stateMutability": "view",
      "type": "function"
    },
    {
      "constant": false,
      "inputs": [],
      "name": "init2",
      "outputs": [],
      "payable": false,
      "stateMutability": "nonpayable",
      "type": "function"
    },
    {
      "constant": false,
      "inputs": [
        {
          "name": "submission_index",
          "type": "uint256"
        }
      ],
      "name": "evaluate_model",
      "outputs": [],
      "payable": false,
      "stateMutability": "nonpayable",
      "type": "function"
    },
    {
      "constant": true,
      "inputs": [
        {
          "name": "submission_index",
          "type": "uint256"
        },
        {
          "name": "data",
          "type": "int256[3][]"
        }
      ],
      "name": "model_accuracy",
      "outputs": [
        {
          "name": "",
          "type": "int256"
        }
      ],
      "payable": false,
      "stateMutability": "view",
      "type": "function"
    },
    {
      "constant": true,
      "inputs": [],
      "name": "get_training_index",
      "outputs": [
        {
          "name": "",
          "type": "uint256[8]"
        }
      ],
      "payable": false,
      "stateMutability": "view",
      "type": "function"
    },
    {
      "constant": true,
      "inputs": [],
      "name": "evaluation_stage_block_size",
      "outputs": [
        {
          "name": "",
          "type": "uint256"
        }
      ],
      "payable": false,
      "stateMutability": "view",
      "type": "function"
    },
    {
      "constant": true,
      "inputs": [
        {
          "name": "",
          "type": "uint256"
        },
        {
          "name": "",
          "type": "uint256"
        }
      ],
      "name": "test_data",
      "outputs": [
        {
          "name": "",
          "type": "int256"
        }
      ],
      "payable": false,
      "stateMutability": "view",
      "type": "function"
    },
    {
      "constant": false,
      "inputs": [
        {
          "name": "_hashed_data_groups",
          "type": "bytes32[10]"
        },
        {
          "name": "accuracy_criteria",
          "type": "int256"
        },
        {
          "name": "organizer_refund_address",
          "type": "address"
        }
      ],
      "name": "init1",
      "outputs": [],
      "payable": false,
      "stateMutability": "nonpayable",
      "type": "function"
    },
    {
      "constant": true,
      "inputs": [],
      "name": "get_testing_index",
      "outputs": [
        {
          "name": "",
          "type": "uint256[2]"
        }
      ],
      "payable": false,
      "stateMutability": "view",
      "type": "function"
    },
    {
      "constant": false,
      "inputs": [
        {
          "name": "_test_data_groups",
          "type": "int256[]"
        },
        {
          "name": "_test_data_group_nonces",
          "type": "int256"
        }
      ],
      "name": "reveal_test_data",
      "outputs": [],
      "payable": false,
      "stateMutability": "nonpayable",
      "type": "function"
    },
    {
      "constant": true,
      "inputs": [
        {
          "name": "paymentAddress",
          "type": "address"
        },
        {
          "name": "num_neurons_input_layer",
          "type": "uint256"
        },
        {
          "name": "num_neurons_output_layer",
          "type": "uint256"
        },
        {
          "name": "num_neurons_hidden_layer",
          "type": "uint256[]"
        },
        {
          "name": "weights",
          "type": "int256[]"
        },
        {
          "name": "biases",
          "type": "int256[]"
        }
      ],
      "name": "get_submission_id",
      "outputs": [
        {
          "name": "",
          "type": "uint256"
        }
      ],
      "payable": false,
      "stateMutability": "view",
      "type": "function"
    },
    {
      "constant": true,
      "inputs": [],
      "name": "best_submission_index",
      "outputs": [
        {
          "name": "",
          "type": "uint256"
        }
      ],
      "payable": false,
      "stateMutability": "view",
      "type": "function"
    },
    {
      "constant": true,
      "inputs": [],
      "name": "use_test_data",
      "outputs": [
        {
          "name": "",
          "type": "bool"
        }
      ],
      "payable": false,
      "stateMutability": "view",
      "type": "function"
    },
    {
      "constant": false,
      "inputs": [
        {
          "name": "_train_data_groups",
          "type": "int256[]"
        },
        {
          "name": "_train_data_group_nonces",
          "type": "int256"
        }
      ],
      "name": "init3",
      "outputs": [],
      "payable": false,
      "stateMutability": "nonpayable",
      "type": "function"
    },
    {
      "constant": true,
      "inputs": [
        {
          "name": "l_nn",
          "type": "uint256[]"
        },
        {
          "name": "input_layer",
          "type": "int256[]"
        },
        {
          "name": "hidden_layers",
          "type": "int256[]"
        },
        {
          "name": "output_layer",
          "type": "int256[]"
        },
        {
          "name": "weights",
          "type": "int256[]"
        },
        {
          "name": "biases",
          "type": "int256[]"
        }
      ],
      "name": "forward_pass2",
      "outputs": [
        {
          "name": "",
          "type": "int256[]"
        }
      ],
      "payable": false,
      "stateMutability": "pure",
      "type": "function"
    },
    {
      "constant": true,
      "inputs": [],
      "name": "organizer",
      "outputs": [
        {
          "name": "",
          "type": "address"
        }
      ],
      "payable": false,
      "stateMutability": "view",
      "type": "function"
    },
    {
      "constant": true,
      "inputs": [],
      "name": "init_level",
      "outputs": [
        {
          "name": "",
          "type": "uint256"
        }
      ],
      "payable": false,
      "stateMutability": "view",
      "type": "function"
    },
    {
      "constant": true,
      "inputs": [
        {
          "name": "",
          "type": "uint256"
        }
      ],
      "name": "testing_partition",
      "outputs": [
        {
          "name": "",
          "type": "uint256"
        }
      ],
      "payable": false,
      "stateMutability": "view",
      "type": "function"
    },
    {
      "constant": true,
      "inputs": [],
      "name": "get_train_data_length",
      "outputs": [
        {
          "name": "",
          "type": "uint256"
        }
      ],
      "payable": false,
      "stateMutability": "view",
      "type": "function"
    },
    {
      "constant": true,
      "inputs": [],
      "name": "best_submission_accuracy",
      "outputs": [
        {
          "name": "",
          "type": "int256"
        }
      ],
      "payable": false,
      "stateMutability": "view",
      "type": "function"
    },
    {
      "constant": false,
      "inputs": [],
      "name": "finalize_contract",
      "outputs": [],
      "payable": false,
      "stateMutability": "nonpayable",
      "type": "function"
    },
    {
      "constant": true,
      "inputs": [],
      "name": "contract_terminated",
      "outputs": [
        {
          "name": "",
          "type": "bool"
        }
      ],
      "payable": false,
      "stateMutability": "view",
      "type": "function"
    },
    {
      "constant": true,
      "inputs": [],
      "name": "init3_block_height",
      "outputs": [
        {
          "name": "",
          "type": "uint256"
        }
      ],
      "payable": false,
      "stateMutability": "view",
      "type": "function"
    },
    {
      "constant": true,
      "inputs": [],
      "name": "get_submission_queue_length",
      "outputs": [
        {
          "name": "",
          "type": "uint256"
        }
      ],
      "payable": false,
      "stateMutability": "view",
      "type": "function"
    },
    {
      "constant": false,
      "inputs": [
        {
          "name": "payment_address",
          "type": "address"
        },
        {
          "name": "num_neurons_input_layer",
          "type": "uint256"
        },
        {
          "name": "num_neurons_output_layer",
          "type": "uint256"
        },
        {
          "name": "num_neurons_hidden_layer",
          "type": "uint256[]"
        },
        {
          "name": "weights",
          "type": "int256[]"
        },
        {
          "name": "biases",
          "type": "int256[]"
        }
      ],
      "name": "submit_model",
      "outputs": [],
      "payable": false,
      "stateMutability": "nonpayable",
      "type": "function"
    },
    {
      "constant": true,
      "inputs": [
        {
          "name": "",
          "type": "uint256"
        }
      ],
      "name": "training_partition",
      "outputs": [
        {
          "name": "",
          "type": "uint256"
        }
      ],
      "payable": false,
      "stateMutability": "view",
      "type": "function"
    },
    {
      "constant": true,
      "inputs": [],
      "name": "reveal_test_data_groups_block_size",
      "outputs": [
        {
          "name": "",
          "type": "uint256"
        }
      ],
      "payable": false,
      "stateMutability": "view",
      "type": "function"
    },
    {
      "constant": false,
      "inputs": [],
      "name": "cancel_contract",
      "outputs": [],
      "payable": false,
      "stateMutability": "nonpayable",
      "type": "function"
    },
    {
      "constant": true,
      "inputs": [],
      "name": "model_accuracy_criteria",
      "outputs": [
        {
          "name": "",
          "type": "int256"
        }
      ],
      "payable": false,
      "stateMutability": "view",
      "type": "function"
    },
    {
      "constant": true,
      "inputs": [
        {
          "name": "",
          "type": "uint256"
        },
        {
          "name": "",
          "type": "uint256"
        }
      ],
      "name": "train_data",
      "outputs": [
        {
          "name": "",
          "type": "int256"
        }
      ],
      "payable": false,
      "stateMutability": "view",
      "type": "function"
    },
    {
      "constant": true,
      "inputs": [],
      "name": "get_test_data_length",
      "outputs": [
        {
          "name": "",
          "type": "uint256"
        }
      ],
      "payable": false,
      "stateMutability": "view",
      "type": "function"
    },
    {
      "constant": true,
      "inputs": [],
      "name": "submission_stage_block_size",
      "outputs": [
        {
          "name": "",
          "type": "uint256"
        }
      ],
      "payable": false,
      "stateMutability": "view",
      "type": "function"
    },
    {
      "inputs": [],
      "payable": false,
      "stateMutability": "nonpayable",
      "type": "constructor"
    },
    {
      "payable": true,
      "stateMutability": "payable",
      "type": "fallback"
    }
  ],
  "bytecode": "6060604052600060028190556004805460ff199081169091556064601c819055601d819055601e556021829055602c829055602d91909155602f80549091169055341561004b57600080fd5b6125f48061005a6000396000f3006060604052600436106101955763ffffffff7c010000000000000000000000000000000000000000000000000000000060003504166302a3036d8114610197578063069489a2146101bc57806310b787d1146101cf57806325172c4a146101e5578063251fbe371461026c5780632e2a6488146102b8578063336664b5146102cb578063341c2932146102e457806339d51cc01461030a5780633dc37539146103375780633f45c37314610359578063515ced531461043f5780635bf72bb1146104525780635cd27e8d146104795780635e8153201461049b578063612032651461067d57806366b7afbf146106ac5780636a2e2076146106bf5780636bc32c7b146106d55780636d48ae25146106e85780637053fe8d146106fb578063764c499b1461070e5780637e1db5161461072157806389128b701461073457806392e43b5214610747578063957b16221461082d57806399b47af814610843578063a7f8fbd414610856578063a8f5660014610869578063c158a0b21461087c578063c78974de14610895578063ebaa32f3146108a8575b005b34156101a257600080fd5b6101aa6108bb565b60405190815260200160405180910390f35b34156101c757600080fd5b6101956108c1565b34156101da57600080fd5b61019560043561096e565b34156101f057600080fd5b6101aa600480359060446024803590810190830135806020818102016040519081016040528181529291906000602085015b8282101561025e576060808302860190600390604051908101604052919082826060808284375050509183525050600190910190602001610222565b505050505091905050610b06565b341561027757600080fd5b61027f610f67565b604051808261010080838360005b838110156102a557808201518382015260200161028d565b5050505090500191505060405180910390f35b34156102c357600080fd5b6101aa610fa7565b34156102d657600080fd5b6101aa600435602435610fad565b34156102ef57600080fd5b610195600461014435600160a060020a036101643516610fdf565b341561031557600080fd5b61031d611046565b60405180826040808383600081518382015260200161028d565b341561034257600080fd5b610195602460048035828101929101359035611081565b341561036457600080fd5b6101aa60048035600160a060020a0316906024803591604435916084906064359081019083013580602080820201604051908101604052809392919081815260200183836020028082843782019150505050505091908035906020019082018035906020019080806020026020016040519081016040528093929190818152602001838360200280828437820191505050505050919080359060200190820180359060200190808060200260200160405190810160405280939291908181526020018383602002808284375094965061117f95505050505050565b341561044a57600080fd5b6101aa611366565b341561045d57600080fd5b61046561136c565b604051901515815260200160405180910390f35b341561048457600080fd5b610195602460048035828101929101359035611375565b34156104a657600080fd5b61062a6004602481358181019083013580602081810201604051908101604052809392919081815260200183836020028082843782019150505050505091908035906020019082018035906020019080806020026020016040519081016040528093929190818152602001838360200280828437820191505050505050919080359060200190820180359060200190808060200260200160405190810160405280939291908181526020018383602002808284378201915050505050509190803590602001908201803590602001908080602002602001604051908101604052809392919081815260200183836020028082843782019150505050505091908035906020019082018035906020019080806020026020016040519081016040528093929190818152602001838360200280828437820191505050505050919080359060200190820180359060200190808060200260200160405190810160405280939291908181526020018383602002808284375094965061145895505050505050565b60405160208082528190810183818151815260200191508051906020019060200280838360005b83811015610669578082015183820152602001610651565b505050509050019250505060405180910390f35b341561068857600080fd5b61069061167b565b604051600160a060020a03909116815260200160405180910390f35b34156106b757600080fd5b6101aa61168a565b34156106ca57600080fd5b6101aa600435611690565b34156106e057600080fd5b6101aa6116a4565b34156106f357600080fd5b6101aa6116aa565b341561070657600080fd5b6101956116b0565b341561071957600080fd5b6104656118fa565b341561072c57600080fd5b6101aa611903565b341561073f57600080fd5b6101aa611909565b341561075257600080fd5b61019560048035600160a060020a0316906024803591604435916084906064359081019083013580602080820201604051908101604052809392919081815260200183836020028082843782019150505050505091908035906020019082018035906020019080806020026020016040519081016040528093929190818152602001838360200280828437820191505050505050919080359060200190820180359060200190808060200260200160405190810160405280939291908181526020018383602002808284375094965061190f95505050505050565b341561083857600080fd5b6101aa600435611a67565b341561084e57600080fd5b6101aa611a74565b341561086157600080fd5b610195611a7a565b341561087457600080fd5b6101aa611adc565b341561088757600080fd5b6101aa600435602435611ae2565b34156108a057600080fd5b6101aa611af0565b34156108b357600080fd5b6101aa611af6565b601f5481565b6108c961232c565b602f5460009060ff16156108d957fe5b6021546001146108e557fe5b601f5460140143111580156108fb5750601f5443115b1561096257600a60405180591061090f5750595b90808252806020026020018201604052509150600090505b600a81101561094f578082828151811061093d57fe5b60209081029091010152600101610927565b61095882611afc565b600260215561096a565b61096a611a7a565b5050565b602f5460009060ff161561097e57fe5b60215460031461098a57fe5b601d54601c54602054010143101561099e57fe5b601e54601d54601c5460205401010143106109b557fe5b5060045460009060ff16151560011415610a5457610a4d82601a80548060200260200160405190810160405281815291906000602084015b82821015610a44578382906000526020600020906003020160038060200260405190810160405291906060830182845b815481526020019060010190808311610a1d575050505050815260200190600101906109ed565b50505050610b06565b9050610ad2565b610acf82601980548060200260200160405190810160405281815291906000602084015b82821015610a44578382906000526020600020906003020160038060200260405190810160405291906060830182845b815481526020019060010190808311610aa857505050505081526020019060010190610a78565b90505b600254811315610ae757600182905560028190555b60025481141561096a5760015482101561096a57600191909155600255565b6000610b1061233e565b6000806000610b1d61232c565b610b2561232c565b602f5460009081908190819060ff1615610b3b57fe5b602154600314610b4757fe5b602e80548e908110610b5557fe5b906000526020600020906006020160c060405190810160405290816000820160009054906101000a9004600160a060020a0316600160a060020a0316600160a060020a03168152602001600182015481526020016002820154815260200160038201805480602002602001604051908101604052809291908181526020018280548015610c0157602002820191906000526020600020905b815481526020019060010190808311610bed575b5050505050815260200160048201805480602002602001604051908101604052809291908181526020018280548015610c5957602002820191906000526020600020905b815481526020019060010190808311610c45575b5050505050815260200160058201805480602002602001604051908101604052809291908181526020018280548015610cb157602002820191906000526020600020905b815481526020019060010190808311610c9d575b50505050508152505099506000985060009750896040015160021415610d2457600196508960400151604051805910610ce75750595b908082528060200260200182016040525095508960400151604051805910610d0c5750595b90808252806020026020018201604052509450610d6d565b600096506001604051805910610d375750595b908082528060200260200182016040525095506001604051805910610d595750595b908082528060200260200182016040525094505b600093505b8b51841015610f4457600292505b8b8481518110610d8c57fe5b90602001906020020151506003831015610ebe576001198301915086151560011415610e76578b8481518110610dbe57fe5b906020019060200201518360038110610dd357fe5b60200201511515610e16576001858381518110610dec57fe5b602090810290910101526000856001840181518110610e0757fe5b60209081029091010152610e71565b8b8481518110610e2257fe5b906020019060200201518360038110610e3757fe5b602002015160011415610e6c576000858381518110610e5257fe5b6020908102909101015260018583820181518110610e0757fe5b600080fd5b610eb3565b8b8481518110610e8257fe5b906020019060200201518360038110610e9757fe5b6020020151858381518110610ea857fe5b602090810290910101525b600190920191610d80565b610edd8a8d8681518110610ece57fe5b90602001906020020151611c1b565b9550600090505b8451811015610f3957858181518110610ef957fe5b90602001906020020151858281518110610f0f57fe5b906020019060200201511415610f2a57600189019850610f31565b6001880197505b600101610ee4565b600190930192610d72565b8789016127108a02811515610f5557fe5b059d9c50505050505050505050505050565b610f6f61238f565b602260086101006040519081016040529190610100830182845b815481526020019060010190808311610f8957505050505090505b90565b601e5481565b601a805483908110610fbb57fe5b906000526020600020906003020181600381101515610fd657fe5b01549150829050565b602f5460ff1615610fec57fe5b60215415610ff657fe5b6000805473ffffffffffffffffffffffffffffffffffffffff1916600160a060020a038316179055600160215543601f55611034600584600a6123b7565b506000821361103f57fe5b5060035550565b61104e6123f7565b602a6002604080519081016040908152835482529092919083016001830160208501808311610f89575050505050905090565b602f5460ff161561108e57fe5b60215460031461109a57fe5b601c54602054014310156110aa57fe5b601d54601c54602054010143106110bd57fe5b600160036005840404146110cd57fe5b6005602a602d546002811015156110e057fe5b0154600a81106110ec57fe5b0154611125848480602080820201604051908101604052809392919081815260200183836020028082843750889450611cfa9350505050565b1461112c57fe5b602d8054600101905561116d83838060208082020160405190810160405280939291908181526020018383602002808284375060009450611e019350505050565b50506004805460ff1916600117905550565b6000808080805b602e54841015610e6c578a600160a060020a0316602e858154811015156111a957fe5b6000918252602090912060069091020154600160a060020a0316146111cd5761134d565b89602e858154811015156111dd57fe5b9060005260206000209060060201600101541415156111fb5761134d565b88602e8581548110151561120b57fe5b9060005260206000209060060201600201541415156112295761134d565b600092505b87518310156112895787838151811061124357fe5b90602001906020020151602e80548690811061125b57fe5b90600052602060002090600602016003018481548110151561127957fe5b506000525060019092019161122e565b600091505b86518210156112e9578682815181106112a357fe5b90602001906020020151602e8054869081106112bb57fe5b9060005260206000209060060201600401838154811015156112d957fe5b506000525060019091019061128e565b5060005b85518110156113455785818151811061130257fe5b90602001906020020151602e80548690811061131a57fe5b90600052602060002090600602016005018281548110151561133857fe5b50600052506001016112ed565b839450611358565b600190930192611186565b505050509695505050505050565b60015481565b60045460ff1681565b602f5460ff161561138257fe5b60215460021461138e57fe5b6001600360058404041461139e57fe5b60056022602c546008811015156113b157fe5b0154600a81106113bd57fe5b01546113f6848480602080820201604051908101604052809392919081815260200183836020028082843750889450611cfa9350505050565b146113fd57fe5b602c8054600101905561143e83838060208082020160405190810160405280939291908181526020018383602002808284375060019450611e019350505050565b602c5460081415611453576003602155436020555b505050565b61146061232c565b61146861232c565b600061147261232c565b61147a61232c565b6000806000600260405180591061148e5750595b90808252806020026020018201604052509650600095505b60018e5103861015611669578b511561151c578515156114d5576114cb8c8f88611fb7565b94508c9350611517565b60028e51038614156114f9578a94506114f28c8f60018903611fb7565b9350611517565b6115048c8f88611fb7565b94506115148c8f60018903611fb7565b93505b611523565b8a94508c93505b600092505b845183101561165e575060009050805b83518110156115ae57898760008151811061154f57fe5b906020019060200201518151811061156357fe5b9060200190602002015184828151811061157957fe5b9060200190602002015102820191508660008151811061159557fe5b9060200190602002018051600190810190915201611538565b8886815181106115ba57fe5b906020019060200201516127109201919091059060028e51038614156115fe576115e3826120d4565b8b84815181106115ef57fe5b60209081029091010152611634565b611607826120d4565b8c8860018151811061161557fe5b906020019060200201518151811061162957fe5b602090810290910101525b8660018151811061164157fe5b906020019060200201805160019081019091529290920191611528565b6001909501946114a6565b50989c9b505050505050505050505050565b600054600160a060020a031681565b60215481565b602a816002811061169d57fe5b0154905081565b60195490565b60025481565b6116b861233e565b602f5460ff16156116c557fe5b6021546003146116d157fe5b601e54601d54601c546020540101014310156116e957fe5b602e6001548154811015156116fa57fe5b906000526020600020906006020160c060405190810160405290816000820160009054906101000a9004600160a060020a0316600160a060020a0316600160a060020a031681526020016001820154815260200160028201548152602001600382018054806020026020016040519081016040528092919081815260200182805480156117a657602002820191906000526020600020905b815481526020019060010190808311611792575b50505050508152602001600482018054806020026020016040519081016040528092919081815260200182805480156117fe57602002820191906000526020600020905b8154815260200190600101908083116117ea575b505050505081526020016005820180548060200260200160405190810160405280929190818152602001828054801561185657602002820191906000526020600020905b815481526020019060010190808311611842575b50505050508152505090506003546002541215156118b1578051600160a060020a03166108fc30600160a060020a0316319081150290604051600060405180830381858888f1935050505015156118ac57600080fd5b6118ea565b600054600160a060020a039081169030163180156108fc0290604051600060405180830381858888f1935050505015156118ea57600080fd5b50602f805460ff19166001179055565b602f5460ff1681565b60205481565b602e5490565b602f5460ff161561191c57fe5b60215460031461192857fe5b601c5460205401431061193757fe5b6002851461194157fe5b60018414806119505750600284145b151561195857fe5b611964828686866120ee565b151561196c57fe5b602e80546001810161197e8382612410565b9160005260206000209060060201600060c0604051908101604052808a600160a060020a031681526020018981526020018881526020018781526020018681526020018581525090919091506000820151815473ffffffffffffffffffffffffffffffffffffffff1916600160a060020a03919091161781556020820151816001015560408201518160020155606082015181600301908051611a2592916020019061243c565b50608082015181600401908051611a4092916020019061243c565b5060a082015181600501908051611a5b92916020019061243c565b50505050505050505050565b6022816008811061169d57fe5b601d5481565b602f5460ff1615611a8757fe5b60215460039010611a9457fe5b600054600160a060020a039081169030163180156108fc0290604051600060405180830381858888f193505050501515611acd57600080fd5b602f805460ff19166001179055565b60035481565b6019805483908110610fbb57fe5b601a5490565b601c5481565b600080808084519250600091505b6008841015611bcb57826002834303406000604051602001526040519081526020908101906040518083038160008661646e5a03f11515611b4a57600080fd5b505060405180519050811515611b5c57fe5b069050848181518110611b6b57fe5b9060200190602002015160228560088110611b8257fe5b015584600019840181518110611b9457fe5b90602001906020020151858281518110611baa57fe5b60209081029091010152600193840193600019909301929190910190611b0a565b600093505b6002841015611c1457846001840381518110611be857fe5b90602001906020020151602a8560028110611bff57fe5b01556001939093019260001990920191611bd0565b5050505050565b611c2361232c565b611c2b61232c565b6000846060015151600201604051805910611c435750595b818152602091820281018201604052925085015182600081518110611c6457fe5b602090810290910101525060005b846060015151811015611cba5784606001518181518110611c8f57fe5b90602001906020020151828260010181518110611ca857fe5b60209081029091010152600101611c72565b84604001518286606001515160010181518110611cd357fe5b60209081029091010152611cf18460808701518760a00151856121b3565b95945050505050565b6000806000611d0761232c565b60009250600f9150826010604051805910611d1f5750595b90808252806020026020018201604052509150600090505b82811015611d7757868181518110611d4b57fe5b90602001906020020151828581518110611d6157fe5b6020908102909101015260019384019301611d37565b85828581518110611d8457fe5b6020908102909101015260028260006040516020015260405180828051906020019060200280838360005b83811015611dc7578082015183820152602001611daf565b5050505090500191505060206040518083038160008661646e5a03f11515611dee57600080fd5b5050604051805198975050505050505050565b611e0961232c565b60008060008060038751811515611e1c57fe5b04604051805910611e2a5750595b908082528060200260200182016040528015611e6057816020015b611e4d612477565b815260200190600190039081611e455790505b509450600093505b60038751811515611e7557fe5b04841015611ee257600092505b6003831015611ed7578683600386020181518110611e9c57fe5b90602001906020020151858581518110611eb257fe5b906020019060200201518460038110611ec757fe5b6020020152600190920191611e82565b600190930192611e68565b60018615151415611f5257600091505b8451821015611f4d576019805460018101611f0d8382612491565b91600052602060002090600302016000878581518110611f2957fe5b90602001906020020151611f4092915060036124bd565b5050600190910190611ef2565b611fae565b5060005b8451811015611fae57601a805460018101611f718382612491565b91600052602060002090600302016000878481518110611f8d57fe5b90602001906020020151611fa492915060036124bd565b5050600101611f56565b50505050505050565b611fbf61232c565b611fc761232c565b600080600080600080898960010181518110611fdf57fe5b90602001906020020151604051805910611ff65750595b90808252806020026020018201604052509650600095506000945060009350600092505b8883101561204a5789836001018151811061203157fe5b906020019060200201519094019360019092019161201a565b600091505b886001018210156120825789826001018151811061206957fe5b906020019060200201519093019260019091019061204f565b50835b838110156120c5578a818151811061209957fe5b906020019060200201518787815181106120af57fe5b6020908102909101015260019586019501612085565b50949998505050505050505050565b6000808212156120e6575060006120e9565b50805b919050565b60008080808085516002019150816002141561210e5786880293506121a1565b5060005b8551811015612180578015156121435785818151811061212e57fe5b90602001906020020151880284019350612178565b85818151811061214f57fe5b9060200190602002015186600183038151811061216857fe5b9060200190602002015102840193505b600101612112565b868660018851038151811061219157fe5b9060200190602002015102840193505b88519390931498975050505050505050565b6121bb61232c565b6121c361232c565b6121cb61232c565b6121d361232c565b60006121f4866000815181106121e557fe5b90602001906020020151612283565b93506121ff866122b8565b9250612214866001885103815181106121e557fe5b9150600090505b8560008151811061222857fe5b906020019060200201518110156122685788816003811061224557fe5b602002015184828151811061225657fe5b6020908102909101015260010161221b565b612276868585858c8c611458565b9998505050505050505050565b61228b61232c565b61229361232c565b826040518059106122a15750595b818152602091820281019091016040529392505050565b6122c061232c565b6000806122cb61232c565b60009250600191505b6001855103821015612305578482815181106122ec57fe5b90602001906020020151909201916001909101906122d4565b826040518059106123135750595b8181526020918202810190910160405295945050505050565b60206040519081016040526000815290565b60c0604051908101604052806000600160a060020a03168152602001600081526020016000815260200161237061232c565b815260200161237d61232c565b815260200161238a61232c565b905290565b6101006040519081016040526008815b600081526020019060019003908161239f5790505090565b82600a81019282156123e7579160200282015b828111156123e757823582556020909201916001909101906123ca565b506123f39291506124ea565b5090565b604080519081016040526000815260016020820161239f565b815481835581811511611453576006028160060283600052602060002091820191016114539190612504565b8280548282559060005260206000209081019282156123e7579160200282015b828111156123e757825182559160200191906001019061245c565b60606040519081016040526000815260026020820161239f565b81548183558181151161145357600302816003028360005260206000209182019101611453919061256f565b82600381019282156123e757916020028201828111156123e757825182559160200191906001019061245c565b610fa491905b808211156123f357600081556001016124f0565b610fa491905b808211156123f357805473ffffffffffffffffffffffffffffffffffffffff191681556000600182018190556002820181905561254a6003830182612592565b612558600483016000612592565b612566600583016000612592565b5060060161250a565b610fa491905b808211156123f357600061258982826125b3565b50600301612575565b50805460008255906000526020600020908101906125b091906124ea565b50565b506000815560010160008155600101600090555600a165627a7a7230582088fe7d291c0a183d78e1625b0f06b25231ca510b6b0a3f3a4059c1d40696b7070029",
  "bytecodeSha1": "17dab7dfed45b90b50386cdc8bf8c7c927fab9ee",
  "compiler": {
    "optimize": true,
    "runs": 200,
    "version": "Version: 0.4.19+commit.c4cbbb05.Linux.g++"
  },
  "contractName": "Danku",
  "coverageMapTotals": {
    "Danku.Danku": 1,
    "Danku.best_submission_accuracy": 1,
    "Danku.best_submission_index": 1,
    "Danku.cancel_contract": 5,
    "Danku.contract_terminated": 1,
    "Danku.evaluate_model": 26,
    "Danku.evaluation_stage_block_size": 1,
    "Danku.get_submission_id": 19,
    "Danku.get_submission_queue_length": 1,
    "Danku.get_testing_index": 4,
    "Danku.get_training_index": 3,
    "Danku.init1_block_height": 2,
    "Danku.init2": 16,
    "Danku.init3": 10,
    "Danku.init3_block_height": 1,
    "Danku.init_level": 1,
    "Danku.model_accuracy_criteria": 1,
    "Danku.reveal_test_data": 9,
    "Danku.reveal_test_data_groups_block_size": 1,
    "Danku.submission_stage_block_size": 1,
    "Danku.submit_model": 9,
    "Danku.test_data": 2,
    "Danku.testing_partition": 1,
    "Danku.train_data": 1,
    "Danku.training_partition": 1,
    "Danku.use_test_data": 2,
    "total": 121
  },
  "opcodes": "PUSH1 0x60 PUSH1 0x40 MSTORE PUSH1 0x4 CALLDATASIZE LT PUSH2 0x195 JUMPI PUSH4 0xFFFFFFFF PUSH29 0x100000000000000000000000000000000000000000000000000000000 PUSH1 0x0 CALLDATALOAD DIV AND PUSH4 0x2A3036D DUP2 EQ PUSH2 0x197 JUMPI DUP1 PUSH4 0x69489A2 EQ PUSH2 0x1BC JUMPI DUP1 PUSH4 0x10B787D1 EQ PUSH2 0x1CF JUMPI DUP1 PUSH4 0x25172C4A EQ PUSH2 0x1E5 JUMPI DUP1 PUSH4 0x251FBE37 EQ PUSH2 0x26C JUMPI DUP1 PUSH4 0x2E2A6488 EQ PUSH2 0x2B8 JUMPI DUP1 PUSH4 0x336664B5 EQ PUSH2 0x2CB JUMPI DUP1 PUSH4 0x341C2932 EQ PUSH2 0x2E4 JUMPI DUP1 PUSH4 0x39D51CC0 EQ PUSH2 0x30A JUMPI DUP1 PUSH4 0x3DC37539 EQ PUSH2 0x337 JUMPI DUP1 PUSH4 0x3F45C373 EQ PUSH2 0x359 JUMPI DUP1 PUSH4 0x515CED53 EQ PUSH2 0x43F JUMPI DUP1 PUSH4 0x5BF72BB1 EQ PUSH2 0x452 JUMPI DUP1 PUSH4 0x5CD27E8D EQ PUSH2 0x479 JUMPI DUP1 PUSH4 0x5E815320 EQ PUSH2 0x49B JUMPI DUP1 PUSH4 0x61203265 EQ PUSH2 0x67D JUMPI DUP1 PUSH4 0x66B7AFBF EQ PUSH2 0x6AC JUMPI DUP1 PUSH4 0x6A2E2076 EQ PUSH2 0x6BF JUMPI DUP1 PUSH4 0x6BC32C7B EQ PUSH2 0x6D5 JUMPI DUP1 PUSH4 0x6D48AE25 EQ PUSH2 0x6E8 JUMPI DUP1 PUSH4 0x7053FE8D EQ PUSH2 0x6FB JUMPI DUP1 PUSH4 0x764C499B EQ PUSH2 0x70E JUMPI DUP1 PUSH4 0x7E1DB516 EQ PUSH2 0x721 JUMPI DUP1 PUSH4 0x89128B70 EQ PUSH2 0x734 JUMPI DUP1 PUSH4 0x92E43B52 EQ PUSH2 0x747 JUMPI DUP1 PUSH4 0x957B1622 EQ PUSH2 0x82D JUMPI DUP1 PUSH4 0x99B47AF8 EQ PUSH2 0x843 JUMPI DUP1 PUSH4 0xA7F8FBD4 EQ PUSH2 0x856 JUMPI DUP1 PUSH4 0xA8F56600 EQ PUSH2 0x869 JUMPI DUP1 PUSH4 0xC158A0B2 EQ PUSH2 0x87C JUMPI DUP1 PUSH4 0xC78974DE EQ PUSH2 0x895 JUMPI DUP1 PUSH4 0xEBAA32F3 EQ PUSH2 0x8A8 JUMPI JUMPDEST STOP JUMPDEST CALLVALUE ISZERO PUSH2 0x1A2 JUMPI PUSH1 0x0 DUP1 REVERT JUMPDEST PUSH2 0x1AA PUSH2 0x8BB JUMP JUMPDEST PUSH1 0x40 MLOAD SWAP1 DUP2 MSTORE PUSH1 0x20 ADD PUSH1 0x40 MLOAD DUP1 SWAP2 SUB SWAP1 RETURN JUMPDEST CALLVALUE ISZERO PUSH2 0x1C7 JUMPI PUSH1 0x0 DUP1 REVERT JUMPDEST PUSH2 0x195 PUSH2 0x8C1 JUMP JUMPDEST CALLVALUE ISZERO PUSH2 0x1DA JUMPI PUSH1 0x0 DUP1 REVERT JUMPDEST PUSH2 0x195 PUSH1 0x4 CALLDATALOAD PUSH2 0x96E JUMP JUMPDEST CALLVALUE ISZERO PUSH2 0x1F0 JUMPI PUSH1 0x0 DUP1 REVERT JUMPDEST PUSH2 0x1AA PUSH1 0x4 DUP1 CALLDATALOAD SWAP1 PUSH1 0x44 PUSH1 0x24 DUP1 CALLDATALOAD SWAP1 DUP2 ADD SWAP1 DUP4 ADD CALLDATALOAD DUP1 PUSH1 0x20 DUP2 DUP2 MUL ADD PUSH1 0x40 MLOAD SWAP1 DUP2 ADD PUSH1 0x40 MSTORE DUP2 DUP2 MSTORE SWAP3 SWAP2 SWAP1 PUSH1 0x0 PUSH1 0x20 DUP6 ADD JUMPDEST DUP3 DUP3 LT ISZERO PUSH2 0x25E JUMPI PUSH1 0x60 DUP1 DUP4 MUL DUP7 ADD SWAP1 PUSH1 0x3 SWAP1 PUSH1 0x40 MLOAD SWAP1 DUP2 ADD PUSH1 0x40 MSTORE SWAP2 SWAP1 DUP3 DUP3 PUSH1 0x60 DUP1 DUP3 DUP5 CALLDATACOPY POP POP POP SWAP2 DUP4 MSTORE POP POP PUSH1 0x1 SWAP1 SWAP2 ADD SWAP1 PUSH1 0x20 ADD PUSH2 0x222 JUMP JUMPDEST POP POP POP POP POP SWAP2 SWAP1 POP POP PUSH2 0xB06 JUMP JUMPDEST CALLVALUE ISZERO PUSH2 0x277 JUMPI PUSH1 0x0 DUP1 REVERT JUMPDEST PUSH2 0x27F PUSH2 0xF67 JUMP JUMPDEST PUSH1 0x40 MLOAD DUP1 DUP3 PUSH2 0x100 DUP1 DUP4 DUP4 PUSH1 0x0 JUMPDEST DUP4 DUP2 LT ISZERO PUSH2 0x2A5 JUMPI DUP1 DUP3 ADD MLOAD DUP4 DUP3 ADD MSTORE PUSH1 0x20 ADD PUSH2 0x28D JUMP JUMPDEST POP POP POP POP SWAP1 POP ADD SWAP2 POP POP PUSH1 0x40 MLOAD DUP1 SWAP2 SUB SWAP1 RETURN JUMPDEST CALLVALUE ISZERO PUSH2 0x2C3 JUMPI PUSH1 0x0 DUP1 REVERT JUMPDEST PUSH2 0x1AA PUSH2 0xFA7 JUMP JUMPDEST CALLVALUE ISZERO PUSH2 0x2D6 JUMPI PUSH1 0x0 DUP1 REVERT JUMPDEST PUSH2 0x1AA PUSH1 0x4 CALLDATALOAD PUSH1 0x24 CALLDATALOAD PUSH2 0xFAD JUMP JUMPDEST CALLVALUE ISZERO PUSH2 0x2EF JUMPI PUSH1 0x0 DUP1 REVERT JUMPDEST PUSH2 0x195 PUSH1 0x4 PUSH2 0x144 CALLDATALOAD PUSH1 0x1 PUSH1 0xA0 PUSH1 0x2 EXP SUB PUSH2 0x164 CALLDATALOAD AND PUSH2 0xFDF JUMP JUMPDEST CALLVALUE ISZERO PUSH2 0x315 JUMPI PUSH1 0x0 DUP1 REVERT JUMPDEST PUSH2 0x31D PUSH2 0x1046 JUMP JUMPDEST PUSH1 0x40 MLOAD DUP1 DUP3 PUSH1 0x40 DUP1 DUP4 DUP4 PUSH1 0x0 DUP2 MLOAD DUP4 DUP3 ADD MSTORE PUSH1 0x20 ADD PUSH2 0x28D JUMP JUMPDEST CALLVALUE ISZERO PUSH2 0x342 JUMPI PUSH1 0x0 DUP1 REVERT JUMPDEST PUSH2 0x195 PUSH1 0x24 PUSH1 0x4 DUP1 CALLDATALOAD DUP3 DUP2 ADD SWAP3 SWAP2 ADD CALLDATALOAD SWAP1 CALLDATALOAD PUSH2 0x1081 JUMP JUMPDEST CALLVALUE ISZERO PUSH2 0x364 JUMPI PUSH1 0x0 DUP1 REVERT JUMPDEST PUSH2 0x1AA PUSH1 0x4 DUP1 CALLDATALOAD PUSH1 0x1 PUSH1 0xA0 PUSH1 0x2 EXP SUB AND SWAP1 PUSH1 0x24 DUP1 CALLDATALOAD SWAP2 PUSH1 0x44 CALLDATALOAD SWAP2 PUSH1 0x84 SWAP1 PUSH1 0x64 CALLDATALOAD SWAP1 DUP2 ADD SWAP1 DUP4 ADD CALLDATALOAD DUP1 PUSH1 0x20 DUP1 DUP3 MUL ADD PUSH1 0x40 MLOAD SWAP1 DUP2 ADD PUSH1 0x40 MSTORE DUP1 SWAP4 SWAP3 SWAP2 SWAP1 DUP2 DUP2 MSTORE PUSH1 0x20 ADD DUP4 DUP4 PUSH1 0x20 MUL DUP1 DUP3 DUP5 CALLDATACOPY DUP3 ADD SWAP2 POP POP POP POP POP POP SWAP2 SWAP1 DUP1 CALLDATALOAD SWAP1 PUSH1 0x20 ADD SWAP1 DUP3 ADD DUP1 CALLDATALOAD SWAP1 PUSH1 0x20 ADD SWAP1 DUP1 DUP1 PUSH1 0x20 MUL PUSH1 0x20 ADD PUSH1 0x40 MLOAD SWAP1 DUP2 ADD PUSH1 0x40 MSTORE DUP1 SWAP4 SWAP3 SWAP2 SWAP1 DUP2 DUP2 MSTORE PUSH1 0x20 ADD DUP4 DUP4 PUSH1 0x20 MUL DUP1 DUP3 DUP5 CALLDATACOPY DUP3 ADD SWAP2 POP POP POP POP POP POP SWAP2 SWAP1 DUP1 CALLDATALOAD SWAP1 PUSH1 0x20 ADD SWAP1 DUP3 ADD DUP1 CALLDATALOAD SWAP1 PUSH1 0x20 ADD SWAP1 DUP1 DUP1 PUSH1 0x20 MUL PUSH1 0x20 ADD PUSH1 0x40 MLOAD SWAP1 DUP2 ADD PUSH1 0x40 MSTORE DUP1 SWAP4 SWAP3 SWAP2 SWAP1 DUP2 DUP2 MSTORE PUSH1 0x20 ADD DUP4 DUP4 PUSH1 0x20 MUL DUP1 DUP3 DUP5 CALLDATACOPY POP SWAP5 SWAP7 POP PUSH2 0x117F SWAP6 POP POP POP POP POP POP JUMP JUMPDEST CALLVALUE ISZERO PUSH2 0x44A JUMPI PUSH1 0x0 DUP1 REVERT JUMPDEST PUSH2 0x1AA PUSH2 0x1366 JUMP JUMPDEST CALLVALUE ISZERO PUSH2 0x45D JUMPI PUSH1 0x0 DUP1 REVERT JUMPDEST PUSH2 0x465 PUSH2 0x136C JUMP JUMPDEST PUSH1 0x40 MLOAD SWAP1 ISZERO ISZERO DUP2 MSTORE PUSH1 0x20 ADD PUSH1 0x40 MLOAD DUP1 SWAP2 SUB SWAP1 RETURN JUMPDEST CALLVALUE ISZERO PUSH2 0x484 JUMPI PUSH1 0x0 DUP1 REVERT JUMPDEST PUSH2 0x195 PUSH1 0x24 PUSH1 0x4 DUP1 CALLDATALOAD DUP3 DUP2 ADD SWAP3 SWAP2 ADD CALLDATALOAD SWAP1 CALLDATALOAD PUSH2 0x1375 JUMP JUMPDEST CALLVALUE ISZERO PUSH2 0x4A6 JUMPI PUSH1 0x0 DUP1 REVERT JUMPDEST PUSH2 0x62A PUSH1 0x4 PUSH1 0x24 DUP2 CALLDATALOAD DUP2 DUP2 ADD SWAP1 DUP4 ADD CALLDATALOAD DUP1 PUSH1 0x20 DUP2 DUP2 MUL ADD PUSH1 0x40 MLOAD SWAP1 DUP2 ADD PUSH1 0x40 MSTORE DUP1 SWAP4 SWAP3 SWAP2 SWAP1 DUP2 DUP2 MSTORE PUSH1 0x20 ADD DUP4 DUP4 PUSH1 0x20 MUL DUP1 DUP3 DUP5 CALLDATACOPY DUP3 ADD SWAP2 POP POP POP POP POP POP SWAP2 SWAP1 DUP1 CALLDATALOAD SWAP1 PUSH1 0x20 ADD SWAP1 DUP3 ADD DUP1 CALLDATALOAD SWAP1 PUSH1 0x20 ADD SWAP1 DUP1 DUP1 PUSH1 0x20 MUL PUSH1 0x20 ADD PUSH1 0x40 MLOAD SWAP1 DUP2 ADD PUSH1 0x40 MSTORE DUP1 SWAP4 SWAP3 SWAP2 SWAP1 DUP2 DUP2 MSTORE PUSH1 0x20 ADD DUP4 DUP4 PUSH1 0x20 MUL DUP1 DUP3 DUP5 CALLDATACOPY DUP3 ADD SWAP2 POP POP POP POP POP POP SWAP2 SWAP1 DUP1 CALLDATALOAD SWAP1 PUSH1 0x20 ADD SWAP1 DUP3 ADD DUP1 CALLDATALOAD SWAP1 PUSH1 0x20 ADD SWAP1 DUP1 DUP1 PUSH1 0x20 MUL PUSH1 0x20 ADD PUSH1 0x40 MLOAD SWAP1 DUP2 ADD PUSH1 0x40 MSTORE DUP1 SWAP4 SWAP3 SWAP2 SWAP1 DUP2 DUP2 MSTORE PUSH1 0x20 ADD DUP4 DUP4 PUSH1 0x20 MUL DUP1 DUP3 DUP5 CALLDATACOPY DUP3 ADD SWAP2 POP POP POP POP POP POP SWAP2 SWAP1 DUP1 CALLDATALOAD SWAP1 PUSH1 0x20 ADD SWAP1 DUP3 ADD DUP1 CALLDATALOAD SWAP1 PUSH1 0x20 ADD SWAP1 DUP1 DUP1 PUSH1 0x20 MUL PUSH1 0x20 ADD PUSH1 0x40 MLOAD SWAP1 DUP2 ADD PUSH1 0x40 MSTORE DUP1 SWAP4 SWAP3 SWAP2 SWAP1 DUP2 DUP2 MSTORE PUSH1 0x20 ADD DUP4 DUP4 PUSH1 0x20 MUL DUP1 DUP3 DUP5 CALLDATACOPY DUP3 ADD SWAP2 POP POP POP POP POP POP SWAP2 SWAP1 DUP1 CALLDATALOAD SWAP1 PUSH1 0x20 ADD SWAP1 DUP3 ADD DUP1 CALLDATALOAD SWAP1 PUSH1 0x20 ADD SWAP1 DUP1 DUP1 PUSH1 0x20 MUL PUSH1 0x20 ADD PUSH1 0x40 MLOAD SWAP1 DUP2 ADD PUSH1 0x40 MSTORE DUP1 SWAP4 SWAP3 SWAP2 SWAP1 DUP2 DUP2 MSTORE PUSH1 0x20 ADD DUP4 DUP4 PUSH1 0x20 MUL DUP1 DUP3 DUP5 CALLDATACOPY DUP3 ADD SWAP2 POP POP POP POP POP POP SWAP2 SWAP1 DUP1 CALLDATALOAD SWAP1 PUSH1 0x20 ADD SWAP1 DUP3 ADD DUP1 CALLDATALOAD SWAP1 PUSH1 0x20 ADD SWAP1 DUP1 DUP1 PUSH1 0x20 MUL PUSH1 0x20 ADD PUSH1 0x40 MLOAD SWAP1 DUP2 ADD PUSH1 0x40 MSTORE DUP1 SWAP4 SWAP3 SWAP2 SWAP1 DUP2 DUP2 MSTORE PUSH1 0x20 ADD DUP4 DUP4 PUSH1 0x20 MUL DUP1 DUP3 DUP5 CALLDATACOPY POP SWAP5 SWAP7 POP PUSH2 0x1458 SWAP6 POP POP POP POP POP POP JUMP JUMPDEST PUSH1 0x40 MLOAD PUSH1 0x20 DUP1 DUP3 MSTORE DUP2 SWAP1 DUP2 ADD DUP4 DUP2 DUP2 MLOAD DUP2 MSTORE PUSH1 0x20 ADD SWAP2 POP DUP1 MLOAD SWAP1 PUSH1 0x20 ADD SWAP1 PUSH1 0x20 MUL DUP1 DUP4 DUP4 PUSH1 0x0 JUMPDEST DUP4 DUP2 LT ISZERO PUSH2 0x669 JUMPI DUP1 DUP3 ADD MLOAD DUP4 DUP3 ADD MSTORE PUSH1 0x20 ADD PUSH2 0x651 JUMP JUMPDEST POP POP POP POP SWAP1 POP ADD SWAP3 POP POP POP PUSH1 0x40 MLOAD DUP1 SWAP2 SUB SWAP1 RETURN JUMPDEST CALLVALUE ISZERO PUSH2 0x688 JUMPI PUSH1 0x0 DUP1 REVERT JUMPDEST PUSH2 0x690 PUSH2 0x167B JUMP JUMPDEST PUSH1 0x40 MLOAD PUSH1 0x1 PUSH1 0xA0 PUSH1 0x2 EXP SUB SWAP1 SWAP2 AND DUP2 MSTORE PUSH1 0x20 ADD PUSH1 0x40 MLOAD DUP1 SWAP2 SUB SWAP1 RETURN JUMPDEST CALLVALUE ISZERO PUSH2 0x6B7 JUMPI PUSH1 0x0 DUP1 REVERT JUMPDEST PUSH2 0x1AA PUSH2 0x168A JUMP JUMPDEST CALLVALUE ISZERO PUSH2 0x6CA JUMPI PUSH1 0x0 DUP1 REVERT JUMPDEST PUSH2 0x1AA PUSH1 0x4 CALLDATALOAD PUSH2 0x1690 JUMP JUMPDEST CALLVALUE ISZERO PUSH2 0x6E0 JUMPI PUSH1 0x0 DUP1 REVERT JUMPDEST PUSH2 0x1AA PUSH2 0x16A4 JUMP JUMPDEST CALLVALUE ISZERO PUSH2 0x6F3 JUMPI PUSH1 0x0 DUP1 REVERT JUMPDEST PUSH2 0x1AA PUSH2 0x16AA JUMP JUMPDEST CALLVALUE ISZERO PUSH2 0x706 JUMPI PUSH1 0x0 DUP1 REVERT JUMPDEST PUSH2 0x195 PUSH2 0x16B0 JUMP JUMPDEST CALLVALUE ISZERO PUSH2 0x719 JUMPI PUSH1 0x0 DUP1 REVERT JUMPDEST PUSH2 0x465 PUSH2 0x18FA JUMP JUMPDEST CALLVALUE ISZERO PUSH2 0x72C JUMPI PUSH1 0x0 DUP1 REVERT JUMPDEST PUSH2 0x1AA PUSH2 0x1903 JUMP JUMPDEST CALLVALUE ISZERO PUSH2 0x73F JUMPI PUSH1 0x0 DUP1 REVERT JUMPDEST PUSH2 0x1AA PUSH2 0x1909 JUMP JUMPDEST CALLVALUE ISZERO PUSH2 0x752 JUMPI PUSH1 0x0 DUP1 REVERT JUMPDEST PUSH2 0x195 PUSH1 0x4 DUP1 CALLDATALOAD PUSH1 0x1 PUSH1 0xA0 PUSH1 0x2 EXP SUB AND SWAP1 PUSH1 0x24 DUP1 CALLDATALOAD SWAP2 PUSH1 0x44 CALLDATALOAD SWAP2 PUSH1 0x84 SWAP1 PUSH1 0x64 CALLDATALOAD SWAP1 DUP2 ADD SWAP1 DUP4 ADD CALLDATALOAD DUP1 PUSH1 0x20 DUP1 DUP3 MUL ADD PUSH1 0x40 MLOAD SWAP1 DUP2 ADD PUSH1 0x40 MSTORE DUP1 SWAP4 SWAP3 SWAP2 SWAP1 DUP2 DUP2 MSTORE PUSH1 0x20 ADD DUP4 DUP4 PUSH1 0x20 MUL DUP1 DUP3 DUP5 CALLDATACOPY DUP3 ADD SWAP2 POP POP POP POP POP POP SWAP2 SWAP1 DUP1 CALLDATALOAD SWAP1 PUSH1 0x20 ADD SWAP1 DUP3 ADD DUP1 CALLDATALOAD SWAP1 PUSH1 0x20 ADD SWAP1 DUP1 DUP1 PUSH1 0x20 MUL PUSH1 0x20 ADD PUSH1 0x40 MLOAD SWAP1 DUP2 ADD PUSH1 0x40 MSTORE DUP1 SWAP4 SWAP3 SWAP2 SWAP1 DUP2 DUP2 MSTORE PUSH1 0x20 ADD DUP4 DUP4 PUSH1 0x20 MUL DUP1 DUP3 DUP5 CALLDATACOPY DUP3 ADD SWAP2 POP POP POP POP POP POP SWAP2 SWAP1 DUP1 CALLDATALOAD SWAP1 PUSH1 0x20 ADD SWAP1 DUP3 ADD DUP1 CALLDATALOAD SWAP1 PUSH1 0x20 ADD SWAP1 DUP1 DUP1 PUSH1 0x20 MUL PUSH1 0x20 ADD PUSH1 0x40 MLOAD SWAP1 DUP2 ADD PUSH1 0x40 MSTORE DUP1 SWAP4 SWAP3 SWAP2 SWAP1 DUP2 DUP2 MSTORE PUSH1 0x20 ADD DUP4 DUP4 PUSH1 0x20 MUL DUP1 DUP3 DUP5 CALLDATACOPY POP SWAP5 SWAP7 POP PUSH2 0x190F SWAP6 POP POP POP POP POP POP JUMP JUMPDEST CALLVALUE ISZERO PUSH2 0x838 JUMPI PUSH1 0x0 DUP1 REVERT JUMPDEST PUSH2 0x1AA PUSH1 0x4 CALLDATALOAD PUSH2 0x1A67 JUMP JUMPDEST CALLVALUE ISZERO PUSH2 0x84E JUMPI PUSH1 0x0 DUP1 REVERT JUMPDEST PUSH2 0x1AA PUSH2 0x1A74 JUMP JUMPDEST CALLVALUE ISZERO PUSH2 0x861 JUMPI PUSH1 0x0 DUP1 REVERT JUMPDEST PUSH2 0x195 PUSH2 0x1A7A JUMP JUMPDEST CALLVALUE ISZERO PUSH2 0x874 JUMPI PUSH1 0x0 DUP1 REVERT JUMPDEST PUSH2 0x1AA PUSH2 0x1ADC JUMP JUMPDEST CALLVALUE ISZERO PUSH2 0x887 JUMPI PUSH1 0x0 DUP1 REVERT JUMPDEST PUSH2 0x1AA PUSH1 0x4 CALLDATALOAD PUSH1 0x24 CALLDATALOAD PUSH2 0x1AE2 JUMP JUMPDEST CALLVALUE ISZERO PUSH2 0x8A0 JUMPI PUSH1 0x0 DUP1 REVERT JUMPDEST PUSH2 0x1AA PUSH2 0x1AF0 JUMP JUMPDEST CALLVALUE ISZERO PUSH2 0x8B3 JUMPI PUSH1 0x0 DUP1 REVERT JUMPDEST PUSH2 0x1AA PUSH2 0x1AF6 JUMP JUMPDEST PUSH1 0x1F SLOAD DUP2 JUMP JUMPDEST PUSH2 0x8C9 PUSH2 0x232C JUMP JUMPDEST PUSH1 0x2F SLOAD PUSH1 0x0 SWAP1 PUSH1 0xFF AND ISZERO PUSH2 0x8D9 JUMPI INVALID JUMPDEST PUSH1 0x21 SLOAD PUSH1 0x1 EQ PUSH2 0x8E5 JUMPI INVALID JUMPDEST PUSH1 0x1F SLOAD PUSH1 0x14 ADD NUMBER GT ISZERO DUP1 ISZERO PUSH2 0x8FB JUMPI POP PUSH1 0x1F SLOAD NUMBER GT JUMPDEST ISZERO PUSH2 0x962 JUMPI PUSH1 0xA PUSH1 0x40 MLOAD DUP1 MSIZE LT PUSH2 0x90F JUMPI POP MSIZE JUMPDEST SWAP1 DUP1 DUP3 MSTORE DUP1 PUSH1 0x20 MUL PUSH1 0x20 ADD DUP3 ADD PUSH1 0x40 MSTORE POP SWAP2 POP PUSH1 0x0 SWAP1 POP JUMPDEST PUSH1 0xA DUP2 LT ISZERO PUSH2 0x94F JUMPI DUP1 DUP3 DUP3 DUP2 MLOAD DUP2 LT PUSH2 0x93D JUMPI INVALID JUMPDEST PUSH1 0x20 SWAP1 DUP2 MUL SWAP1 SWAP2 ADD ADD MSTORE PUSH1 0x1 ADD PUSH2 0x927 JUMP JUMPDEST PUSH2 0x958 DUP3 PUSH2 0x1AFC JUMP JUMPDEST PUSH1 0x2 PUSH1 0x21 SSTORE PUSH2 0x96A JUMP JUMPDEST PUSH2 0x96A PUSH2 0x1A7A JUMP JUMPDEST POP POP JUMP JUMPDEST PUSH1 0x2F SLOAD PUSH1 0x0 SWAP1 PUSH1 0xFF AND ISZERO PUSH2 0x97E JUMPI INVALID JUMPDEST PUSH1 0x21 SLOAD PUSH1 0x3 EQ PUSH2 0x98A JUMPI INVALID JUMPDEST PUSH1 0x1D SLOAD PUSH1 0x1C SLOAD PUSH1 0x20 SLOAD ADD ADD NUMBER LT ISZERO PUSH2 0x99E JUMPI INVALID JUMPDEST PUSH1 0x1E SLOAD PUSH1 0x1D SLOAD PUSH1 0x1C SLOAD PUSH1 0x20 SLOAD ADD ADD ADD NUMBER LT PUSH2 0x9B5 JUMPI INVALID JUMPDEST POP PUSH1 0x4 SLOAD PUSH1 0x0 SWAP1 PUSH1 0xFF AND ISZERO ISZERO PUSH1 0x1 EQ ISZERO PUSH2 0xA54 JUMPI PUSH2 0xA4D DUP3 PUSH1 0x1A DUP1 SLOAD DUP1 PUSH1 0x20 MUL PUSH1 0x20 ADD PUSH1 0x40 MLOAD SWAP1 DUP2 ADD PUSH1 0x40 MSTORE DUP2 DUP2 MSTORE SWAP2 SWAP1 PUSH1 0x0 PUSH1 0x20 DUP5 ADD JUMPDEST DUP3 DUP3 LT ISZERO PUSH2 0xA44 JUMPI DUP4 DUP3 SWAP1 PUSH1 0x0 MSTORE PUSH1 0x20 PUSH1 0x0 KECCAK256 SWAP1 PUSH1 0x3 MUL ADD PUSH1 0x3 DUP1 PUSH1 0x20 MUL PUSH1 0x40 MLOAD SWAP1 DUP2 ADD PUSH1 0x40 MSTORE SWAP2 SWAP1 PUSH1 0x60 DUP4 ADD DUP3 DUP5 JUMPDEST DUP2 SLOAD DUP2 MSTORE PUSH1 0x20 ADD SWAP1 PUSH1 0x1 ADD SWAP1 DUP1 DUP4 GT PUSH2 0xA1D JUMPI POP POP POP POP POP DUP2 MSTORE PUSH1 0x20 ADD SWAP1 PUSH1 0x1 ADD SWAP1 PUSH2 0x9ED JUMP JUMPDEST POP POP POP POP PUSH2 0xB06 JUMP JUMPDEST SWAP1 POP PUSH2 0xAD2 JUMP JUMPDEST PUSH2 0xACF DUP3 PUSH1 0x19 DUP1 SLOAD DUP1 PUSH1 0x20 MUL PUSH1 0x20 ADD PUSH1 0x40 MLOAD SWAP1 DUP2 ADD PUSH1 0x40 MSTORE DUP2 DUP2 MSTORE SWAP2 SWAP1 PUSH1 0x0 PUSH1 0x20 DUP5 ADD JUMPDEST DUP3 DUP3 LT ISZERO PUSH2 0xA44 JUMPI DUP4 DUP3 SWAP1 PUSH1 0x0 MSTORE PUSH1 0x20 PUSH1 0x0 KECCAK256 SWAP1 PUSH1 0x3 MUL ADD PUSH1 0x3 DUP1 PUSH1 0x20 MUL PUSH1 0x40 MLOAD SWAP1 DUP2 ADD PUSH1 0x40 MSTORE SWAP2 SWAP1 PUSH1 0x60 DUP4 ADD DUP3 DUP5 JUMPDEST DUP2 SLOAD DUP2 MSTORE PUSH1 0x20 ADD SWAP1 PUSH1 0x1 ADD SWAP1 DUP1 DUP4 GT PUSH2 0xAA8 JUMPI POP POP POP POP POP DUP2 MSTORE PUSH1 0x20 ADD SWAP1 PUSH1 0x1 ADD SWAP1 PUSH2 0xA78 JUMP JUMPDEST SWAP1 POP JUMPDEST PUSH1 0x2 SLOAD DUP2 SGT ISZERO PUSH2 0xAE7 JUMPI PUSH1 0x1 DUP3 SWAP1 SSTORE PUSH1 0x2 DUP2 SWAP1 SSTORE JUMPDEST PUSH1 0x2 SLOAD DUP2 EQ ISZERO PUSH2 0x96A JUMPI PUSH1 0x1 SLOAD DUP3 LT ISZERO PUSH2 0x96A JUMPI PUSH1 0x1 SWAP2 SWAP1 SWAP2 SSTORE PUSH1 0x2 SSTORE JUMP JUMPDEST PUSH1 0x0 PUSH2 0xB10 PUSH2 0x233E JUMP JUMPDEST PUSH1 0x0 DUP1 PUSH1 0x0 PUSH2 0xB1D PUSH2 0x232C JUMP JUMPDEST PUSH2 0xB25 PUSH2 0x232C JUMP JUMPDEST PUSH1 0x2F SLOAD PUSH1 0x0 SWAP1 DUP2 SWAP1 DUP2 SWAP1 DUP2 SWAP1 PUSH1 0xFF AND ISZERO PUSH2 0xB3B JUMPI INVALID JUMPDEST PUSH1 0x21 SLOAD PUSH1 0x3 EQ PUSH2 0xB47 JUMPI INVALID JUMPDEST PUSH1 0x2E DUP1 SLOAD DUP15 SWAP1 DUP2 LT PUSH2 0xB55 JUMPI INVALID JUMPDEST SWAP1 PUSH1 0x0 MSTORE PUSH1 0x20 PUSH1 0x0 KECCAK256 SWAP1 PUSH1 0x6 MUL ADD PUSH1 0xC0 PUSH1 0x40 MLOAD SWAP1 DUP2 ADD PUSH1 0x40 MSTORE SWAP1 DUP2 PUSH1 0x0 DUP3 ADD PUSH1 0x0 SWAP1 SLOAD SWAP1 PUSH2 0x100 EXP SWAP1 DIV PUSH1 0x1 PUSH1 0xA0 PUSH1 0x2 EXP SUB AND PUSH1 0x1 PUSH1 0xA0 PUSH1 0x2 EXP SUB AND PUSH1 0x1 PUSH1 0xA0 PUSH1 0x2 EXP SUB AND DUP2 MSTORE PUSH1 0x20 ADD PUSH1 0x1 DUP3 ADD SLOAD DUP2 MSTORE PUSH1 0x20 ADD PUSH1 0x2 DUP3 ADD SLOAD DUP2 MSTORE PUSH1 0x20 ADD PUSH1 0x3 DUP3 ADD DUP1 SLOAD DUP1 PUSH1 0x20 MUL PUSH1 0x20 ADD PUSH1 0x40 MLOAD SWAP1 DUP2 ADD PUSH1 0x40 MSTORE DUP1 SWAP3 SWAP2 SWAP1 DUP2 DUP2 MSTORE PUSH1 0x20 ADD DUP3 DUP1 SLOAD DUP1 ISZERO PUSH2 0xC01 JUMPI PUSH1 0x20 MUL DUP3 ADD SWAP2 SWAP1 PUSH1 0x0 MSTORE PUSH1 0x20 PUSH1 0x0 KECCAK256 SWAP1 JUMPDEST DUP2 SLOAD DUP2 MSTORE PUSH1 0x20 ADD SWAP1 PUSH1 0x1 ADD SWAP1 DUP1 DUP4 GT PUSH2 0xBED JUMPI JUMPDEST POP POP POP POP POP DUP2 MSTORE PUSH1 0x20 ADD PUSH1 0x4 DUP3 ADD DUP1 SLOAD DUP1 PUSH1 0x20 MUL PUSH1 0x20 ADD PUSH1 0x40 MLOAD SWAP1 DUP2 ADD PUSH1 0x40 MSTORE DUP1 SWAP3 SWAP2 SWAP1 DUP2 DUP2 MSTORE PUSH1 0x20 ADD DUP3 DUP1 SLOAD DUP1 ISZERO PUSH2 0xC59 JUMPI PUSH1 0x20 MUL DUP3 ADD SWAP2 SWAP1 PUSH1 0x0 MSTORE PUSH1 0x20 PUSH1 0x0 KECCAK256 SWAP1 JUMPDEST DUP2 SLOAD DUP2 MSTORE PUSH1 0x20 ADD SWAP1 PUSH1 0x1 ADD SWAP1 DUP1 DUP4 GT PUSH2 0xC45 JUMPI JUMPDEST POP POP POP POP POP DUP2 MSTORE PUSH1 0x20 ADD PUSH1 0x5 DUP3 ADD DUP1 SLOAD DUP1 PUSH1 0x20 MUL PUSH1 0x20 ADD PUSH1 0x40 MLOAD SWAP1 DUP2 ADD PUSH1 0x40 MSTORE DUP1 SWAP3 SWAP2 SWAP1 DUP2 DUP2 MSTORE PUSH1 0x20 ADD DUP3 DUP1 SLOAD DUP1 ISZERO PUSH2 0xCB1 JUMPI PUSH1 0x20 MUL DUP3 ADD SWAP2 SWAP1 PUSH1 0x0 MSTORE PUSH1 0x20 PUSH1 0x0 KECCAK256 SWAP1 JUMPDEST DUP2 SLOAD DUP2 MSTORE PUSH1 0x20 ADD SWAP1 PUSH1 0x1 ADD SWAP1 DUP1 DUP4 GT PUSH2 0xC9D JUMPI JUMPDEST POP POP POP POP POP DUP2 MSTORE POP POP SWAP10 POP PUSH1 0x0 SWAP9 POP PUSH1 0x0 SWAP8 POP DUP10 PUSH1 0x40 ADD MLOAD PUSH1 0x2 EQ ISZERO PUSH2 0xD24 JUMPI PUSH1 0x1 SWAP7 POP DUP10 PUSH1 0x40 ADD MLOAD PUSH1 0x40 MLOAD DUP1 MSIZE LT PUSH2 0xCE7 JUMPI POP MSIZE JUMPDEST SWAP1 DUP1 DUP3 MSTORE DUP1 PUSH1 0x20 MUL PUSH1 0x20 ADD DUP3 ADD PUSH1 0x40 MSTORE POP SWAP6 POP DUP10 PUSH1 0x40 ADD MLOAD PUSH1 0x40 MLOAD DUP1 MSIZE LT PUSH2 0xD0C JUMPI POP MSIZE JUMPDEST SWAP1 DUP1 DUP3 MSTORE DUP1 PUSH1 0x20 MUL PUSH1 0x20 ADD DUP3 ADD PUSH1 0x40 MSTORE POP SWAP5 POP PUSH2 0xD6D JUMP JUMPDEST PUSH1 0x0 SWAP7 POP PUSH1 0x1 PUSH1 0x40 MLOAD DUP1 MSIZE LT PUSH2 0xD37 JUMPI POP MSIZE JUMPDEST SWAP1 DUP1 DUP3 MSTORE DUP1 PUSH1 0x20 MUL PUSH1 0x20 ADD DUP3 ADD PUSH1 0x40 MSTORE POP SWAP6 POP PUSH1 0x1 PUSH1 0x40 MLOAD DUP1 MSIZE LT PUSH2 0xD59 JUMPI POP MSIZE JUMPDEST SWAP1 DUP1 DUP3 MSTORE DUP1 PUSH1 0x20 MUL PUSH1 0x20 ADD DUP3 ADD PUSH1 0x40 MSTORE POP SWAP5 POP JUMPDEST PUSH1 0x0 SWAP4 POP JUMPDEST DUP12 MLOAD DUP5 LT ISZERO PUSH2 0xF44 JUMPI PUSH1 0x2 SWAP3 POP JUMPDEST DUP12 DUP5 DUP2 MLOAD DUP2 LT PUSH2 0xD8C JUMPI INVALID JUMPDEST SWAP1 PUSH1 0x20 ADD SWAP1 PUSH1 0x20 MUL ADD MLOAD POP PUSH1 0x3 DUP4 LT ISZERO PUSH2 0xEBE JUMPI PUSH1 0x1 NOT DUP4 ADD SWAP2 POP DUP7 ISZERO ISZERO PUSH1 0x1 EQ ISZERO PUSH2 0xE76 JUMPI DUP12 DUP5 DUP2 MLOAD DUP2 LT PUSH2 0xDBE JUMPI INVALID JUMPDEST SWAP1 PUSH1 0x20 ADD SWAP1 PUSH1 0x20 MUL ADD MLOAD DUP4 PUSH1 0x3 DUP2 LT PUSH2 0xDD3 JUMPI INVALID JUMPDEST PUSH1 0x20 MUL ADD MLOAD ISZERO ISZERO PUSH2 0xE16 JUMPI PUSH1 0x1 DUP6 DUP4 DUP2 MLOAD DUP2 LT PUSH2 0xDEC JUMPI INVALID JUMPDEST PUSH1 0x20 SWAP1 DUP2 MUL SWAP1 SWAP2 ADD ADD MSTORE PUSH1 0x0 DUP6 PUSH1 0x1 DUP5 ADD DUP2 MLOAD DUP2 LT PUSH2 0xE07 JUMPI INVALID JUMPDEST PUSH1 0x20 SWAP1 DUP2 MUL SWAP1 SWAP2 ADD ADD MSTORE PUSH2 0xE71 JUMP JUMPDEST DUP12 DUP5 DUP2 MLOAD DUP2 LT PUSH2 0xE22 JUMPI INVALID JUMPDEST SWAP1 PUSH1 0x20 ADD SWAP1 PUSH1 0x20 MUL ADD MLOAD DUP4 PUSH1 0x3 DUP2 LT PUSH2 0xE37 JUMPI INVALID JUMPDEST PUSH1 0x20 MUL ADD MLOAD PUSH1 0x1 EQ ISZERO PUSH2 0xE6C JUMPI PUSH1 0x0 DUP6 DUP4 DUP2 MLOAD DUP2 LT PUSH2 0xE52 JUMPI INVALID JUMPDEST PUSH1 0x20 SWAP1 DUP2 MUL SWAP1 SWAP2 ADD ADD MSTORE PUSH1 0x1 DUP6 DUP4 DUP3 ADD DUP2 MLOAD DUP2 LT PUSH2 0xE07 JUMPI INVALID JUMPDEST PUSH1 0x0 DUP1 REVERT JUMPDEST PUSH2 0xEB3 JUMP JUMPDEST DUP12 DUP5 DUP2 MLOAD DUP2 LT PUSH2 0xE82 JUMPI INVALID JUMPDEST SWAP1 PUSH1 0x20 ADD SWAP1 PUSH1 0x20 MUL ADD MLOAD DUP4 PUSH1 0x3 DUP2 LT PUSH2 0xE97 JUMPI INVALID JUMPDEST PUSH1 0x20 MUL ADD MLOAD DUP6 DUP4 DUP2 MLOAD DUP2 LT PUSH2 0xEA8 JUMPI INVALID JUMPDEST PUSH1 0x20 SWAP1 DUP2 MUL SWAP1 SWAP2 ADD ADD MSTORE JUMPDEST PUSH1 0x1 SWAP1 SWAP3 ADD SWAP2 PUSH2 0xD80 JUMP JUMPDEST PUSH2 0xEDD DUP11 DUP14 DUP7 DUP2 MLOAD DUP2 LT PUSH2 0xECE JUMPI INVALID JUMPDEST SWAP1 PUSH1 0x20 ADD SWAP1 PUSH1 0x20 MUL ADD MLOAD PUSH2 0x1C1B JUMP JUMPDEST SWAP6 POP PUSH1 0x0 SWAP1 POP JUMPDEST DUP5 MLOAD DUP2 LT ISZERO PUSH2 0xF39 JUMPI DUP6 DUP2 DUP2 MLOAD DUP2 LT PUSH2 0xEF9 JUMPI INVALID JUMPDEST SWAP1 PUSH1 0x20 ADD SWAP1 PUSH1 0x20 MUL ADD MLOAD DUP6 DUP3 DUP2 MLOAD DUP2 LT PUSH2 0xF0F JUMPI INVALID JUMPDEST SWAP1 PUSH1 0x20 ADD SWAP1 PUSH1 0x20 MUL ADD MLOAD EQ ISZERO PUSH2 0xF2A JUMPI PUSH1 0x1 DUP10 ADD SWAP9 POP PUSH2 0xF31 JUMP JUMPDEST PUSH1 0x1 DUP9 ADD SWAP8 POP JUMPDEST PUSH1 0x1 ADD PUSH2 0xEE4 JUMP JUMPDEST PUSH1 0x1 SWAP1 SWAP4 ADD SWAP3 PUSH2 0xD72 JUMP JUMPDEST DUP8 DUP10 ADD PUSH2 0x2710 DUP11 MUL DUP2 ISZERO ISZERO PUSH2 0xF55 JUMPI INVALID JUMPDEST SDIV SWAP14 SWAP13 POP POP POP POP POP POP POP POP POP POP POP POP POP JUMP JUMPDEST PUSH2 0xF6F PUSH2 0x238F JUMP JUMPDEST PUSH1 0x22 PUSH1 0x8 PUSH2 0x100 PUSH1 0x40 MLOAD SWAP1 DUP2 ADD PUSH1 0x40 MSTORE SWAP2 SWAP1 PUSH2 0x100 DUP4 ADD DUP3 DUP5 JUMPDEST DUP2 SLOAD DUP2 MSTORE PUSH1 0x20 ADD SWAP1 PUSH1 0x1 ADD SWAP1 DUP1 DUP4 GT PUSH2 0xF89 JUMPI POP POP POP POP POP SWAP1 POP JUMPDEST SWAP1 JUMP JUMPDEST PUSH1 0x1E SLOAD DUP2 JUMP JUMPDEST PUSH1 0x1A DUP1 SLOAD DUP4 SWAP1 DUP2 LT PUSH2 0xFBB JUMPI INVALID JUMPDEST SWAP1 PUSH1 0x0 MSTORE PUSH1 0x20 PUSH1 0x0 KECCAK256 SWAP1 PUSH1 0x3 MUL ADD DUP2 PUSH1 0x3 DUP2 LT ISZERO ISZERO PUSH2 0xFD6 JUMPI INVALID JUMPDEST ADD SLOAD SWAP2 POP DUP3 SWAP1 POP JUMP JUMPDEST PUSH1 0x2F SLOAD PUSH1 0xFF AND ISZERO PUSH2 0xFEC JUMPI INVALID JUMPDEST PUSH1 0x21 SLOAD ISZERO PUSH2 0xFF6 JUMPI INVALID JUMPDEST PUSH1 0x0 DUP1 SLOAD PUSH20 0xFFFFFFFFFFFFFFFFFFFFFFFFFFFFFFFFFFFFFFFF NOT AND PUSH1 0x1 PUSH1 0xA0 PUSH1 0x2 EXP SUB DUP4 AND OR SWAP1 SSTORE PUSH1 0x1 PUSH1 0x21 SSTORE NUMBER PUSH1 0x1F SSTORE PUSH2 0x1034 PUSH1 0x5 DUP5 PUSH1 0xA PUSH2 0x23B7 JUMP JUMPDEST POP PUSH1 0x0 DUP3 SGT PUSH2 0x103F JUMPI INVALID JUMPDEST POP PUSH1 0x3 SSTORE POP JUMP JUMPDEST PUSH2 0x104E PUSH2 0x23F7 JUMP JUMPDEST PUSH1 0x2A PUSH1 0x2 PUSH1 0x40 DUP1 MLOAD SWAP1 DUP2 ADD PUSH1 0x40 SWAP1 DUP2 MSTORE DUP4 SLOAD DUP3 MSTORE SWAP1 SWAP3 SWAP2 SWAP1 DUP4 ADD PUSH1 0x1 DUP4 ADD PUSH1 0x20 DUP6 ADD DUP1 DUP4 GT PUSH2 0xF89 JUMPI POP POP POP POP POP SWAP1 POP SWAP1 JUMP JUMPDEST PUSH1 0x2F SLOAD PUSH1 0xFF AND ISZERO PUSH2 0x108E JUMPI INVALID JUMPDEST PUSH1 0x21 SLOAD PUSH1 0x3 EQ PUSH2 0x109A JUMPI INVALID JUMPDEST PUSH1 0x1C SLOAD PUSH1 0x20 SLOAD ADD NUMBER LT ISZERO PUSH2 0x10AA JUMPI INVALID JUMPDEST PUSH1 0x1D SLOAD PUSH1 0x1C SLOAD PUSH1 0x20 SLOAD ADD ADD NUMBER LT PUSH2 0x10BD JUMPI INVALID JUMPDEST PUSH1 0x1 PUSH1 0x3 PUSH1 0x5 DUP5 DIV DIV EQ PUSH2 0x10CD JUMPI INVALID JUMPDEST PUSH1 0x5 PUSH1 0x2A PUSH1 0x2D SLOAD PUSH1 0x2 DUP2 LT ISZERO ISZERO PUSH2 0x10E0 JUMPI INVALID JUMPDEST ADD SLOAD PUSH1 0xA DUP2 LT PUSH2 0x10EC JUMPI INVALID JUMPDEST ADD SLOAD PUSH2 0x1125 DUP5 DUP5 DUP1 PUSH1 0x20 DUP1 DUP3 MUL ADD PUSH1 0x40 MLOAD SWAP1 DUP2 ADD PUSH1 0x40 MSTORE DUP1 SWAP4 SWAP3 SWAP2 SWAP1 DUP2 DUP2 MSTORE PUSH1 0x20 ADD DUP4 DUP4 PUSH1 0x20 MUL DUP1 DUP3 DUP5 CALLDATACOPY POP DUP9 SWAP5 POP PUSH2 0x1CFA SWAP4 POP POP POP POP JUMP JUMPDEST EQ PUSH2 0x112C JUMPI INVALID JUMPDEST PUSH1 0x2D DUP1 SLOAD PUSH1 0x1 ADD SWAP1 SSTORE PUSH2 0x116D DUP4 DUP4 DUP1 PUSH1 0x20 DUP1 DUP3 MUL ADD PUSH1 0x40 MLOAD SWAP1 DUP2 ADD PUSH1 0x40 MSTORE DUP1 SWAP4 SWAP3 SWAP2 SWAP1 DUP2 DUP2 MSTORE PUSH1 0x20 ADD DUP4 DUP4 PUSH1 0x20 MUL DUP1 DUP3 DUP5 CALLDATACOPY POP PUSH1 0x0 SWAP5 POP PUSH2 0x1E01 SWAP4 POP POP POP POP JUMP JUMPDEST POP POP PUSH1 0x4 DUP1 SLOAD PUSH1 0xFF NOT AND PUSH1 0x1 OR SWAP1 SSTORE POP JUMP JUMPDEST PUSH1 0x0 DUP1 DUP1 DUP1 DUP1 JUMPDEST PUSH1 0x2E SLOAD DUP5 LT ISZERO PUSH2 0xE6C JUMPI DUP11 PUSH1 0x1 PUSH1 0xA0 PUSH1 0x2 EXP SUB AND PUSH1 0x2E DUP6 DUP2 SLOAD DUP2 LT ISZERO ISZERO PUSH2 0x11A9 JUMPI INVALID JUMPDEST PUSH1 0x0 SWAP2 DUP3 MSTORE PUSH1 0x20 SWAP1 SWAP2 KECCAK256 PUSH1 0x6 SWAP1 SWAP2 MUL ADD SLOAD PUSH1 0x1 PUSH1 0xA0 PUSH1 0x2 EXP SUB AND EQ PUSH2 0x11CD JUMPI PUSH2 0x134D JUMP JUMPDEST DUP10 PUSH1 0x2E DUP6 DUP2 SLOAD DUP2 LT ISZERO ISZERO PUSH2 0x11DD JUMPI INVALID JUMPDEST SWAP1 PUSH1 0x0 MSTORE PUSH1 0x20 PUSH1 0x0 KECCAK256 SWAP1 PUSH1 0x6 MUL ADD PUSH1 0x1 ADD SLOAD EQ ISZERO ISZERO PUSH2 0x11FB JUMPI PUSH2 0x134D JUMP JUMPDEST DUP9 PUSH1 0x2E DUP6 DUP2 SLOAD DUP2 LT ISZERO ISZERO PUSH2 0x120B JUMPI INVALID JUMPDEST SWAP1 PUSH1 0x0 MSTORE PUSH1 0x20 PUSH1 0x0 KECCAK256 SWAP1 PUSH1 0x6 MUL ADD PUSH1 0x2 ADD SLOAD EQ ISZERO ISZERO PUSH2 0x1229 JUMPI PUSH2 0x134D JUMP JUMPDEST PUSH1 0x0 SWAP3 POP JUMPDEST DUP8 MLOAD DUP4 LT ISZERO PUSH2 0x1289 JUMPI DUP8 DUP4 DUP2 MLOAD DUP2 LT PUSH2 0x1243 JUMPI INVALID JUMPDEST SWAP1 PUSH1 0x20 ADD SWAP1 PUSH1 0x20 MUL ADD MLOAD PUSH1 0x2E DUP1 SLOAD DUP7 SWAP1 DUP2 LT PUSH2 0x125B JUMPI INVALID JUMPDEST SWAP1 PUSH1 0x0 MSTORE PUSH1 0x20 PUSH1 0x0 KECCAK256 SWAP1 PUSH1 0x6 MUL ADD PUSH1 0x3 ADD DUP5 DUP2 SLOAD DUP2 LT ISZERO ISZERO PUSH2 0x1279 JUMPI INVALID JUMPDEST POP PUSH1 0x0 MSTORE POP PUSH1 0x1 SWAP1 SWAP3 ADD SWAP2 PUSH2 0x122E JUMP JUMPDEST PUSH1 0x0 SWAP2 POP JUMPDEST DUP7 MLOAD DUP3 LT ISZERO PUSH2 0x12E9 JUMPI DUP7 DUP3 DUP2 MLOAD DUP2 LT PUSH2 0x12A3 JUMPI INVALID JUMPDEST SWAP1 PUSH1 0x20 ADD SWAP1 PUSH1 0x20 MUL ADD MLOAD PUSH1 0x2E DUP1 SLOAD DUP7 SWAP1 DUP2 LT PUSH2 0x12BB JUMPI INVALID JUMPDEST SWAP1 PUSH1 0x0 MSTORE PUSH1 0x20 PUSH1 0x0 KECCAK256 SWAP1 PUSH1 0x6 MUL ADD PUSH1 0x4 ADD DUP4 DUP2 SLOAD DUP2 LT ISZERO ISZERO PUSH2 0x12D9 JUMPI INVALID JUMPDEST POP PUSH1 0x0 MSTORE POP PUSH1 0x1 SWAP1 SWAP2 ADD SWAP1 PUSH2 0x128E JUMP JUMPDEST POP PUSH1 0x0 JUMPDEST DUP6 MLOAD DUP2 LT ISZERO PUSH2 0x1345 JUMPI DUP6 DUP2 DUP2 MLOAD DUP2 LT PUSH2 0x1302 JUMPI INVALID JUMPDEST SWAP1 PUSH1 0x20 ADD SWAP1 PUSH1 0x20 MUL ADD MLOAD PUSH1 0x2E DUP1 SLOAD DUP7 SWAP1 DUP2 LT PUSH2 0x131A JUMPI INVALID JUMPDEST SWAP1 PUSH1 0x0 MSTORE PUSH1 0x20 PUSH1 0x0 KECCAK256 SWAP1 PUSH1 0x6 MUL ADD PUSH1 0x5 ADD DUP3 DUP2 SLOAD DUP2 LT ISZERO ISZERO PUSH2 0x1338 JUMPI INVALID JUMPDEST POP PUSH1 0x0 MSTORE POP PUSH1 0x1 ADD PUSH2 0x12ED JUMP JUMPDEST DUP4 SWAP5 POP PUSH2 0x1358 JUMP JUMPDEST PUSH1 0x1 SWAP1 SWAP4 ADD SWAP3 PUSH2 0x1186 JUMP JUMPDEST POP POP POP POP SWAP7 SWAP6 POP POP POP POP POP POP JUMP JUMPDEST PUSH1 0x1 SLOAD DUP2 JUMP JUMPDEST PUSH1 0x4 SLOAD PUSH1 0xFF AND DUP2 JUMP JUMPDEST PUSH1 0x2F SLOAD PUSH1 0xFF AND ISZERO PUSH2 0x1382 JUMPI INVALID JUMPDEST PUSH1 0x21 SLOAD PUSH1 0x2 EQ PUSH2 0x138E JUMPI INVALID JUMPDEST PUSH1 0x1 PUSH1 0x3 PUSH1 0x5 DUP5 DIV DIV EQ PUSH2 0x139E JUMPI INVALID JUMPDEST PUSH1 0x5 PUSH1 0x22 PUSH1 0x2C SLOAD PUSH1 0x8 DUP2 LT ISZERO ISZERO PUSH2 0x13B1 JUMPI INVALID JUMPDEST ADD SLOAD PUSH1 0xA DUP2 LT PUSH2 0x13BD JUMPI INVALID JUMPDEST ADD SLOAD PUSH2 0x13F6 DUP5 DUP5 DUP1 PUSH1 0x20 DUP1 DUP3 MUL ADD PUSH1 0x40 MLOAD SWAP1 DUP2 ADD PUSH1 0x40 MSTORE DUP1 SWAP4 SWAP3 SWAP2 SWAP1 DUP2 DUP2 MSTORE PUSH1 0x20 ADD DUP4 DUP4 PUSH1 0x20 MUL DUP1 DUP3 DUP5 CALLDATACOPY POP DUP9 SWAP5 POP PUSH2 0x1CFA SWAP4 POP POP POP POP JUMP JUMPDEST EQ PUSH2 0x13FD JUMPI INVALID JUMPDEST PUSH1 0x2C DUP1 SLOAD PUSH1 0x1 ADD SWAP1 SSTORE PUSH2 0x143E DUP4 DUP4 DUP1 PUSH1 0x20 DUP1 DUP3 MUL ADD PUSH1 0x40 MLOAD SWAP1 DUP2 ADD PUSH1 0x40 MSTORE DUP1 SWAP4 SWAP3 SWAP2 SWAP1 DUP2 DUP2 MSTORE PUSH1 0x20 ADD DUP4 DUP4 PUSH1 0x20 MUL DUP1 DUP3 DUP5 CALLDATACOPY POP PUSH1 0x1 SWAP5 POP PUSH2 0x1E01 SWAP4 POP POP POP POP JUMP JUMPDEST PUSH1 0x2C SLOAD PUSH1 0x8 EQ ISZERO PUSH2 0x1453 JUMPI PUSH1 0x3 PUSH1 0x21 SSTORE NUMBER PUSH1 0x20 SSTORE JUMPDEST POP POP POP JUMP JUMPDEST PUSH2 0x1460 PUSH2 0x232C JUMP JUMPDEST PUSH2 0x1468 PUSH2 0x232C JUMP JUMPDEST PUSH1 0x0 PUSH2 0x1472 PUSH2 0x232C JUMP JUMPDEST PUSH2 0x147A PUSH2 0x232C JUMP JUMPDEST PUSH1 0x0 DUP1 PUSH1 0x0 PUSH1 0x2 PUSH1 0x40 MLOAD DUP1 MSIZE LT PUSH2 0x148E JUMPI POP MSIZE JUMPDEST SWAP1 DUP1 DUP3 MSTORE DUP1 PUSH1 0x20 MUL PUSH1 0x20 ADD DUP3 ADD PUSH1 0x40 MSTORE POP SWAP7 POP PUSH1 0x0 SWAP6 POP JUMPDEST PUSH1 0x1 DUP15 MLOAD SUB DUP7 LT ISZERO PUSH2 0x1669 JUMPI DUP12 MLOAD ISZERO PUSH2 0x151C JUMPI DUP6 ISZERO ISZERO PUSH2 0x14D5 JUMPI PUSH2 0x14CB DUP13 DUP16 DUP9 PUSH2 0x1FB7 JUMP JUMPDEST SWAP5 POP DUP13 SWAP4 POP PUSH2 0x1517 JUMP JUMPDEST PUSH1 0x2 DUP15 MLOAD SUB DUP7 EQ ISZERO PUSH2 0x14F9 JUMPI DUP11 SWAP5 POP PUSH2 0x14F2 DUP13 DUP16 PUSH1 0x1 DUP10 SUB PUSH2 0x1FB7 JUMP JUMPDEST SWAP4 POP PUSH2 0x1517 JUMP JUMPDEST PUSH2 0x1504 DUP13 DUP16 DUP9 PUSH2 0x1FB7 JUMP JUMPDEST SWAP5 POP PUSH2 0x1514 DUP13 DUP16 PUSH1 0x1 DUP10 SUB PUSH2 0x1FB7 JUMP JUMPDEST SWAP4 POP JUMPDEST PUSH2 0x1523 JUMP JUMPDEST DUP11 SWAP5 POP DUP13 SWAP4 POP JUMPDEST PUSH1 0x0 SWAP3 POP JUMPDEST DUP5 MLOAD DUP4 LT ISZERO PUSH2 0x165E JUMPI POP PUSH1 0x0 SWAP1 POP DUP1 JUMPDEST DUP4 MLOAD DUP2 LT ISZERO PUSH2 0x15AE JUMPI DUP10 DUP8 PUSH1 0x0 DUP2 MLOAD DUP2 LT PUSH2 0x154F JUMPI INVALID JUMPDEST SWAP1 PUSH1 0x20 ADD SWAP1 PUSH1 0x20 MUL ADD MLOAD DUP2 MLOAD DUP2 LT PUSH2 0x1563 JUMPI INVALID JUMPDEST SWAP1 PUSH1 0x20 ADD SWAP1 PUSH1 0x20 MUL ADD MLOAD DUP5 DUP3 DUP2 MLOAD DUP2 LT PUSH2 0x1579 JUMPI INVALID JUMPDEST SWAP1 PUSH1 0x20 ADD SWAP1 PUSH1 0x20 MUL ADD MLOAD MUL DUP3 ADD SWAP2 POP DUP7 PUSH1 0x0 DUP2 MLOAD DUP2 LT PUSH2 0x1595 JUMPI INVALID JUMPDEST SWAP1 PUSH1 0x20 ADD SWAP1 PUSH1 0x20 MUL ADD DUP1 MLOAD PUSH1 0x1 SWAP1 DUP2 ADD SWAP1 SWAP2 MSTORE ADD PUSH2 0x1538 JUMP JUMPDEST DUP9 DUP7 DUP2 MLOAD DUP2 LT PUSH2 0x15BA JUMPI INVALID JUMPDEST SWAP1 PUSH1 0x20 ADD SWAP1 PUSH1 0x20 MUL ADD MLOAD PUSH2 0x2710 SWAP3 ADD SWAP2 SWAP1 SWAP2 SDIV SWAP1 PUSH1 0x2 DUP15 MLOAD SUB DUP7 EQ ISZERO PUSH2 0x15FE JUMPI PUSH2 0x15E3 DUP3 PUSH2 0x20D4 JUMP JUMPDEST DUP12 DUP5 DUP2 MLOAD DUP2 LT PUSH2 0x15EF JUMPI INVALID JUMPDEST PUSH1 0x20 SWAP1 DUP2 MUL SWAP1 SWAP2 ADD ADD MSTORE PUSH2 0x1634 JUMP JUMPDEST PUSH2 0x1607 DUP3 PUSH2 0x20D4 JUMP JUMPDEST DUP13 DUP9 PUSH1 0x1 DUP2 MLOAD DUP2 LT PUSH2 0x1615 JUMPI INVALID JUMPDEST SWAP1 PUSH1 0x20 ADD SWAP1 PUSH1 0x20 MUL ADD MLOAD DUP2 MLOAD DUP2 LT PUSH2 0x1629 JUMPI INVALID JUMPDEST PUSH1 0x20 SWAP1 DUP2 MUL SWAP1 SWAP2 ADD ADD MSTORE JUMPDEST DUP7 PUSH1 0x1 DUP2 MLOAD DUP2 LT PUSH2 0x1641 JUMPI INVALID JUMPDEST SWAP1 PUSH1 0x20 ADD SWAP1 PUSH1 0x20 MUL ADD DUP1 MLOAD PUSH1 0x1 SWAP1 DUP2 ADD SWAP1 SWAP2 MSTORE SWAP3 SWAP1 SWAP3 ADD SWAP2 PUSH2 0x1528 JUMP JUMPDEST PUSH1 0x1 SWAP1 SWAP6 ADD SWAP5 PUSH2 0x14A6 JUMP JUMPDEST POP SWAP9 SWAP13 SWAP12 POP POP POP POP POP POP POP POP POP POP POP POP JUMP JUMPDEST PUSH1 0x0 SLOAD PUSH1 0x1 PUSH1 0xA0 PUSH1 0x2 EXP SUB AND DUP2 JUMP JUMPDEST PUSH1 0x21 SLOAD DUP2 JUMP JUMPDEST PUSH1 0x2A DUP2 PUSH1 0x2 DUP2 LT PUSH2 0x169D JUMPI INVALID JUMPDEST ADD SLOAD SWAP1 POP DUP2 JUMP JUMPDEST PUSH1 0x19 SLOAD SWAP1 JUMP JUMPDEST PUSH1 0x2 SLOAD DUP2 JUMP JUMPDEST PUSH2 0x16B8 PUSH2 0x233E JUMP JUMPDEST PUSH1 0x2F SLOAD PUSH1 0xFF AND ISZERO PUSH2 0x16C5 JUMPI INVALID JUMPDEST PUSH1 0x21 SLOAD PUSH1 0x3 EQ PUSH2 0x16D1 JUMPI INVALID JUMPDEST PUSH1 0x1E SLOAD PUSH1 0x1D SLOAD PUSH1 0x1C SLOAD PUSH1 0x20 SLOAD ADD ADD ADD NUMBER LT ISZERO PUSH2 0x16E9 JUMPI INVALID JUMPDEST PUSH1 0x2E PUSH1 0x1 SLOAD DUP2 SLOAD DUP2 LT ISZERO ISZERO PUSH2 0x16FA JUMPI INVALID JUMPDEST SWAP1 PUSH1 0x0 MSTORE PUSH1 0x20 PUSH1 0x0 KECCAK256 SWAP1 PUSH1 0x6 MUL ADD PUSH1 0xC0 PUSH1 0x40 MLOAD SWAP1 DUP2 ADD PUSH1 0x40 MSTORE SWAP1 DUP2 PUSH1 0x0 DUP3 ADD PUSH1 0x0 SWAP1 SLOAD SWAP1 PUSH2 0x100 EXP SWAP1 DIV PUSH1 0x1 PUSH1 0xA0 PUSH1 0x2 EXP SUB AND PUSH1 0x1 PUSH1 0xA0 PUSH1 0x2 EXP SUB AND PUSH1 0x1 PUSH1 0xA0 PUSH1 0x2 EXP SUB AND DUP2 MSTORE PUSH1 0x20 ADD PUSH1 0x1 DUP3 ADD SLOAD DUP2 MSTORE PUSH1 0x20 ADD PUSH1 0x2 DUP3 ADD SLOAD DUP2 MSTORE PUSH1 0x20 ADD PUSH1 0x3 DUP3 ADD DUP1 SLOAD DUP1 PUSH1 0x20 MUL PUSH1 0x20 ADD PUSH1 0x40 MLOAD SWAP1 DUP2 ADD PUSH1 0x40 MSTORE DUP1 SWAP3 SWAP2 SWAP1 DUP2 DUP2 MSTORE PUSH1 0x20 ADD DUP3 DUP1 SLOAD DUP1 ISZERO PUSH2 0x17A6 JUMPI PUSH1 0x20 MUL DUP3 ADD SWAP2 SWAP1 PUSH1 0x0 MSTORE PUSH1 0x20 PUSH1 0x0 KECCAK256 SWAP1 JUMPDEST DUP2 SLOAD DUP2 MSTORE PUSH1 0x20 ADD SWAP1 PUSH1 0x1 ADD SWAP1 DUP1 DUP4 GT PUSH2 0x1792 JUMPI JUMPDEST POP POP POP POP POP DUP2 MSTORE PUSH1 0x20 ADD PUSH1 0x4 DUP3 ADD DUP1 SLOAD DUP1 PUSH1 0x20 MUL PUSH1 0x20 ADD PUSH1 0x40 MLOAD SWAP1 DUP2 ADD PUSH1 0x40 MSTORE DUP1 SWAP3 SWAP2 SWAP1 DUP2 DUP2 MSTORE PUSH1 0x20 ADD DUP3 DUP1 SLOAD DUP1 ISZERO PUSH2 0x17FE JUMPI PUSH1 0x20 MUL DUP3 ADD SWAP2 SWAP1 PUSH1 0x0 MSTORE PUSH1 0x20 PUSH1 0x0 KECCAK256 SWAP1 JUMPDEST DUP2 SLOAD DUP2 MSTORE PUSH1 0x20 ADD SWAP1 PUSH1 0x1 ADD SWAP1 DUP1 DUP4 GT PUSH2 0x17EA JUMPI JUMPDEST POP POP POP POP POP DUP2 MSTORE PUSH1 0x20 ADD PUSH1 0x5 DUP3 ADD DUP1 SLOAD DUP1 PUSH1 0x20 MUL PUSH1 0x20 ADD PUSH1 0x40 MLOAD SWAP1 DUP2 ADD PUSH1 0x40 MSTORE DUP1 SWAP3 SWAP2 SWAP1 DUP2 DUP2 MSTORE PUSH1 0x20 ADD DUP3 DUP1 SLOAD DUP1 ISZERO PUSH2 0x1856 JUMPI PUSH1 0x20 MUL DUP3 ADD SWAP2 SWAP1 PUSH1 0x0 MSTORE PUSH1 0x20 PUSH1 0x0 KECCAK256 SWAP1 JUMPDEST DUP2 SLOAD DUP2 MSTORE PUSH1 0x20 ADD SWAP1 PUSH1 0x1 ADD SWAP1 DUP1 DUP4 GT PUSH2 0x1842 JUMPI JUMPDEST POP POP POP POP POP DUP2 MSTORE POP POP SWAP1 POP PUSH1 0x3 SLOAD PUSH1 0x2 SLOAD SLT ISZERO ISZERO PUSH2 0x18B1 JUMPI DUP1 MLOAD PUSH1 0x1 PUSH1 0xA0 PUSH1 0x2 EXP SUB AND PUSH2 0x8FC ADDRESS PUSH1 0x1 PUSH1 0xA0 PUSH1 0x2 EXP SUB AND BALANCE SWAP1 DUP2 ISZERO MUL SWAP1 PUSH1 0x40 MLOAD PUSH1 0x0 PUSH1 0x40 MLOAD DUP1 DUP4 SUB DUP2 DUP6 DUP9 DUP9 CALL SWAP4 POP POP POP POP ISZERO ISZERO PUSH2 0x18AC JUMPI PUSH1 0x0 DUP1 REVERT JUMPDEST PUSH2 0x18EA JUMP JUMPDEST PUSH1 0x0 SLOAD PUSH1 0x1 PUSH1 0xA0 PUSH1 0x2 EXP SUB SWAP1 DUP2 AND SWAP1 ADDRESS AND BALANCE DUP1 ISZERO PUSH2 0x8FC MUL SWAP1 PUSH1 0x40 MLOAD PUSH1 0x0 PUSH1 0x40 MLOAD DUP1 DUP4 SUB DUP2 DUP6 DUP9 DUP9 CALL SWAP4 POP POP POP POP ISZERO ISZERO PUSH2 0x18EA JUMPI PUSH1 0x0 DUP1 REVERT JUMPDEST POP PUSH1 0x2F DUP1 SLOAD PUSH1 0xFF NOT AND PUSH1 0x1 OR SWAP1 SSTORE JUMP JUMPDEST PUSH1 0x2F SLOAD PUSH1 0xFF AND DUP2 JUMP JUMPDEST PUSH1 0x20 SLOAD DUP2 JUMP JUMPDEST PUSH1 0x2E SLOAD SWAP1 JUMP JUMPDEST PUSH1 0x2F SLOAD PUSH1 0xFF AND ISZERO PUSH2 0x191C JUMPI INVALID JUMPDEST PUSH1 0x21 SLOAD PUSH1 0x3 EQ PUSH2 0x1928 JUMPI INVALID JUMPDEST PUSH1 0x1C SLOAD PUSH1 0x20 SLOAD ADD NUMBER LT PUSH2 0x1937 JUMPI INVALID JUMPDEST PUSH1 0x2 DUP6 EQ PUSH2 0x1941 JUMPI INVALID JUMPDEST PUSH1 0x1 DUP5 EQ DUP1 PUSH2 0x1950 JUMPI POP PUSH1 0x2 DUP5 EQ JUMPDEST ISZERO ISZERO PUSH2 0x1958 JUMPI INVALID JUMPDEST PUSH2 0x1964 DUP3 DUP7 DUP7 DUP7 PUSH2 0x20EE JUMP JUMPDEST ISZERO ISZERO PUSH2 0x196C JUMPI INVALID JUMPDEST PUSH1 0x2E DUP1 SLOAD PUSH1 0x1 DUP2 ADD PUSH2 0x197E DUP4 DUP3 PUSH2 0x2410 JUMP JUMPDEST SWAP2 PUSH1 0x0 MSTORE PUSH1 0x20 PUSH1 0x0 KECCAK256 SWAP1 PUSH1 0x6 MUL ADD PUSH1 0x0 PUSH1 0xC0 PUSH1 0x40 MLOAD SWAP1 DUP2 ADD PUSH1 0x40 MSTORE DUP1 DUP11 PUSH1 0x1 PUSH1 0xA0 PUSH1 0x2 EXP SUB AND DUP2 MSTORE PUSH1 0x20 ADD DUP10 DUP2 MSTORE PUSH1 0x20 ADD DUP9 DUP2 MSTORE PUSH1 0x20 ADD DUP8 DUP2 MSTORE PUSH1 0x20 ADD DUP7 DUP2 MSTORE PUSH1 0x20 ADD DUP6 DUP2 MSTORE POP SWAP1 SWAP2 SWAP1 SWAP2 POP PUSH1 0x0 DUP3 ADD MLOAD DUP2 SLOAD PUSH20 0xFFFFFFFFFFFFFFFFFFFFFFFFFFFFFFFFFFFFFFFF NOT AND PUSH1 0x1 PUSH1 0xA0 PUSH1 0x2 EXP SUB SWAP2 SWAP1 SWAP2 AND OR DUP2 SSTORE PUSH1 0x20 DUP3 ADD MLOAD DUP2 PUSH1 0x1 ADD SSTORE PUSH1 0x40 DUP3 ADD MLOAD DUP2 PUSH1 0x2 ADD SSTORE PUSH1 0x60 DUP3 ADD MLOAD DUP2 PUSH1 0x3 ADD SWAP1 DUP1 MLOAD PUSH2 0x1A25 SWAP3 SWAP2 PUSH1 0x20 ADD SWAP1 PUSH2 0x243C JUMP JUMPDEST POP PUSH1 0x80 DUP3 ADD MLOAD DUP2 PUSH1 0x4 ADD SWAP1 DUP1 MLOAD PUSH2 0x1A40 SWAP3 SWAP2 PUSH1 0x20 ADD SWAP1 PUSH2 0x243C JUMP JUMPDEST POP PUSH1 0xA0 DUP3 ADD MLOAD DUP2 PUSH1 0x5 ADD SWAP1 DUP1 MLOAD PUSH2 0x1A5B SWAP3 SWAP2 PUSH1 0x20 ADD SWAP1 PUSH2 0x243C JUMP JUMPDEST POP POP POP POP POP POP POP POP POP POP JUMP JUMPDEST PUSH1 0x22 DUP2 PUSH1 0x8 DUP2 LT PUSH2 0x169D JUMPI INVALID JUMPDEST PUSH1 0x1D SLOAD DUP2 JUMP JUMPDEST PUSH1 0x2F SLOAD PUSH1 0xFF AND ISZERO PUSH2 0x1A87 JUMPI INVALID JUMPDEST PUSH1 0x21 SLOAD PUSH1 0x3 SWAP1 LT PUSH2 0x1A94 JUMPI INVALID JUMPDEST PUSH1 0x0 SLOAD PUSH1 0x1 PUSH1 0xA0 PUSH1 0x2 EXP SUB SWAP1 DUP2 AND SWAP1 ADDRESS AND BALANCE DUP1 ISZERO PUSH2 0x8FC MUL SWAP1 PUSH1 0x40 MLOAD PUSH1 0x0 PUSH1 0x40 MLOAD DUP1 DUP4 SUB DUP2 DUP6 DUP9 DUP9 CALL SWAP4 POP POP POP POP ISZERO ISZERO PUSH2 0x1ACD JUMPI PUSH1 0x0 DUP1 REVERT JUMPDEST PUSH1 0x2F DUP1 SLOAD PUSH1 0xFF NOT AND PUSH1 0x1 OR SWAP1 SSTORE JUMP JUMPDEST PUSH1 0x3 SLOAD DUP2 JUMP JUMPDEST PUSH1 0x19 DUP1 SLOAD DUP4 SWAP1 DUP2 LT PUSH2 0xFBB JUMPI INVALID JUMPDEST PUSH1 0x1A SLOAD SWAP1 JUMP JUMPDEST PUSH1 0x1C SLOAD DUP2 JUMP JUMPDEST PUSH1 0x0 DUP1 DUP1 DUP1 DUP5 MLOAD SWAP3 POP PUSH1 0x0 SWAP2 POP JUMPDEST PUSH1 0x8 DUP5 LT ISZERO PUSH2 0x1BCB JUMPI DUP3 PUSH1 0x2 DUP4 NUMBER SUB BLOCKHASH PUSH1 0x0 PUSH1 0x40 MLOAD PUSH1 0x20 ADD MSTORE PUSH1 0x40 MLOAD SWAP1 DUP2 MSTORE PUSH1 0x20 SWAP1 DUP2 ADD SWAP1 PUSH1 0x40 MLOAD DUP1 DUP4 SUB DUP2 PUSH1 0x0 DUP7 PUSH2 0x646E GAS SUB CALL ISZERO ISZERO PUSH2 0x1B4A JUMPI PUSH1 0x0 DUP1 REVERT JUMPDEST POP POP PUSH1 0x40 MLOAD DUP1 MLOAD SWAP1 POP DUP2 ISZERO ISZERO PUSH2 0x1B5C JUMPI INVALID JUMPDEST MOD SWAP1 POP DUP5 DUP2 DUP2 MLOAD DUP2 LT PUSH2 0x1B6B JUMPI INVALID JUMPDEST SWAP1 PUSH1 0x20 ADD SWAP1 PUSH1 0x20 MUL ADD MLOAD PUSH1 0x22 DUP6 PUSH1 0x8 DUP2 LT PUSH2 0x1B82 JUMPI INVALID JUMPDEST ADD SSTORE DUP5 PUSH1 0x0 NOT DUP5 ADD DUP2 MLOAD DUP2 LT PUSH2 0x1B94 JUMPI INVALID JUMPDEST SWAP1 PUSH1 0x20 ADD SWAP1 PUSH1 0x20 MUL ADD MLOAD DUP6 DUP3 DUP2 MLOAD DUP2 LT PUSH2 0x1BAA JUMPI INVALID JUMPDEST PUSH1 0x20 SWAP1 DUP2 MUL SWAP1 SWAP2 ADD ADD MSTORE PUSH1 0x1 SWAP4 DUP5 ADD SWAP4 PUSH1 0x0 NOT SWAP1 SWAP4 ADD SWAP3 SWAP2 SWAP1 SWAP2 ADD SWAP1 PUSH2 0x1B0A JUMP JUMPDEST PUSH1 0x0 SWAP4 POP JUMPDEST PUSH1 0x2 DUP5 LT ISZERO PUSH2 0x1C14 JUMPI DUP5 PUSH1 0x1 DUP5 SUB DUP2 MLOAD DUP2 LT PUSH2 0x1BE8 JUMPI INVALID JUMPDEST SWAP1 PUSH1 0x20 ADD SWAP1 PUSH1 0x20 MUL ADD MLOAD PUSH1 0x2A DUP6 PUSH1 0x2 DUP2 LT PUSH2 0x1BFF JUMPI INVALID JUMPDEST ADD SSTORE PUSH1 0x1 SWAP4 SWAP1 SWAP4 ADD SWAP3 PUSH1 0x0 NOT SWAP1 SWAP3 ADD SWAP2 PUSH2 0x1BD0 JUMP JUMPDEST POP POP POP POP POP JUMP JUMPDEST PUSH2 0x1C23 PUSH2 0x232C JUMP JUMPDEST PUSH2 0x1C2B PUSH2 0x232C JUMP JUMPDEST PUSH1 0x0 DUP5 PUSH1 0x60 ADD MLOAD MLOAD PUSH1 0x2 ADD PUSH1 0x40 MLOAD DUP1 MSIZE LT PUSH2 0x1C43 JUMPI POP MSIZE JUMPDEST DUP2 DUP2 MSTORE PUSH1 0x20 SWAP2 DUP3 MUL DUP2 ADD DUP3 ADD PUSH1 0x40 MSTORE SWAP3 POP DUP6 ADD MLOAD DUP3 PUSH1 0x0 DUP2 MLOAD DUP2 LT PUSH2 0x1C64 JUMPI INVALID JUMPDEST PUSH1 0x20 SWAP1 DUP2 MUL SWAP1 SWAP2 ADD ADD MSTORE POP PUSH1 0x0 JUMPDEST DUP5 PUSH1 0x60 ADD MLOAD MLOAD DUP2 LT ISZERO PUSH2 0x1CBA JUMPI DUP5 PUSH1 0x60 ADD MLOAD DUP2 DUP2 MLOAD DUP2 LT PUSH2 0x1C8F JUMPI INVALID JUMPDEST SWAP1 PUSH1 0x20 ADD SWAP1 PUSH1 0x20 MUL ADD MLOAD DUP3 DUP3 PUSH1 0x1 ADD DUP2 MLOAD DUP2 LT PUSH2 0x1CA8 JUMPI INVALID JUMPDEST PUSH1 0x20 SWAP1 DUP2 MUL SWAP1 SWAP2 ADD ADD MSTORE PUSH1 0x1 ADD PUSH2 0x1C72 JUMP JUMPDEST DUP5 PUSH1 0x40 ADD MLOAD DUP3 DUP7 PUSH1 0x60 ADD MLOAD MLOAD PUSH1 0x1 ADD DUP2 MLOAD DUP2 LT PUSH2 0x1CD3 JUMPI INVALID JUMPDEST PUSH1 0x20 SWAP1 DUP2 MUL SWAP1 SWAP2 ADD ADD MSTORE PUSH2 0x1CF1 DUP5 PUSH1 0x80 DUP8 ADD MLOAD DUP8 PUSH1 0xA0 ADD MLOAD DUP6 PUSH2 0x21B3 JUMP JUMPDEST SWAP6 SWAP5 POP POP POP POP POP JUMP JUMPDEST PUSH1 0x0 DUP1 PUSH1 0x0 PUSH2 0x1D07 PUSH2 0x232C JUMP JUMPDEST PUSH1 0x0 SWAP3 POP PUSH1 0xF SWAP2 POP DUP3 PUSH1 0x10 PUSH1 0x40 MLOAD DUP1 MSIZE LT PUSH2 0x1D1F JUMPI POP MSIZE JUMPDEST SWAP1 DUP1 DUP3 MSTORE DUP1 PUSH1 0x20 MUL PUSH1 0x20 ADD DUP3 ADD PUSH1 0x40 MSTORE POP SWAP2 POP PUSH1 0x0 SWAP1 POP JUMPDEST DUP3 DUP2 LT ISZERO PUSH2 0x1D77 JUMPI DUP7 DUP2 DUP2 MLOAD DUP2 LT PUSH2 0x1D4B JUMPI INVALID JUMPDEST SWAP1 PUSH1 0x20 ADD SWAP1 PUSH1 0x20 MUL ADD MLOAD DUP3 DUP6 DUP2 MLOAD DUP2 LT PUSH2 0x1D61 JUMPI INVALID JUMPDEST PUSH1 0x20 SWAP1 DUP2 MUL SWAP1 SWAP2 ADD ADD MSTORE PUSH1 0x1 SWAP4 DUP5 ADD SWAP4 ADD PUSH2 0x1D37 JUMP JUMPDEST DUP6 DUP3 DUP6 DUP2 MLOAD DUP2 LT PUSH2 0x1D84 JUMPI INVALID JUMPDEST PUSH1 0x20 SWAP1 DUP2 MUL SWAP1 SWAP2 ADD ADD MSTORE PUSH1 0x2 DUP3 PUSH1 0x0 PUSH1 0x40 MLOAD PUSH1 0x20 ADD MSTORE PUSH1 0x40 MLOAD DUP1 DUP3 DUP1 MLOAD SWAP1 PUSH1 0x20 ADD SWAP1 PUSH1 0x20 MUL DUP1 DUP4 DUP4 PUSH1 0x0 JUMPDEST DUP4 DUP2 LT ISZERO PUSH2 0x1DC7 JUMPI DUP1 DUP3 ADD MLOAD DUP4 DUP3 ADD MSTORE PUSH1 0x20 ADD PUSH2 0x1DAF JUMP JUMPDEST POP POP POP POP SWAP1 POP ADD SWAP2 POP POP PUSH1 0x20 PUSH1 0x40 MLOAD DUP1 DUP4 SUB DUP2 PUSH1 0x0 DUP7 PUSH2 0x646E GAS SUB CALL ISZERO ISZERO PUSH2 0x1DEE JUMPI PUSH1 0x0 DUP1 REVERT JUMPDEST POP POP PUSH1 0x40 MLOAD DUP1 MLOAD SWAP9 SWAP8 POP POP POP POP POP POP POP POP JUMP JUMPDEST PUSH2 0x1E09 PUSH2 0x232C JUMP JUMPDEST PUSH1 0x0 DUP1 PUSH1 0x0 DUP1 PUSH1 0x3 DUP8 MLOAD DUP2 ISZERO ISZERO PUSH2 0x1E1C JUMPI INVALID JUMPDEST DIV PUSH1 0x40 MLOAD DUP1 MSIZE LT PUSH2 0x1E2A JUMPI POP MSIZE JUMPDEST SWAP1 DUP1 DUP3 MSTORE DUP1 PUSH1 0x20 MUL PUSH1 0x20 ADD DUP3 ADD PUSH1 0x40 MSTORE DUP1 ISZERO PUSH2 0x1E60 JUMPI DUP2 PUSH1 0x20 ADD JUMPDEST PUSH2 0x1E4D PUSH2 0x2477 JUMP JUMPDEST DUP2 MSTORE PUSH1 0x20 ADD SWAP1 PUSH1 0x1 SWAP1 SUB SWAP1 DUP2 PUSH2 0x1E45 JUMPI SWAP1 POP JUMPDEST POP SWAP5 POP PUSH1 0x0 SWAP4 POP JUMPDEST PUSH1 0x3 DUP8 MLOAD DUP2 ISZERO ISZERO PUSH2 0x1E75 JUMPI INVALID JUMPDEST DIV DUP5 LT ISZERO PUSH2 0x1EE2 JUMPI PUSH1 0x0 SWAP3 POP JUMPDEST PUSH1 0x3 DUP4 LT ISZERO PUSH2 0x1ED7 JUMPI DUP7 DUP4 PUSH1 0x3 DUP7 MUL ADD DUP2 MLOAD DUP2 LT PUSH2 0x1E9C JUMPI INVALID JUMPDEST SWAP1 PUSH1 0x20 ADD SWAP1 PUSH1 0x20 MUL ADD MLOAD DUP6 DUP6 DUP2 MLOAD DUP2 LT PUSH2 0x1EB2 JUMPI INVALID JUMPDEST SWAP1 PUSH1 0x20 ADD SWAP1 PUSH1 0x20 MUL ADD MLOAD DUP5 PUSH1 0x3 DUP2 LT PUSH2 0x1EC7 JUMPI INVALID JUMPDEST PUSH1 0x20 MUL ADD MSTORE PUSH1 0x1 SWAP1 SWAP3 ADD SWAP2 PUSH2 0x1E82 JUMP JUMPDEST PUSH1 0x1 SWAP1 SWAP4 ADD SWAP3 PUSH2 0x1E68 JUMP JUMPDEST PUSH1 0x1 DUP7 ISZERO ISZERO EQ ISZERO PUSH2 0x1F52 JUMPI PUSH1 0x0 SWAP2 POP JUMPDEST DUP5 MLOAD DUP3 LT ISZERO PUSH2 0x1F4D JUMPI PUSH1 0x19 DUP1 SLOAD PUSH1 0x1 DUP2 ADD PUSH2 0x1F0D DUP4 DUP3 PUSH2 0x2491 JUMP JUMPDEST SWAP2 PUSH1 0x0 MSTORE PUSH1 0x20 PUSH1 0x0 KECCAK256 SWAP1 PUSH1 0x3 MUL ADD PUSH1 0x0 DUP8 DUP6 DUP2 MLOAD DUP2 LT PUSH2 0x1F29 JUMPI INVALID JUMPDEST SWAP1 PUSH1 0x20 ADD SWAP1 PUSH1 0x20 MUL ADD MLOAD PUSH2 0x1F40 SWAP3 SWAP2 POP PUSH1 0x3 PUSH2 0x24BD JUMP JUMPDEST POP POP PUSH1 0x1 SWAP1 SWAP2 ADD SWAP1 PUSH2 0x1EF2 JUMP JUMPDEST PUSH2 0x1FAE JUMP JUMPDEST POP PUSH1 0x0 JUMPDEST DUP5 MLOAD DUP2 LT ISZERO PUSH2 0x1FAE JUMPI PUSH1 0x1A DUP1 SLOAD PUSH1 0x1 DUP2 ADD PUSH2 0x1F71 DUP4 DUP3 PUSH2 0x2491 JUMP JUMPDEST SWAP2 PUSH1 0x0 MSTORE PUSH1 0x20 PUSH1 0x0 KECCAK256 SWAP1 PUSH1 0x3 MUL ADD PUSH1 0x0 DUP8 DUP5 DUP2 MLOAD DUP2 LT PUSH2 0x1F8D JUMPI INVALID JUMPDEST SWAP1 PUSH1 0x20 ADD SWAP1 PUSH1 0x20 MUL ADD MLOAD PUSH2 0x1FA4 SWAP3 SWAP2 POP PUSH1 0x3 PUSH2 0x24BD JUMP JUMPDEST POP POP PUSH1 0x1 ADD PUSH2 0x1F56 JUMP JUMPDEST POP POP POP POP POP POP POP JUMP JUMPDEST PUSH2 0x1FBF PUSH2 0x232C JUMP JUMPDEST PUSH2 0x1FC7 PUSH2 0x232C JUMP JUMPDEST PUSH1 0x0 DUP1 PUSH1 0x0 DUP1 PUSH1 0x0 DUP1 DUP10 DUP10 PUSH1 0x1 ADD DUP2 MLOAD DUP2 LT PUSH2 0x1FDF JUMPI INVALID JUMPDEST SWAP1 PUSH1 0x20 ADD SWAP1 PUSH1 0x20 MUL ADD MLOAD PUSH1 0x40 MLOAD DUP1 MSIZE LT PUSH2 0x1FF6 JUMPI POP MSIZE JUMPDEST SWAP1 DUP1 DUP3 MSTORE DUP1 PUSH1 0x20 MUL PUSH1 0x20 ADD DUP3 ADD PUSH1 0x40 MSTORE POP SWAP7 POP PUSH1 0x0 SWAP6 POP PUSH1 0x0 SWAP5 POP PUSH1 0x0 SWAP4 POP PUSH1 0x0 SWAP3 POP JUMPDEST DUP9 DUP4 LT ISZERO PUSH2 0x204A JUMPI DUP10 DUP4 PUSH1 0x1 ADD DUP2 MLOAD DUP2 LT PUSH2 0x2031 JUMPI INVALID JUMPDEST SWAP1 PUSH1 0x20 ADD SWAP1 PUSH1 0x20 MUL ADD MLOAD SWAP1 SWAP5 ADD SWAP4 PUSH1 0x1 SWAP1 SWAP3 ADD SWAP2 PUSH2 0x201A JUMP JUMPDEST PUSH1 0x0 SWAP2 POP JUMPDEST DUP9 PUSH1 0x1 ADD DUP3 LT ISZERO PUSH2 0x2082 JUMPI DUP10 DUP3 PUSH1 0x1 ADD DUP2 MLOAD DUP2 LT PUSH2 0x2069 JUMPI INVALID JUMPDEST SWAP1 PUSH1 0x20 ADD SWAP1 PUSH1 0x20 MUL ADD MLOAD SWAP1 SWAP4 ADD SWAP3 PUSH1 0x1 SWAP1 SWAP2 ADD SWAP1 PUSH2 0x204F JUMP JUMPDEST POP DUP4 JUMPDEST DUP4 DUP2 LT ISZERO PUSH2 0x20C5 JUMPI DUP11 DUP2 DUP2 MLOAD DUP2 LT PUSH2 0x2099 JUMPI INVALID JUMPDEST SWAP1 PUSH1 0x20 ADD SWAP1 PUSH1 0x20 MUL ADD MLOAD DUP8 DUP8 DUP2 MLOAD DUP2 LT PUSH2 0x20AF JUMPI INVALID JUMPDEST PUSH1 0x20 SWAP1 DUP2 MUL SWAP1 SWAP2 ADD ADD MSTORE PUSH1 0x1 SWAP6 DUP7 ADD SWAP6 ADD PUSH2 0x2085 JUMP JUMPDEST POP SWAP5 SWAP10 SWAP9 POP POP POP POP POP POP POP POP POP JUMP JUMPDEST PUSH1 0x0 DUP1 DUP3 SLT ISZERO PUSH2 0x20E6 JUMPI POP PUSH1 0x0 PUSH2 0x20E9 JUMP JUMPDEST POP DUP1 JUMPDEST SWAP2 SWAP1 POP JUMP JUMPDEST PUSH1 0x0 DUP1 DUP1 DUP1 DUP1 DUP6 MLOAD PUSH1 0x2 ADD SWAP2 POP DUP2 PUSH1 0x2 EQ ISZERO PUSH2 0x210E JUMPI DUP7 DUP9 MUL SWAP4 POP PUSH2 0x21A1 JUMP JUMPDEST POP PUSH1 0x0 JUMPDEST DUP6 MLOAD DUP2 LT ISZERO PUSH2 0x2180 JUMPI DUP1 ISZERO ISZERO PUSH2 0x2143 JUMPI DUP6 DUP2 DUP2 MLOAD DUP2 LT PUSH2 0x212E JUMPI INVALID JUMPDEST SWAP1 PUSH1 0x20 ADD SWAP1 PUSH1 0x20 MUL ADD MLOAD DUP9 MUL DUP5 ADD SWAP4 POP PUSH2 0x2178 JUMP JUMPDEST DUP6 DUP2 DUP2 MLOAD DUP2 LT PUSH2 0x214F JUMPI INVALID JUMPDEST SWAP1 PUSH1 0x20 ADD SWAP1 PUSH1 0x20 MUL ADD MLOAD DUP7 PUSH1 0x1 DUP4 SUB DUP2 MLOAD DUP2 LT PUSH2 0x2168 JUMPI INVALID JUMPDEST SWAP1 PUSH1 0x20 ADD SWAP1 PUSH1 0x20 MUL ADD MLOAD MUL DUP5 ADD SWAP4 POP JUMPDEST PUSH1 0x1 ADD PUSH2 0x2112 JUMP JUMPDEST DUP7 DUP7 PUSH1 0x1 DUP9 MLOAD SUB DUP2 MLOAD DUP2 LT PUSH2 0x2191 JUMPI INVALID JUMPDEST SWAP1 PUSH1 0x20 ADD SWAP1 PUSH1 0x20 MUL ADD MLOAD MUL DUP5 ADD SWAP4 POP JUMPDEST DUP9 MLOAD SWAP4 SWAP1 SWAP4 EQ SWAP9 SWAP8 POP POP POP POP POP POP POP POP JUMP JUMPDEST PUSH2 0x21BB PUSH2 0x232C JUMP JUMPDEST PUSH2 0x21C3 PUSH2 0x232C JUMP JUMPDEST PUSH2 0x21CB PUSH2 0x232C JUMP JUMPDEST PUSH2 0x21D3 PUSH2 0x232C JUMP JUMPDEST PUSH1 0x0 PUSH2 0x21F4 DUP7 PUSH1 0x0 DUP2 MLOAD DUP2 LT PUSH2 0x21E5 JUMPI INVALID JUMPDEST SWAP1 PUSH1 0x20 ADD SWAP1 PUSH1 0x20 MUL ADD MLOAD PUSH2 0x2283 JUMP JUMPDEST SWAP4 POP PUSH2 0x21FF DUP7 PUSH2 0x22B8 JUMP JUMPDEST SWAP3 POP PUSH2 0x2214 DUP7 PUSH1 0x1 DUP9 MLOAD SUB DUP2 MLOAD DUP2 LT PUSH2 0x21E5 JUMPI INVALID JUMPDEST SWAP2 POP PUSH1 0x0 SWAP1 POP JUMPDEST DUP6 PUSH1 0x0 DUP2 MLOAD DUP2 LT PUSH2 0x2228 JUMPI INVALID JUMPDEST SWAP1 PUSH1 0x20 ADD SWAP1 PUSH1 0x20 MUL ADD MLOAD DUP2 LT ISZERO PUSH2 0x2268 JUMPI DUP9 DUP2 PUSH1 0x3 DUP2 LT PUSH2 0x2245 JUMPI INVALID JUMPDEST PUSH1 0x20 MUL ADD MLOAD DUP5 DUP3 DUP2 MLOAD DUP2 LT PUSH2 0x2256 JUMPI INVALID JUMPDEST PUSH1 0x20 SWAP1 DUP2 MUL SWAP1 SWAP2 ADD ADD MSTORE PUSH1 0x1 ADD PUSH2 0x221B JUMP JUMPDEST PUSH2 0x2276 DUP7 DUP6 DUP6 DUP6 DUP13 DUP13 PUSH2 0x1458 JUMP JUMPDEST SWAP10 SWAP9 POP POP POP POP POP POP POP POP POP JUMP JUMPDEST PUSH2 0x228B PUSH2 0x232C JUMP JUMPDEST PUSH2 0x2293 PUSH2 0x232C JUMP JUMPDEST DUP3 PUSH1 0x40 MLOAD DUP1 MSIZE LT PUSH2 0x22A1 JUMPI POP MSIZE JUMPDEST DUP2 DUP2 MSTORE PUSH1 0x20 SWAP2 DUP3 MUL DUP2 ADD SWAP1 SWAP2 ADD PUSH1 0x40 MSTORE SWAP4 SWAP3 POP POP POP JUMP JUMPDEST PUSH2 0x22C0 PUSH2 0x232C JUMP JUMPDEST PUSH1 0x0 DUP1 PUSH2 0x22CB PUSH2 0x232C JUMP JUMPDEST PUSH1 0x0 SWAP3 POP PUSH1 0x1 SWAP2 POP JUMPDEST PUSH1 0x1 DUP6 MLOAD SUB DUP3 LT ISZERO PUSH2 0x2305 JUMPI DUP5 DUP3 DUP2 MLOAD DUP2 LT PUSH2 0x22EC JUMPI INVALID JUMPDEST SWAP1 PUSH1 0x20 ADD SWAP1 PUSH1 0x20 MUL ADD MLOAD SWAP1 SWAP3 ADD SWAP2 PUSH1 0x1 SWAP1 SWAP2 ADD SWAP1 PUSH2 0x22D4 JUMP JUMPDEST DUP3 PUSH1 0x40 MLOAD DUP1 MSIZE LT PUSH2 0x2313 JUMPI POP MSIZE JUMPDEST DUP2 DUP2 MSTORE PUSH1 0x20 SWAP2 DUP3 MUL DUP2 ADD SWAP1 SWAP2 ADD PUSH1 0x40 MSTORE SWAP6 SWAP5 POP POP POP POP POP JUMP JUMPDEST PUSH1 0x20 PUSH1 0x40 MLOAD SWAP1 DUP2 ADD PUSH1 0x40 MSTORE PUSH1 0x0 DUP2 MSTORE SWAP1 JUMP JUMPDEST PUSH1 0xC0 PUSH1 0x40 MLOAD SWAP1 DUP2 ADD PUSH1 0x40 MSTORE DUP1 PUSH1 0x0 PUSH1 0x1 PUSH1 0xA0 PUSH1 0x2 EXP SUB AND DUP2 MSTORE PUSH1 0x20 ADD PUSH1 0x0 DUP2 MSTORE PUSH1 0x20 ADD PUSH1 0x0 DUP2 MSTORE PUSH1 0x20 ADD PUSH2 0x2370 PUSH2 0x232C JUMP JUMPDEST DUP2 MSTORE PUSH1 0x20 ADD PUSH2 0x237D PUSH2 0x232C JUMP JUMPDEST DUP2 MSTORE PUSH1 0x20 ADD PUSH2 0x238A PUSH2 0x232C JUMP JUMPDEST SWAP1 MSTORE SWAP1 JUMP JUMPDEST PUSH2 0x100 PUSH1 0x40 MLOAD SWAP1 DUP2 ADD PUSH1 0x40 MSTORE PUSH1 0x8 DUP2 JUMPDEST PUSH1 0x0 DUP2 MSTORE PUSH1 0x20 ADD SWAP1 PUSH1 0x1 SWAP1 SUB SWAP1 DUP2 PUSH2 0x239F JUMPI SWAP1 POP POP SWAP1 JUMP JUMPDEST DUP3 PUSH1 0xA DUP2 ADD SWAP3 DUP3 ISZERO PUSH2 0x23E7 JUMPI SWAP2 PUSH1 0x20 MUL DUP3 ADD JUMPDEST DUP3 DUP2 GT ISZERO PUSH2 0x23E7 JUMPI DUP3 CALLDATALOAD DUP3 SSTORE PUSH1 0x20 SWAP1 SWAP3 ADD SWAP2 PUSH1 0x1 SWAP1 SWAP2 ADD SWAP1 PUSH2 0x23CA JUMP JUMPDEST POP PUSH2 0x23F3 SWAP3 SWAP2 POP PUSH2 0x24EA JUMP JUMPDEST POP SWAP1 JUMP JUMPDEST PUSH1 0x40 DUP1 MLOAD SWAP1 DUP2 ADD PUSH1 0x40 MSTORE PUSH1 0x0 DUP2 MSTORE PUSH1 0x1 PUSH1 0x20 DUP3 ADD PUSH2 0x239F JUMP JUMPDEST DUP2 SLOAD DUP2 DUP4 SSTORE DUP2 DUP2 ISZERO GT PUSH2 0x1453 JUMPI PUSH1 0x6 MUL DUP2 PUSH1 0x6 MUL DUP4 PUSH1 0x0 MSTORE PUSH1 0x20 PUSH1 0x0 KECCAK256 SWAP2 DUP3 ADD SWAP2 ADD PUSH2 0x1453 SWAP2 SWAP1 PUSH2 0x2504 JUMP JUMPDEST DUP3 DUP1 SLOAD DUP3 DUP3 SSTORE SWAP1 PUSH1 0x0 MSTORE PUSH1 0x20 PUSH1 0x0 KECCAK256 SWAP1 DUP2 ADD SWAP3 DUP3 ISZERO PUSH2 0x23E7 JUMPI SWAP2 PUSH1 0x20 MUL DUP3 ADD JUMPDEST DUP3 DUP2 GT ISZERO PUSH2 0x23E7 JUMPI DUP3 MLOAD DUP3 SSTORE SWAP2 PUSH1 0x20 ADD SWAP2 SWAP1 PUSH1 0x1 ADD SWAP1 PUSH2 0x245C JUMP JUMPDEST PUSH1 0x60 PUSH1 0x40 MLOAD SWAP1 DUP2 ADD PUSH1 0x40 MSTORE PUSH1 0x0 DUP2 MSTORE PUSH1 0x2 PUSH1 0x20 DUP3 ADD PUSH2 0x239F JUMP JUMPDEST DUP2 SLOAD DUP2 DUP4 SSTORE DUP2 DUP2 ISZERO GT PUSH2 0x1453 JUMPI PUSH1 0x3 MUL DUP2 PUSH1 0x3 MUL DUP4 PUSH1 0x0 MSTORE PUSH1 0x20 PUSH1 0x0 KECCAK256 SWAP2 DUP3 ADD SWAP2 ADD PUSH2 0x1453 SWAP2 SWAP1 PUSH2 0x256F JUMP JUMPDEST DUP3 PUSH1 0x3 DUP2 ADD SWAP3 DUP3 ISZERO PUSH2 0x23E7 JUMPI SWAP2 PUSH1 0x20 MUL DUP3 ADD DUP3 DUP2 GT ISZERO PUSH2 0x23E7 JUMPI DUP3 MLOAD DUP3 SSTORE SWAP2 PUSH1 0x20 ADD SWAP2 SWAP1 PUSH1 0x1 ADD SWAP1 PUSH2 0x245C JUMP JUMPDEST PUSH2 0xFA4 SWAP2 SWAP1 JUMPDEST DUP1 DUP3 GT ISZERO PUSH2 0x23F3 JUMPI PUSH1 0x0 DUP2 SSTORE PUSH1 0x1 ADD PUSH2 0x24F0 JUMP JUMPDEST PUSH2 0xFA4 SWAP2 SWAP1 JUMPDEST DUP1 DUP3 GT ISZERO PUSH2 0x23F3 JUMPI DUP1 SLOAD PUSH20 0xFFFFFFFFFFFFFFFFFFFFFFFFFFFFFFFFFFFFFFFF NOT AND DUP2 SSTORE PUSH1 0x0 PUSH1 0x1 DUP3 ADD DUP2 SWAP1 SSTORE PUSH1 0x2 DUP3 ADD DUP2 SWAP1 SSTORE PUSH2 0x254A PUSH1 0x3 DUP4 ADD DUP3 PUSH2 0x2592 JUMP JUMPDEST PUSH2 0x2558 PUSH1 0x4 DUP4 ADD PUSH1 0x0 PUSH2 0x2592 JUMP JUMPDEST PUSH2 0x2566 PUSH1 0x5 DUP4 ADD PUSH1 0x0 PUSH2 0x2592 JUMP JUMPDEST POP PUSH1 0x6 ADD PUSH2 0x250A JUMP JUMPDEST PUSH2 0xFA4 SWAP2 SWAP1 JUMPDEST DUP1 DUP3 GT ISZERO PUSH2 0x23F3 JUMPI PUSH1 0x0 PUSH2 0x2589 DUP3 DUP3 PUSH2 0x25B3 JUMP JUMPDEST POP PUSH1 0x3 ADD PUSH2 0x2575 JUMP JUMPDEST POP DUP1 SLOAD PUSH1 0x0 DUP3 SSTORE SWAP1 PUSH1 0x0 MSTORE PUSH1 0x20 PUSH1 0x0 KECCAK256 SWAP1 DUP2 ADD SWAP1 PUSH2 0x25B0 SWAP2 SWAP1 PUSH2 0x24EA JUMP JUMPDEST POP JUMP JUMPDEST POP PUSH1 0x0 DUP2 SSTORE PUSH1 0x1 ADD PUSH1 0x0 DUP2 SSTORE PUSH1 0x1 ADD PUSH1 0x0 SWAP1 SSTORE JUMP STOP LOG1 PUSH6 0x627A7A723058 KECCAK256 DUP9 INVALID PUSH30 0x291C0A183D78E1625B0F06B25231CA510B6B0A3F3A4059C1D40696B70700 0x29 ",
  "sha1": "a25991fb35009e5d72e5c64b14e1a8dc74ef8be2",
  "source": "pragma solidity ^0.4.19;\n// Danku contract version 0.0.1\n// Data points are x, y, and z\n\ncontract Danku {\n  function Danku() public {\n    // Neural Network Structure:\n    //\n    // (required) input layer x number of neurons\n    // (optional) hidden layers x number of neurons\n    // (required) output layer x number of neurons\n  }\n  struct Submission {\n      address payment_address;\n      // Define the number of neurons each layer has.\n      uint num_neurons_input_layer;\n      uint num_neurons_output_layer;\n      // There can be multiple hidden layers.\n      uint[] num_neurons_hidden_layer;\n      // Weights indexes are the following:\n      // weights[l_i x l_n_i x pl_n_i]\n      // Also number of layers in weights is layers.length-1\n      int256[] weights;\n      int256[] biases;\n  }\n  struct NeuralLayer {\n    int256[] neurons;\n    int256[] errors;\n    string layer_type;\n  }\n\n  address public organizer;\n  // Keep track of the best model\n  uint public best_submission_index;\n  // Keep track of best model accuracy\n  int256 public best_submission_accuracy = 0;\n  // The model accuracy criteria\n  int256 public model_accuracy_criteria;\n  // Use test data if provided\n  bool public use_test_data = false;\n  // Each partition is 5% of the total dataset size\n  uint constant partition_size = 5;\n  // Data points are made up of x and y coordinates and the prediction\n  uint constant datapoint_size = 3;\n  uint constant prediction_size = 1;\n  // Max number of data groups\n  // Change this to your data group size\n  uint8 constant max_num_data_groups = 50;\n  // Training partition size\n  uint8 constant training_data_group_size = 40;\n  // Testing partition size\n  uint8 constant testing_data_group_size = max_num_data_groups - training_data_group_size;\n  // Dataset is divided into data groups.\n  // Every data group includes a nonce.\n  // Look at sha_data_group() for more detail about hashing a data group\n  bytes32[max_num_data_groups/partition_size] hashed_data_groups;\n  // Nonces are revelead together with data groups\n  uint[max_num_data_groups/partition_size] data_group_nonces;\n  // + 1 for prediction\n  // A data group has 3 data points in total\n  int256[datapoint_size][] public train_data;\n  int256[datapoint_size][] public test_data;\n  bytes32 partition_seed;\n  // Deadline for submitting solutions in terms of block size\n  uint public submission_stage_block_size = 100; // 20 minutes timeframe\n  // Deadline for revealing the testing dataset\n  uint public reveal_test_data_groups_block_size = 100; // 20 minutes timeframe\n  // Deadline for evaluating the submissions\n  uint public evaluation_stage_block_size = 100; // 20 minutes timeframe\n  uint public init1_block_height;\n  uint public init3_block_height;\n  uint public init_level = 0;\n  // Training partition size is 14 (70%)\n  // Testing partition size is 6 (30%)\n  uint[training_data_group_size/partition_size] public training_partition;\n  uint[testing_data_group_size/partition_size] public testing_partition;\n  uint256 train_dg_revealed = 0;\n  uint256 test_dg_revealed = 0;\n  Submission[] submission_queue;\n  bool public contract_terminated = false;\n  // Integer precision for calculating float values for weights and biases\n  int constant int_precision = 10000;\n\n  // Takes in array of hashed data points of the entire dataset,\n  // submission and evaluation times\n  function init1(bytes32[max_num_data_groups/partition_size] _hashed_data_groups, int accuracy_criteria, address organizer_refund_address) external {\n    // Make sure contract is not terminated\n    assert(contract_terminated == false);\n    // Make sure it's called in order\n    assert(init_level == 0);\n    organizer = organizer_refund_address;\n    init_level = 1;\n    init1_block_height = block.number;\n\n    // Make sure there are in total 20 hashed data groups\n    assert(_hashed_data_groups.length == max_num_data_groups/partition_size);\n    hashed_data_groups = _hashed_data_groups;\n    // Accuracy criteria example: 85.9% => 8,590\n    // 100 % => 10,000\n    assert(accuracy_criteria > 0);\n    model_accuracy_criteria = accuracy_criteria;\n  }\n\n  function init2() external {\n    // Make sure contract is not terminated\n    assert(contract_terminated == false);\n    // Only allow calling it once, in order\n    assert(init_level == 1);\n    // Make sure it's being called within 20 blocks on init1()\n    // to minimize organizer influence on random index selection\n    if (block.number <= init1_block_height+20 && block.number > init1_block_height) {\n      // Randomly select indexes\n      uint[] memory index_array = new uint[](max_num_data_groups/partition_size);\n      for (uint i = 0; i < max_num_data_groups/partition_size; i++) {\n        index_array[i] = i;\n      }\n      randomly_select_index(index_array);\n      init_level = 2;\n    } else {\n      // Cancel the contract if init2() hasn't been called within 5\n      // blocks of init1()\n      cancel_contract();\n    }\n  }\n\n  function init3(int256[] _train_data_groups, int256 _train_data_group_nonces) external {\n    // Pass a single data group at a time\n    // Make sure contract is not terminated\n    assert(contract_terminated == false);\n    // Only allow calling once, in order\n    assert(init_level == 2);\n    // Verify data group and nonce lengths\n    assert((_train_data_groups.length/partition_size)/datapoint_size == 1);\n    // Verify data group hashes\n    // Order of revealed training data group must be the same with training partitions\n    // Otherwise hash verification will fail\n    assert(sha_data_group(_train_data_groups, _train_data_group_nonces) ==\n      hashed_data_groups[training_partition[train_dg_revealed]]);\n    train_dg_revealed += 1;\n    // Assign training data after verifying the corresponding hash\n    unpack_data_groups(_train_data_groups, true);\n    if (train_dg_revealed == (training_data_group_size/partition_size)) {\n      init_level = 3;\n      init3_block_height = block.number;\n    }\n  }\n\n  function get_training_index() public view returns(uint[training_data_group_size/partition_size]) {\n    return training_partition;\n  }\n\n  function get_testing_index() public view returns(uint[testing_data_group_size/partition_size]) {\n    return testing_partition;\n  }\n\n  function get_submission_queue_length() public view returns(uint) {\n    return submission_queue.length;\n  }\n\n  function submit_model(\n    // Public function for users to submit a solution\n    address payment_address,\n    uint num_neurons_input_layer,\n    uint num_neurons_output_layer,\n    uint[] num_neurons_hidden_layer,\n    int[] weights,\n    int256[] biases) public {\n      // Make sure contract is not terminated\n      assert(contract_terminated == false);\n      // Make sure it's not the initialization stage anymore\n      assert(init_level == 3);\n      // Make sure it's still within the submission stage\n      assert(block.number < init3_block_height + submission_stage_block_size);\n      // Make sure that num of neurons in the input & output layer matches\n      // the problem description\n      assert(num_neurons_input_layer == datapoint_size - prediction_size);\n      // Because we can encode binary output in two different ways, we check\n      // for both of them\n      assert(num_neurons_output_layer == prediction_size || num_neurons_output_layer == (prediction_size+1));\n      // Make sure that the number of weights match network structure\n      assert(valid_weights(weights, num_neurons_input_layer, num_neurons_output_layer, num_neurons_hidden_layer));\n      // Add solution to submission queue\n      submission_queue.push(Submission(\n        payment_address,\n        num_neurons_input_layer,\n        num_neurons_output_layer,\n        num_neurons_hidden_layer,\n        weights,\n        biases));\n  }\n\n  function get_submission_id(\n    // Public function that returns the submission index ID\n    address paymentAddress,\n    uint num_neurons_input_layer,\n    uint num_neurons_output_layer,\n    uint[] num_neurons_hidden_layer,\n    int[] weights,\n    int256[] biases) public view returns (uint) {\n      // Iterate over submission queue to get submission index ID\n      for (uint i = 0; i < submission_queue.length; i++) {\n        if (submission_queue[i].payment_address != paymentAddress) {\n          continue;\n        }\n        if (submission_queue[i].num_neurons_input_layer != num_neurons_input_layer) {\n          continue;\n        }\n        if (submission_queue[i].num_neurons_output_layer != num_neurons_output_layer) {\n          continue;\n        }\n        for (uint j = 0; j < num_neurons_hidden_layer.length; j++) {\n            if (submission_queue[i].num_neurons_hidden_layer[j] != num_neurons_hidden_layer[j]) {\n              continue;\n            }\n        }\n        for (uint k = 0; k < weights.length; k++) {\n            if (submission_queue[i].weights[k] != weights[k]) {\n              continue;\n            }\n        }\n        for (uint l = 0; l < biases.length; l++) {\n          if (submission_queue[i].biases[l] != biases[l]) {\n            continue;\n          }\n        }\n        // If everything matches, return the submission index\n        return i;\n      }\n      // If submission is not in the queue, just throw an exception\n      require(false);\n  }\n\n    function reveal_test_data(int256[] _test_data_groups, int256 _test_data_group_nonces) external {\n    // Make sure contract is not terminated\n    assert(contract_terminated == false);\n    // Make sure it's not the initialization stage anymore\n    assert(init_level == 3);\n    // Make sure it's revealed after the submission stage\n    assert(block.number >= init3_block_height + submission_stage_block_size);\n    // Make sure it's revealed within the reveal stage\n    assert(block.number < init3_block_height + submission_stage_block_size + reveal_test_data_groups_block_size);\n    // Verify data group and nonce lengths\n    assert((_test_data_groups.length/partition_size)/datapoint_size == 1);\n    // Verify data group hashes\n    assert(sha_data_group(_test_data_groups, _test_data_group_nonces) ==\n      hashed_data_groups[testing_partition[test_dg_revealed]]);\n    test_dg_revealed += 1;\n    // Assign testing data after verifying the corresponding hash\n    unpack_data_groups(_test_data_groups, false);\n    // Use test data for evaluation\n    use_test_data = true;\n  }\n\n  function evaluate_model(uint submission_index) public {\n    // Make sure contract is not terminated\n    assert(contract_terminated == false);\n    // Make sure it's not the initialization stage anymore\n    assert(init_level == 3);\n    // Make sure it's evaluated after the reveal stage\n    assert(block.number >= init3_block_height + submission_stage_block_size + reveal_test_data_groups_block_size);\n    // Make sure it's evaluated within the evaluation stage\n    assert(block.number < init3_block_height + submission_stage_block_size + reveal_test_data_groups_block_size + evaluation_stage_block_size);\n    // Evaluates a submitted model & keeps track of the best model\n    int256 submission_accuracy = 0;\n    if (use_test_data == true) {\n      submission_accuracy = model_accuracy(submission_index, test_data);\n    } else {\n      submission_accuracy = model_accuracy(submission_index, train_data);\n    }\n\n    // Keep track of the most accurate model\n    if (submission_accuracy > best_submission_accuracy) {\n      best_submission_index = submission_index;\n      best_submission_accuracy = submission_accuracy;\n    }\n    // If accuracy is the same, the earlier submission is selected\n    if (submission_accuracy == best_submission_accuracy) {\n      if (submission_index < best_submission_index) {\n        best_submission_index = submission_index;\n        best_submission_accuracy = submission_accuracy;\n      }\n    }\n  }\n\n  function cancel_contract() public {\n    // Make sure contract is not already terminated\n    assert(contract_terminated == false);\n    // Contract can only be cancelled if initialization has failed.\n    assert(init_level < 3);\n    // Refund remaining balance to organizer\n    organizer.transfer(this.balance);\n    // Terminate contract\n    contract_terminated = true;\n  }\n\n  function finalize_contract() public {\n    // Make sure contract is not terminated\n    assert(contract_terminated == false);\n    // Make sure it's not the initialization stage anymore\n    assert(init_level == 3);\n    // Make sure the contract is finalized after the evaluation stage\n    assert(block.number >= init3_block_height + submission_stage_block_size + reveal_test_data_groups_block_size + evaluation_stage_block_size);\n    // Get the best submission to compare it against the criteria\n    Submission memory best_submission = submission_queue[best_submission_index];\n    // If best submission passes criteria, payout to the submitter\n    if (best_submission_accuracy >= model_accuracy_criteria) {\n      best_submission.payment_address.transfer(this.balance);\n    // If the best submission fails the criteria, refund the balance back to the organizer\n    } else {\n      organizer.transfer(this.balance);\n    }\n    contract_terminated = true;\n  }\n\n  function model_accuracy(uint submission_index, int256[datapoint_size][] data) public constant returns (int256){\n    // Make sure contract is not terminated\n    assert(contract_terminated == false);\n    // Make sure it's not the initialization stage anymore\n    assert(init_level == 3);\n    // Leave function public for offline error calculation\n    // Get's the sum error for the model\n    Submission memory sub = submission_queue[submission_index];\n    int256 true_prediction = 0;\n    int256 false_prediction = 0;\n    bool one_hot; // one-hot encoding if prediction size is 1 but model output size is 2\n    int[] memory prediction;\n    int[] memory ground_truth;\n    if ((prediction_size + 1) == sub.num_neurons_output_layer) {\n      one_hot = true;\n      prediction = new int[](sub.num_neurons_output_layer);\n      ground_truth = new int[](sub.num_neurons_output_layer);\n    } else {\n      one_hot = false;\n      prediction = new int[](prediction_size);\n      ground_truth = new int[](prediction_size);\n    }\n    for (uint i = 0; i < data.length; i++) {\n      // Get ground truth\n      for (uint j = datapoint_size-prediction_size; j < data[i].length; j++) {\n        uint d_index = j - datapoint_size + prediction_size;\n        // Only get prediction values\n        if (one_hot == true) {\n          if (data[i][j] == 0) {\n            ground_truth[d_index] = 1;\n            ground_truth[d_index + 1] = 0;\n          } else if (data[i][j] == 1) {\n            ground_truth[d_index] = 0;\n            ground_truth[d_index + 1] = 1;\n          } else {\n            // One-hot encoding for more than 2 classes is not supported\n            require(false);\n          }\n        } else {\n          ground_truth[d_index] = data[i][j];\n        }\n      }\n      // Get prediction\n      prediction = get_prediction(sub, data[i]);\n      // Get error for the output layer\n      for (uint k = 0; k < ground_truth.length; k++) {\n        if (ground_truth[k] == prediction[k]) {\n          true_prediction += 1;\n        } else {\n          false_prediction += 1;\n        }\n      }\n    }\n    // We multipl by int_precision to get up to x decimal point precision while\n    // calculating the accuracy\n    return (true_prediction * int_precision) / (true_prediction + false_prediction);\n  }\n\n  function get_train_data_length() public view returns(uint256) {\n    return train_data.length;\n  }\n\n  function get_test_data_length() public view returns(uint256) {\n    return test_data.length;\n  }\n\n  function round_up_division(int256 dividend, int256 divisor) private pure returns(int256) {\n    // A special trick since solidity normall rounds it down\n    return (dividend + divisor -1) / divisor;\n  }\n\n  function not_in_train_partition(uint[training_data_group_size/partition_size] partition, uint number) private pure returns (bool) {\n    for (uint i = 0; i < partition.length; i++) {\n      if (number == partition[i]) {\n        return false;\n      }\n    }\n    return true;\n  }\n\n  function randomly_select_index(uint[] array) private {\n    uint t_index = 0;\n    uint array_length = array.length;\n    uint block_i = 0;\n    // Randomly select training indexes\n    while(t_index < training_partition.length) {\n      uint random_index = uint(sha256(block.blockhash(block.number-block_i))) % array_length;\n      training_partition[t_index] = array[random_index];\n      array[random_index] = array[array_length-1];\n      array_length--;\n      block_i++;\n      t_index++;\n    }\n    t_index = 0;\n    while(t_index < testing_partition.length) {\n      testing_partition[t_index] = array[array_length-1];\n      array_length--;\n      t_index++;\n    }\n  }\n\n  function valid_weights(int[] weights, uint num_neurons_input_layer, uint num_neurons_output_layer, uint[] num_neurons_hidden_layer) private pure returns (bool) {\n    // make sure the number of weights match the network structure\n    // get number of weights based on network structure\n    uint ns_total = 0;\n    uint wa_total = 0;\n    uint number_of_layers = 2 + num_neurons_hidden_layer.length;\n\n    if (number_of_layers == 2) {\n      ns_total = num_neurons_input_layer * num_neurons_output_layer;\n    } else {\n      for(uint i = 0; i < num_neurons_hidden_layer.length; i++) {\n        // Get weights between first hidden layer and input layer\n        if (i==0){\n          ns_total += num_neurons_input_layer * num_neurons_hidden_layer[i];\n        // Get weights between hidden layers\n        } else {\n          ns_total += num_neurons_hidden_layer[i-1] * num_neurons_hidden_layer[i];\n        }\n      }\n      // Get weights between last hidden layer and output layer\n      ns_total += num_neurons_hidden_layer[num_neurons_hidden_layer.length-1] * num_neurons_output_layer;\n    }\n    // get number of weights in the weights array\n    wa_total = weights.length;\n\n    return ns_total == wa_total;\n  }\n\n    function unpack_data_groups(int256[] _data_groups, bool is_train_data) private {\n    int256[datapoint_size][] memory merged_data_group = new int256[datapoint_size][](_data_groups.length/datapoint_size);\n\n    for (uint i = 0; i < _data_groups.length/datapoint_size; i++) {\n      for (uint j = 0; j < datapoint_size; j++) {\n        merged_data_group[i][j] = _data_groups[i*datapoint_size + j];\n      }\n    }\n    if (is_train_data == true) {\n      // Assign training data\n      for (uint k = 0; k < merged_data_group.length; k++) {\n        train_data.push(merged_data_group[k]);\n      }\n    } else {\n      // Assign testing data\n      for (uint l = 0; l < merged_data_group.length; l++) {\n        test_data.push(merged_data_group[l]);\n      }\n    }\n  }\n\n    function sha_data_group(int256[] data_group, int256 data_group_nonce) private pure returns (bytes32) {\n      // Extract the relevant data points for the given data group index\n      // We concat all data groups and add the nounce to the end of the array\n      // and get the sha256 for the array\n      uint index_tracker = 0;\n      uint256 total_size = datapoint_size * partition_size;\n      /* uint256 start_index = data_group_index * total_size;\n      uint256 iter_limit = start_index + total_size; */\n      int256[] memory all_data_points = new int256[](total_size+1);\n\n      for (uint256 i = 0; i < total_size; i++) {\n        all_data_points[index_tracker] = data_group[i];\n        index_tracker += 1;\n      }\n      // Add nonce to the whole array\n      all_data_points[index_tracker] = data_group_nonce;\n      // Return sha256 on all data points + nonce\n      return sha256(all_data_points);\n    }\n\n  function relu_activation(int256 x) private pure returns (int256) {\n    if (x < 0) {\n      return 0;\n    } else {\n      return x;\n    }\n  }\n\n  function get_layer(uint nn) private pure returns (int256[]) {\n    int256[] memory input_layer = new int256[](nn);\n    return input_layer;\n  }\n\n  function get_hidden_layers(uint[] l_nn) private pure returns (int256[]) {\n    uint total_nn = 0;\n    // Skip first and last layer since they're not hidden layers\n    for (uint i = 1; i < l_nn.length-1; i++) {\n      total_nn += l_nn[i];\n    }\n    int256[] memory hidden_layers = new int256[](total_nn);\n    return hidden_layers;\n  }\n\n  function access_hidden_layer(int256[] hls, uint[] l_nn, uint index) private pure returns (int256[]) {\n    // Returns the hidden layer from the hidden layers array\n    int256[] memory hidden_layer = new int256[](l_nn[index+1]);\n    uint hidden_layer_index = 0;\n    uint start = 0;\n    uint end = 0;\n    for (uint i = 0; i < index; i++) {\n      start += l_nn[i+1];\n    }\n    for (uint j = 0; j < (index + 1); j++) {\n      end += l_nn[j+1];\n    }\n    for (uint h_i = start; h_i < end; h_i++) {\n      hidden_layer[hidden_layer_index] = hls[h_i];\n      hidden_layer_index += 1;\n    }\n    return hidden_layer;\n  }\n\n  function get_prediction(Submission sub, int[datapoint_size] data_point) private pure returns(int256[]) {\n    uint[] memory l_nn = new uint[](sub.num_neurons_hidden_layer.length + 2);\n    l_nn[0] = sub.num_neurons_input_layer;\n    for (uint i = 0; i < sub.num_neurons_hidden_layer.length; i++) {\n      l_nn[i+1] = sub.num_neurons_hidden_layer[i];\n    }\n    l_nn[sub.num_neurons_hidden_layer.length+1] = sub.num_neurons_output_layer;\n    return forward_pass(data_point, sub.weights, sub.biases, l_nn);\n  }\n\n  function forward_pass(int[datapoint_size] data_point, int256[] weights, int256[] biases, uint[] l_nn) private pure returns (int256[]) {\n    // Initialize neuron arrays\n    int256[] memory input_layer = get_layer(l_nn[0]);\n    int256[] memory hidden_layers = get_hidden_layers(l_nn);\n    int256[] memory output_layer = get_layer(l_nn[l_nn.length-1]);\n\n    // load inputs from input layer\n    for (uint input_i = 0; input_i < l_nn[0]; input_i++) {\n      input_layer[input_i] = data_point[input_i];\n    }\n    return forward_pass2(l_nn, input_layer, hidden_layers, output_layer, weights, biases);\n  }\n\n  function forward_pass2(uint[] l_nn, int256[] input_layer, int256[] hidden_layers, int256[] output_layer, int256[] weights, int256[] biases) public pure returns (int256[]) {\n    // index_counter[0] is weight index\n    // index_counter[1] is hidden_layer_index\n    uint[] memory index_counter = new uint[](2);\n    for (uint layer_i = 0; layer_i < (l_nn.length-1); layer_i++) {\n      int256[] memory current_layer;\n      int256[] memory prev_layer;\n      // If between input and first hidden layer\n      if (hidden_layers.length != 0) {\n        if (layer_i == 0) {\n          current_layer = access_hidden_layer(hidden_layers, l_nn, layer_i);\n          prev_layer = input_layer;\n        // If between output and last hidden layer\n        } else if (layer_i == (l_nn.length-2)) {\n          current_layer = output_layer;\n          prev_layer = access_hidden_layer(hidden_layers, l_nn, (layer_i-1));\n        // If between hidden layers\n        } else {\n          current_layer = access_hidden_layer(hidden_layers, l_nn, layer_i);\n          prev_layer = access_hidden_layer(hidden_layers, l_nn, layer_i-1);\n        }\n      } else {\n        current_layer = output_layer;\n        prev_layer = input_layer;\n      }\n      for (uint layer_neuron_i = 0; layer_neuron_i < current_layer.length; layer_neuron_i++) {\n        int total = 0;\n        for (uint prev_layer_neuron_i = 0; prev_layer_neuron_i < prev_layer.length; prev_layer_neuron_i++) {\n          total += prev_layer[prev_layer_neuron_i] * weights[index_counter[0]];\n          index_counter[0]++;\n        }\n        total += biases[layer_i];\n        total = total / int_precision; // Divide by int_precision to scale down\n        // If between output and last hidden layer\n        if (layer_i == (l_nn.length-2)) {\n            output_layer[layer_neuron_i] = relu_activation(total);\n        } else {\n            hidden_layers[index_counter[1]] = relu_activation(total);\n        }\n        index_counter[1]++;\n      }\n    }\n    return output_layer;\n  }\n\n  // Fallback function for sending ether to this contract\n  function () public payable {}\n}\n",
  "sourcePath": "contracts/Danku.sol",
  "type": "contract"
}